:020000040800F2
:10000000E8150020D19A0008699A00086B9A000848
:100010006D9A00086F9A0008719A000800000000AD
:10002000000000000000000000000000739A0008BB
:10003000759A000800000000779A0008799A000875
:10004000ED9A0008F19A0008F59A0008F99A00085C
:10005000FD9A0008019B0008059B0008099B000809
:100060000D9B0008119B0008159B0008199B0008B8
:100070001D9B0008219B0008259B0008299B000868
:100080002D9B0008319B0008359B0008399B000818
:100090003D9B0008419B0008459B0008499B0008C8
:1000A0004D9B0008519B0008559B0008599B000878
:1000B0005D9B0008619B000800000000659B000834
:1000C000699B00086D9B0008719B0008759B0008E8
:1000D00000000000799B00087D9B0008819B0008C0
:1000E0007D9A0008859B00080000000000000000C9
:1000F0000000000000000000000000000000000000
:1001000000000000000000000000000000000000EF
:100110000000000000000000899B00088D9B000883
:1001200000000000000000000000000000000000CF
:1001300000000000000000000000000000000000BF
:10014000919B0008959B000800000000999B000807
:100150009D9B0008A19B0008A59B0008A99B000887
:10016000AD9B0008B19B00080000000000000000EB
:10017000000000000000000000000000000000007F
:1001800000000000B59B0008000000000000000017
:10019000000000000000000000000000000000005F
:1001A000000000000000000000000000000000004F
:1001B000000000000000000000000000000000003F
:1001C000000000000000000000000000000000002F
:1001D0000000000000000380000380000380000393
:1001E0008000038000038000038000038000038000
:1001F000000100000100000000000000000380007A
:10020000038000000000000000000000000000006B
:1002100000000000000000000000000000000000DE
:10022000000E70000E70000E70000420000420000C
:100230000420000420000000000000000000000076
:1002400000000000000000000000000000000000AE
:10025000000000000000000000000000000000009E
:100260000000000000000660000660000660000656
:1002700060000660003FF8003FF8000660000CC018
:10028000003FF8003FF8000CC0000CC0000CC0009C
:100290000CC0000CC00000000000000000000000C6
:1002A000000000000000000000000001800001804C
:1002B0000007B0000FF0001870001870001C00005C
:1002C0000F800007E00000F0001830001C30001C18
:1002D00070001FE0001BC000018000018000018051
:1002E000000180000000000000000000000000008D
:1002F0000000000000000780000FC0001CE0001894
:1003000060001860001CE0000FF80007E0001FF01C
:100310000007380006180006180007380003F00030
:1003200001E00000000000000000000000000000EC
:1003300000000000000000000000000000000000BD
:100340000000000003F00007F0000C60000C00004B
:100350000C00000600000700000F9C001DFC0018A8
:10036000F0001870000FFC0007DC00000000000027
:10037000000000000000000000000000000000007D
:100380000000000000000000000380000380000364
:1003900080000100000100000100000100000000D9
:1003A000000000000000000000000000000000004D
:1003B000000000000000000000000000000000003D
:1003C0000000000000000000000000000000001815
:1003D0000000380000700000F00000E00000E000C5
:1003E00001C00001C00001C00001C00001C0000147
:1003F000C00000E00000E000007000007000003865
:1004000000001800000000000000000000000000D4
:100410000000000000001800001C00000E00000E8C
:100420000000070000070000038000038000038035
:100430000003800003800003800007000007000025
:100440000F00000E00001C0000180000000000005B
:10045000000000000000000000000000000001801B
:10046000000180000180001DB8001FF80007E000B7
:1004700003C00003C000066000066000000000002A
:10048000000000000000000000000000000000006C
:10049000000000000000000000000000000000005C
:1004A00000000000000000000000000001800001CA
:1004B00080000180000180000180003FFC003FFCC3
:1004C00000018000018000018000018000018000A7
:1004D000000000000000000000000000000000001C
:1004E000000000000000000000000000000000000C
:1004F00000000000000000000000000000000000FC
:1005000000000000000000000000000000000000EB
:10051000000000E00000C00001C000018000018078
:1005200000030000030000000000000000000000C5
:1005300000000000000000000000000000000000BB
:1005400000000000000000000000001FF8001FF87D
:10055000000000000000000000000000000000009B
:10056000000000000000000000000000000000008B
:10057000000000000000000000000000000000007B
:10058000000000000000000000000000000000006B
:10059000000000000000000000000000000000005B
:1005A000000003C00003C00003C000000000000002
:1005B000000000000000000000000000000000003B
:1005C0000018000018000038000030000070000023
:1005D000600000600000C00000C0000180000180D9
:1005E000000300000300000600000600000E0000EB
:1005F0000C00001C000018000018000000000000A3
:10060000000000000000000000000000000003C027
:100610000007E0000C30000C30001818001818001B
:100620001818001818001818001818001818000CCE
:1006300030000C300007E00003C0000000000000A4
:1006400000000000000000000000000000000000AA
:100650000000000000000080000780001F80001DD7
:100660008000018000018000018000018000018085
:10067000000180000180000180000180001FF8005F
:100680001FF8000000000000000000000000000053
:10069000000000000000000000000000000007C093
:1006A000001FF0003830003018003018000018002B
:1006B00000300000600001C0000380000600000C54
:1006C00000001800003FF8003FF8000000000000A4
:1006D000000000000000000000000000000000001A
:1006E00000000000000003C0000FE0000C700000DC
:1006F000300000300000600003C00003E000007024
:10070000000018000018000018001838001FF00042
:100710000FC000000000000000000000000000000A
:10072000000000000000000000000000000000E0E9
:100730000001E00001E000036000066000066000C8
:100740000C60000C60001860003060003FF8003F53
:10075000F80000600003F80003F80000000000004B
:100760000000000000000000000000000000000089
:100770000000000000001FF0001FF000180000182B
:1007800000001800001BC0001FF0001C3000001803
:10079000000018000018000018003030003FF00082
:1007A0000FC000000000000000000000000000007A
:1007B000000000000000000000000000000000F841
:1007C0000003F8000700000E00000C0000180000F5
:1007D0001BC0001FF0001C3000181800181800186B
:1007E00018000C38000FF00003E0000000000000CB
:1007F00000000000000000000000000000000000F9
:100800000000000000001FF8001FF8001818001872
:100810003800003000003000007000006000006010
:100820000000E00000C00000C00001C00001800026
:100830000180000000000000000000000000000037
:10084000000000000000000000000000000007E0C1
:10085000000FF0001C38001818001818000C3000A9
:1008600007E00007E0000C30001818001818001806
:1008700018001C38000FF00007E000000000000026
:100880000000000000000000000000000000000068
:1008900000000000000007C0000FF0001C3000182E
:1008A00018001818001818000C38000FF80003D8AA
:1008B0000000180000300000700000E0001FC000C1
:1008C0001F00000000000000000000000000000009
:1008D0000000000000000000000000000000000018
:1008E0000000000000000000000003C00003C00082
:1008F00003C0000000000000000000000000000035
:10090000000003C00003C00003C00000000000009E
:1009100000000000000000000000000000000000D7
:1009200000000000000000000000000000000000C7
:10093000000000F00000F00000F0000000000000E7
:100940000000000000000000E00001C00001800085
:100950000180000300000200000000000000000011
:100960000000000000000000000000000000000087
:1009700000000000001C00003C0000F00003C0006C
:100980000F00003C0000F000003C00000F000003DE
:10099000C00000F000003C00001C0000000000004F
:1009A0000000000000000000000000000000000047
:1009B0000000000000000000000000000000000037
:1009C00000000000007FFC007FFC00000000000031
:1009D000007FFC007FFC0000000000000000000021
:1009E0000000000000000000000000000000000007
:1009F00000000000000000000000000000000000F7
:100A0000000000007000007800001E000007800059
:100A100001E000007800001E0000780001E00007FF
:100A200080001E0000780000700000000000000040
:100A300000000000000000000000000000000000B6
:100A400000000000000000000007C0000FE00018D8
:100A5000700018300018300000700000E00003C083
:100A600000038000030000000000000000070000F9
:100A7000070000000000000000000000000000006F
:100A8000000000000000000000000000000003E083
:100A90000007F0000E38000C180018780018F80055
:100AA00019D80019980019980019980018F800181A
:100AB00078001800000C00000E180007F80003E092
:100AC0000000000000000000000000000000000026
:100AD0000000000000000000001F80001FC0000197
:100AE000C0000360000360000630000630000C30D8
:100AF000000FF8001FF800180C00300C00FC7F00FD
:100B0000FC7F00000000000000000000000000006A
:100B100000000000000000000000000000000000D5
:100B2000007FE0007FF00018380018180018180047
:100B30001838001FF0001FF800181C00180C0018CF
:100B40000C00180C007FF8007FF00000000000008F
:100B50000000000000000000000000000000000095
:100B600000000000000000000003EC000FFC001C6F
:100B70001C00180C00300C00300000300000300069
:100B800000300000300000180C001C1C000FF800A2
:100B900003F0000000000000000000000000000062
:100BA0000000000000000000000000000000000045
:100BB000007FC0007FF000183800181800180C00E3
:100BC000180C00180C00180C00180C00180C001859
:100BD00018001838007FF0007FE0000000000000DF
:100BE0000000000000000000000000000000000005
:100BF0000000000000000000007FF8007FF80018EF
:100C000018001818001998001980001F80001F8014
:100C1000001980001998001818001818007FF800B3
:100C20007FF800000000000000000000000000004D
:100C300000000000000000000000000000000000B4
:100C4000003FFC003FFC000C0C000C0C000CCC0026
:100C50000CC0000FC0000FC0000CC0000CC0000C86
:100C600000000C00003FC0003FC00000000000007A
:100C70000000000000000000000000000000000074
:100C800000000000000000000003EC000FFC001C4E
:100C90001C00180C00300C0030000030000030FE4A
:100CA0000030FE00300C00380C001C1C000FFC0053
:100CB00003F0000000000000000000000000000041
:100CC0000000000000000000000000000000000024
:100CD000007E7E007E7E001818001818001818008C
:100CE0001818001FF8001FF800181800181800182E
:100CF00018001818007E7E007E7E000000000000B4
:100D000000000000000000000000000000000000E3
:100D10000000000000000000001FF8001FF80001A4
:100D200080000180000180000180000180000180BE
:100D3000000180000180000180000180001FF80098
:100D40001FF800000000000000000000000000008C
:100D50000000000000000000000000000000000093
:100D60000007FE0007FE00003000003000003000E9
:100D700000300000300030300030300030300030C3
:100D800030003060003FE0000F80000000000000F5
:100D90000000000000000000000000000000000053
:100DA0000000000000000000007F3E007F3E0018B1
:100DB000300018600018C0001980001B80001FC0A0
:100DC000001CE0001870001830001838007F1F0069
:100DD0007F1F000000000000000000000000000075
:100DE0000000000000000000000000000000000003
:100DF000007F80007F80000C00000C00000C0000D1
:100E00000C00000C00000C00000C0C000C0C000C82
:100E10000C000C0C007FFC007FFC000000000000B8
:100E200000000000000000000000000000000000C2
:100E3000000000000000000000F00F00F81F003864
:100E40001C003C3C003C3C00366C00366C0033CC53
:100E50000033CC00318C00300C00300C00FE7F00E1
:100E6000FE7F000000000000000000000000000005
:100E70000000000000000000000000000000000072
:100E80000078FE0078FE001C18001E18001F1800D5
:100E90001B18001B980019D80018D80018F8001863
:100EA00078001838007F18007F180000000000004C
:100EB0000000000000000000000000000000000032
:100EC00000000000000000000003C0000FF0001C44
:100ED0003800181800381C00300C00300C00300CA2
:100EE00000300C00381C001818001C38000FF000EF
:100EF00003C000000000000000000000000000002F
:100F000000000000000000000000000000000000E1
:100F1000003FF0003FF8000C1C000C0C000C0C0013
:100F20000C0C000C18000FF8000FE0000C00000C77
:100F300000000C00003FC0003FC0000000000000A7
:100F400000000000000000000000000000000000A1
:100F500000000000000000000003C0000FF0001CB3
:100F60003800181800381C00300C00300C00300C11
:100F700000300C00381C001818001C38000FF0005E
:100F800007C00007CC000FFC000C38000000000078
:100F90000000000000000000000000000000000051
:100FA000007FE0007FF000183800181800181800C3
:100FB0001838001FF0001FC00018E000187000185B
:100FC00030001838007F1E007F0E00000000000077
:100FD0000000000000000000000000000000000011
:100FE00000000000000000000007D8000FF8001CFF
:100FF00038001818001818001E00000FC00003F079
:10100000000078001818001818001C38001FF000A5
:101010001BE00000000000000000000000000000D5
:1010200000000000000000000000000000000000C0
:10103000003FFC003FFC00318C00318C00318C0003
:10104000318C0001800001800001800001800001DE
:1010500080000180000FF0000FF000000000000091
:101060000000000000000000000000000000000080
:101070000000000000000000007E7E007E7E001860
:101080001800181800181800181800181800181858
:10109000001818001818001818000C30000FF00085
:1010A00003C000000000000000000000000000007D
:1010B0000000000000000000000000000000000030
:1010C000007F7F007F7F00180C000C18000C1800B8
:1010D0000C180006300006300003600003600003B7
:1010E000600001C00001C00000800000000000009E
:1010F00000000000000000000000000000000000F0
:10110000000000000000000000FE3F80FE3F803035
:10111000060030060030860019CC0019CC001B6C8C
:10112000001B6C001E7C000E38000E38000C1800EE
:101130000C1800000000000000000000000000008B
:10114000000000000000000000000000000000009F
:10115000007E7E007E7E001818000C3000066000C5
:1011600003C00001800001800003C0000660000C85
:1011700030001818007E7E007E7E00000000000017
:10118000000000000000000000000000000000005F
:101190000000000000000000007C7E007C7E001843
:1011A00018000C300006600006600003C0000180DB
:1011B000000180000180000180000180000FF0002C
:1011C0000FF0000000000000000000000000000020
:1011D000000000000000000000000000000000000F
:1011E000001FF8001FF800181800183000186000E1
:1011F00018C0000180000300000618000C18001839
:1012000018003018003FF8003FF800000000000010
:1012100000000000000000000000000000000000CE
:1012200000000000000001F00001F000018000015A
:1012300080000180000180000180000180000180A9
:101240000001800001800001800001800001800019
:1012500001800001800001F00001F00000000000AA
:1012600000000000000000001800001800001C0032
:10127000000C00000E000006000006000003000045
:1012800003000001800001800000C00000C00000D9
:10129000600000600000700000300000380000189E
:1012A0000000180000000000000000000000000026
:1012B0000000000000000F80000F8000018000018E
:1012C0008000018000018000018000018000018019
:1012D0000001800001800001800001800001800089
:1012E0000180000180000F80000F800000000000DE
:1012F000000000000000000000000000800001C0AD
:101300000003E0000770000630000C1800180C0005
:1013100010040000000000000000000000000000B9
:1013200000000000000000000000000000000000BD
:1013300000000000000000000000000000000000AD
:10134000000000000000000000000000000000009D
:10135000000000000000000000000000000000008D
:10136000000000000000000000000000000000007D
:10137000000000000000000000000000000000006D
:101380000000FFFF00FFFF000000000300000380DB
:101390000000E0000060000000000000000000000D
:1013A000000000000000000000000000000000003D
:1013B000000000000000000000000000000000002D
:1013C000000000000000000000000000000000001D
:1013D000000000000000000000000000000000000D
:1013E00000000FC0001FE00000300000300007F0D8
:1013F000001FF0003830003030003070001FFC005B
:101400000FBC000000000000000000000000000011
:101410000000000000000000000000000000780054
:10142000007800001800001800001BE0001FF80002
:101430001C1800180C00180C00180C00180C0018D0
:101440000C001C18007FF8007BE00000000000008A
:10145000000000000000000000000000000000008C
:10146000000000000000000000000000000000007C
:10147000000003EC000FFC001C1C00380C00300CBA
:1014800000300000300000380C001C1C000FF80079
:1014900003F0000000000000000000000000000059
:1014A00000000000000000000000000000000078C4
:1014B0000000780000180000180007D8001FF8008E
:1014C000183800301800301800301800301800307C
:1014D00018001838001FFE0007DE000000000000A2
:1014E00000000000000000000000000000000000FC
:1014F00000000000000000000000000000000000EC
:10150000000007E0001FF800181800300C003FFC36
:10151000003FFC00300000300000180C001FFC00F1
:1015200007F00000000000000000000000000000C4
:10153000000000000000000000000000000001FCAE
:101540000003FC000600000600003FF8003FF80022
:101550000600000600000600000600000600000667
:1015600000000600003FF0003FF000000000000017
:10157000000000000000000000000000000000006B
:10158000000000000000000000000000000000005B
:10159000000007DE001FFE00183800301800301869
:1015A000003018003018003018001838001FF800FC
:1015B00007D8000018000018000038000FF0000FD6
:1015C000C0000000000000000000000000007800E3
:1015D000007800001800001800001BE0001FF00059
:1015E0001C380018180018180018180018180018CF
:1015F00018001818007E7E007E7E000000000000AB
:1016000000000000000000000000000000000000DA
:1016100000000000000001800001800000000000C8
:1016200000001F80001F80000180000180000180F9
:10163000000180000180000180000180003FFC006B
:101640003FFC00000000000000000000000000005F
:10165000000000000000000000000000000000C0CA
:101660000000C0000000000000001FF0001FF0009C
:10167000003000003000003000003000003000007A
:10168000300000300000300000300000300000303A
:10169000000070001FE0001F80000000000000003C
:1016A0000000000000003C00003C00000C00000CAA
:1016B00000000CF8000CF8000CC0000D80000F803A
:1016C000000F00000F80000DC0000CE0003C7C000B
:1016D0003C7C000000000000000000000000000052
:1016E00000000000000000000000000000001F805B
:1016F000001F800001800001800001800001800047
:101700000180000180000180000180000180000153
:1017100080000180003FFC003FFC00000000000052
:1017200000000000000000000000000000000000B9
:1017300000000000000000000000000000000000A9
:101740000000F77800FFFC0039CC00318C00318CB0
:1017500000318C00318C00318C00318C00FDEF00A9
:10176000FDEF00000000000000000000000000008D
:101770000000000000000000000000000000000069
:10178000000000000000000000007BE0007FF0008F
:101790001C3800181800181800181800181800181D
:1017A00018001818007E7E007E7E000000000000F9
:1017B0000000000000000000000000000000000029
:1017C0000000000000000000000000000000000019
:1017D000000003C0000FF0001C3800381C00300C63
:1017E00000300C00300C00381C001C38000FF000DA
:1017F00003C0000000000000000000000000000026
:1018000000000000000000000000000000000000D8
:10181000000000000000000000007BE0007FF800F6
:101820001C1800180C00180C00180C00180C0018DC
:101830000C001C18001FF8001BE000180000180026
:10184000001800007F00007F000000000000000082
:101850000000000000000000000000000000000088
:10186000000007DE001FFE00183800301800301896
:10187000003018003018003018001838001FF80029
:1018800007D80000180000180000180000FE000033
:10189000FE0000000000000000000000000000004A
:1018A000000000000000000000003E78003EFC0048
:1018B00007CC000700000600000600000600000636
:1018C00000000600003FF0003FF0000000000000B4
:1018D0000000000000000000000000000000000008
:1018E00000000000000000000000000000000000F8
:1018F000000007F8000FF8001818001818001F80E3
:10190000000FF00000F8001818001838001FF00051
:101910001FE00000000000000000000000000000C8
:1019200000000000000000000000000000000C00AB
:10193000000C00000C00000C00003FF0003FF00025
:101940000C00000C00000C00000C00000C00000C4F
:1019500000000C1C0007FC0003F000000000000069
:101960000000000000000000000000000000000077
:101970000000000000000000000000000000000067
:1019800000007878007878001818001818001818E7
:10199000001818001818001818001838000FFE005A
:1019A00007DE000000000000000000000000000052
:1019B0000000000000000000000000000000000027
:1019C000000000000000000000007C3E007C3E00A3
:1019D0001818001818000C30000C300006600006C3
:1019E000600007E00003C00003C00000000000002A
:1019F00000000000000000000000000000000000E7
:101A000000000000000000000000000000000000D6
:101A10000000783C00783C0031180033980033987F
:101A2000001AB0001EF0001EF0001C60000C6000E8
:101A30000C6000000000000000000000000000003A
:101A40000000000000000000000000000000000096
:101A5000000000000000000000003E7C003E7C0012
:101A60000C300006600003C00001800003C00006C7
:101A700060000C30003E7C003E7C00000000000056
:101A80000000000000000000000000000000000056
:101A90000000000000000000000000000000000046
:101AA00000007E1F007E1F00180C000C18000C1890
:101AB0000006300006300003600003E00001C000B3
:101AC00000C0000180000180000300003FC0003F13
:101AD000C000000000000000000000000000000046
:101AE000000000000000000000001FF8001FF800C8
:101AF00018300018600000C00001800003000006DC
:101B000018000C18001FF8001FF80000000000006B
:101B100000000000000000000000000000000000C5
:101B200000000000000000E00001E0000180000172
:101B3000800001800001800001800001800003809E
:101B40000007000003800001800001800001800088
:101B500001800001800001E00000E00000000000C2
:101B600000000000000000000000000000000180F4
:101B700000018000018000018000018000018000E0
:101B800001800001800001800001800001800001CF
:101B90008000018000018000018000018000018040
:101BA00000018000000000000000000000000000B4
:101BB0000000000000000700000780000180000115
:101BC000800001800001800001800001800001C0D0
:101BD0000000E00001C000018000018000018000E1
:101BE0000180000180000780000700000000000065
:101BF00000000000000000000000000000000000E5
:101C000000000000000000000000000000000000D4
:101C10000E00001F18003BB80031F00000E000008B
:101C200000000000000000000000000000000000B4
:101C300000000000000000000000000000000000A4
:101C40000000000000000000000000000010101064
:101C50001010000010000000006C48480000000058
:101C600000000000001414287C287C28505000003C
:101C700000103840403848701010000000205020FC
:101C80000C700814080000000000001820205448C0
:101C900034000000001010101000000000000000D0
:101CA0000008081010101010100808000020201064
:101CB000101010101020200000107C1028280000A8
:101CC000000000000000101010FE101010000000B6
:101CD000000000000000001810302000000000008C
:101CE000007C000000000000000000000000003048
:101CF00030000000000404080810102020400000FC
:101D0000003844444444444438000000003010107B
:101D1000101010107C00000000384404081020440B
:101D20007C0000000038440418040444380000001B
:101D3000000C141424447E040E000000003C2020FB
:101D40003804044438000000001C20407844444417
:101D500038000000007C440408080810100000004F
:101D600000384444384444443800000000384444B7
:101D7000443C0408700000000000003030000030D7
:101D8000300000000000001818000018302000008B
:101D900000000C10608060100C00000000000000CB
:101DA0007C007C00000000000000C0201804182007
:101DB000C0000000000018240408100030000000DB
:101DC0003844444C54544C404438000000301028EF
:101DD00028287C44EE00000000F844447844444441
:101DE000F8000000003C44404040404438000000FF
:101DF00000F0484444444448F000000000FC4450D3
:101E000070504044FC000000007E2228382820202A
:101E100070000000003C4440404E44443800000044
:101E200000EE44447C444444EE000000007C10106A
:101E3000101010107C000000003C080808484848BA
:101E40003000000000EE444850704844E6000000B6
:101E500000702020202024247C00000000EE6C6C08
:101E600054544444EE00000000EE64645454544C56
:101E7000EC0000000038444444444444380000006E
:101E800000782424243820207000000000384444C6
:101E900044444444381C000000F844444478484416
:101EA000E200000000344C40380404645800000094
:101EB00000FE9210101010103800000000EE444494
:101EC000444444443800000000EE444428282810CC
:101ED0001000000000EE4444545454542800000004
:101EE00000C6442810102844C600000000EE442814
:101EF0002810101038000000007C44081010204406
:101F00007C000000003820202020202020203800E5
:101F100000402020201010080808000000380808A1
:101F200008080808080838000010102844000000BD
:101F3000000000000000000000000000000000FEA3
:101F40000010080000000000000000000000003841
:101F5000443C44443E00000000C0405864444444B3
:101F6000F80000000000003C4440404438000000FD
:101F7000000C04344C4444443E000000000000388F
:101F8000447C40403C000000001C207C202020209D
:101F90007C000000000000364C4444443C043800FF
:101FA00000C0405864444444EE000000001000703B
:101FB000101010107C0000000010007808080808BD
:101FC0000808700000C0405C48705048DC00000009
:101FD00000301010101010107C000000000000E80D
:101FE00054545454FE000000000000D8644444449B
:101FF000EE00000000000038444444443800000073
:10200000000000D8644444447840E00000000036FA
:102010004C4444443C040E000000006C302020205E
:102020007C0000000000003C4438044478000000BC
:102030000000207C202020221C000000000000CC9A
:102040004444444C36000000000000EE444428287C
:1020500010000000000000EE44545454280000001A
:10206000000000CC48303048CC000000000000EEFA
:1020700044242818101078000000007C48102044E8
:102080007C00000000081010101020101010080034
:102090000010101010101010101000000020101070
:1020A000101008101010200000000000002458003C
:1020B00000000000000000000000000020202020A0
:1020C0000020000050500000000000002850F85090
:1020D000F850A000203060301060200020201860F0
:1020E00010100000003820605078000020202000F0
:1020F0000000000010202020202010004020202080
:10210000202040002070205000000000002020F817
:1021100020200000000000001020200000000070BF
:10212000000000000000000000200000102020201F
:10213000404080002050505050200000602020205F
:1021400020F8000020502020407000002050102077
:10215000106000001030507810380000704060109F
:10216000502000003040605050600000705010203F
:1021700020200000205020505020000030505030CF
:10218000106000000000200000200000000010008F
:1021900010200000001020C020100000007000700F
:1021A00000000000004020182040000020501020B7
:1021B00000200000304848584840380060205070E7
:1021C00088D80000F048704848F000007050404047
:1021D00040300000F048484848F00000F8486040AF
:1021E00048F80000F848604040E000007040405867
:1021F00050300000E848784848E80000702020206F
:10220000207000003810105050200000D85060702E
:1022100050D80000E040404048F80000D8D8D8A886
:1022200088D80000D868685858E800003048484806
:1022300048300000F048487040E00000304848480E
:1022400048301800F048487048E8000070502010EE
:1022500050700000F8A8202020700000D84848489E
:1022600048300000D888485050300000D888A8A8CE
:10227000A8500000D850202050D80000D888502006
:10228000207000007848102048780000302020207E
:10229000202030008040402020201000602020209E
:1022A00020206000202050000000000000000000FE
:1022B000000000F8201000000000000000003010B6
:1022C00070780000C040704848F000000000704086
:1022D000407000001808384848380000000070704E
:1022E00040300000102070202070000000003848AE
:1022F00048380830C040704848E80000200060209E
:10230000207000002000701010101070C040587035
:1023100050D8000060202020207000000000D0A8CD
:10232000A8A800000000F04848C80000000030489D
:10233000483000000000F048487040E00000384895
:102340004838081800007820207000000000302075
:10235000106000000040F040483000000000D84805
:10236000483800000000C848303000000000D8A8FD
:10237000A850000000004830304800000000D8504D
:102380005020206000007850287800001020206045
:10239000202010002020202020202000402020305D
:1023A000202040000000002850000000F0B47D4CC8
:1023B0000022002325462E6876B1D0F80072BE4276
:1023C00002BF6E68D0F80872BE4202BF2E89B0F814
:1023D0000672BE4201D13DE00122EE685B1C0EB9DF
:1023E00001220DE0D0F80072BE4202BF2E69D0F883
:1023F0000872BE4202BFAE8AB0F80672BE4229D051
:10240000AE695B1C0EB901220DE0D0F80072BE422D
:1024100002BFEE69D0F80872BE4202BF2E8CB0F83F
:102420000672BE4216D06E6A5B1C0EB901220DE028
:10243000D0F80072BE4202BFAE6AD0F80872BE4247
:1024400002BFAE8DB0F80672BE4203D05B1C3035C1
:102450000C2BB0D30C2B05D182B902290ED0F0BCC5
:102460001220704739B903EB430004EB8000408928
:10247000B0F5807F02D1F0BC10207047F0BC002086
:1024800070470000F0B4474BB0F80662D0F808720D
:10249000D0F8004200221D46D5F800C0A44501BF77
:1024A000D5F804C0BC45B5F808C0B44527D0D5F868
:1024B0000CC0521CA44501BFD5F810C0BC45B5F8EE
:1024C00014C0B4451BD0D5F818C0521CA44501BF98
:1024D000D5F81CC0BC45B5F820C0B4450FD0D5F820
:1024E00024C0521CA44501BFD5F828C0BC45B5F88E
:1024F0002CC0B44503D0521C30350C2ACCD30C2A46
:1025000023D100224FEA030555F80C6B76B155F83C
:102510000C6B521C56B155F80C6B521C36B155F869
:102520000C6B521C16B1521C0C2AEDD30C2A13D082
:1025300002EB4205AD00EC50EC18D0F80852656093
:10254000B0F8060220810020608102EB420003EB1C
:102550008000438931B113B1F0BC002070474FF4C3
:10256000807100E0591C4181501CF0BC7047401E36
:102570000C2815D200EB400188000A494218538903
:10258000B3F5807F18BF002B02D10023538103E0F5
:102590005B1E53819BB20BB9002242500020704752
:1025A000022070475C0C002070B5044694F80402C9
:1025B00030B3D4F82C5294F8010201232A46214664
:1025C00001F0B5FF08B1012070BD84F80402D4F811
:1025D0002002D4F81812281A884211D294F8030263
:1025E00002280DD3B0F10106D4F81802451994F869
:1025F000010201232A46214601F099FF761EF3D1FC
:10260000002070BD30B5044681B0D4F82C020D46D0
:10261000854210D02046FFF7C7FF38B994F8010271
:1026200001232A46214601F074FF10B1012001B0B8
:1026300030BDC4F82C52002001B030BD30B581B09F
:102640000446FFF7B1FF050062D194F800020328A9
:1026500004BF94F80502012852D14FF400712046BE
:1026600001F080FF552084F8FE010123AA2084F8A0
:10267000FF0121465220207060706120A07041202F
:10268000E070722084F8E40184F8E501412084F8C8
:10269000E601612084F8E701D4F8100284F8E8012B
:1026A000D4F810020004000E84F8E901D4F81002F6
:1026B000000C84F8EA01D4F81002000E84F8EB0153
:1026C000D4F80C0284F8EC01D4F80C020004000EDB
:1026D00084F8ED01D4F80C02000C84F8EE01D4F873
:1026E0000C02000E84F8EF01D4F81C02421CC4F85E
:1026F0002C2294F8010201F01AFF002084F8050250
:10270000002294F80102002101F01FFF00B1012511
:10271000284601B030BD2DE9F0410D460446022D9A
:1027200003D3D4F81402854202D30120BDE8F0811E
:1027300094F80002012805D0C0F08F80032864D0EF
:1027400042D38AE0D4F8200205EB550600EB562769
:10275000D4F82C0287420FD02046FFF725FF00282F
:102760007BD194F8010201233A46214601F0D1FEC3
:10277000002872D1C4F82C72F005C00D761C075DDC
:10278000D4F8200200EB5628D4F82C0280450FD054
:102790002046FFF709FF00285FD194F801020123CA
:1027A0004246214601F0B5FE002856D1C4F82C82DD
:1027B000F005C00D005D47EA0027E8075ABF38055D
:1027C000000D3809BDE8F081D4F8200200EB152691
:1027D000D4F82C0286420ED02046FFF7E5FE0028F2
:1027E0003BD194F8010201233246214601F091FECB
:1027F00098BBC4F82C626800C00514EBD050417837
:10280000007840EA0120BDE8F081D4F8200200EB16
:10281000D516D4F82C0286420DD02046FFF7C4FE10
:10282000D8B994F8010201233246214601F071FE25
:1028300098B9C4F82C62A800C00514EBD050827877
:10284000C178120442EA01614278007841EA02212B
:10285000084300010009BDE8F0814FF0FF30BDE8FA
:10286000F0812DE9F0430C4681B080461546022CDC
:1028700003D3D8F81402844204D30227384601B0A7
:10288000BDE8F08398F80002012805D0C0F0A680CA
:10289000032878D055D3A1E0D8F8200204EB5406E1
:1028A00000EB5627D8F82C0287420DD04046FFF7A0
:1028B0007BFEB8B998F8010201233A46414601F07F
:1028C00028FE78B9C8F82C720027F00508EBD05024
:1028D00014F001041DBF017801F00F0141EA051158
:1028E000294601E001277AE00170012088F80402FE
:1028F000761CD8F8200200EB5629D8F82C02814526
:102900000FD04046FFF750FE0028EBD198F80102A7
:1029100001234A46414601F0FCFD0028E2D1C8F8F7
:102920002C92F00508EBD05014B12909017056E043
:102930002A0A017801F0F00102F00F021143017040
:102940004DE0D8F8200200EB1426D8F82C0286427D
:102950000FD04046FFF728FE0028C3D198F80102A7
:1029600001233246414601F0D4FD0028BAD1C8F80F
:102970002C626000C00508EBD050002705702D04C4
:10298000290E41702BE0D8F8200200EBD416D8F8BD
:102990002C0286420FD04046FFF706FE0028A1D148
:1029A00098F8010201233246414601F0B2FD0028A9
:1029B00098D1C8F82C62A000C00508EBD0500027C1
:1029C000C178090601F070410D4329040570090E14
:1029D0004170290C8170290EC17000E0022701208E
:1029E00088F8040201B03846BDE8F0832DE9F043D1
:1029F0000E4681B08046022E0DD3D8F814028642CE
:102A000009D2002431464046FFF785FE050000F05C
:102A1000DD80012D04D10224204601B0BDE8F08301
:102A200015F1010F04D10124204601B0BDE8F08367
:102A3000022EC0F0B580D8F81402864280F0B08033
:102A400098F80002012854D0C0F0A580032801D0D6
:102A50002CD3A0E0D8F8200200EBD617D8F82C022F
:102A6000874211D04046FFF79FFD002840F08E803E
:102A700098F8010201233A46414601F04AFD002838
:102A800040F08480C8F82C72B000C00508EBD0502C
:102A90000022C1780270090601F070414270827014
:102AA000090EC170012088F804027AE0D8F82002EB
:102AB00000EB1627D8F82C0287420FD04046FFF7CC
:102AC00073FD002862D198F8010201233A4641467D
:102AD00001F01FFD002859D1C8F82C727000C00504
:102AE00008EBD050002101704170012088F80402E9
:102AF00057E006EB5607D8F8200200EB5724D8F829
:102B00002C0284420ED04046FFF74EFD00283DD1F6
:102B100098F8010201232246414601F0FAFCA8BBC5
:102B2000C8F82C420024F80508EBD05016F0010636
:102B30001ABF017801F00F0100210170012088F80F
:102B400004027F1CD8F8200200EB5729D8F82C0289
:102B500081450DD04046FFF727FDB8B998F801022E
:102B600001234A46414601F0D4FC78B9C8F82C92BA
:102B7000F80508EBD050002E12BF0021017801F0BB
:102B8000F0010170012088F804020AE0012001240C
:102B900088F8040205E00120022488F8040200E01D
:102BA00002249CB9D8F8100210F1010F08D0401C83
:102BB000C8F8100298F8050240F0010088F80502F4
:102BC0002E46D8F814028642FFF41CAF204601B00E
:102BD000BDE8F083000000002DE9F04780460D00BD
:102BE00008D1D8F80C721FB1D8F8140287420CD360
:102BF00001270AE0FFF78FFD022832BF0120D8F835
:102C000014128842C0F0FA802F463E46D8F81402CB
:102C1000761C864203D30226022FC0F0E68031469E
:102C20004046FFF778FD002840F0D780022EC0F024
:102C3000B980D8F81402864280F0B48098F8000277
:102C4000012857D0C0F0A980032801D02ED3A4E0DA
:102C5000D8F8200200EBD617D8F82C02874211D002
:102C60004046FFF7A1FC002840F0928098F801024E
:102C700001233A46414601F04CFC002840F0888090
:102C8000C8F82C72B000C00508EBD0506FF070424D
:102C9000C17842EA0161FF22027042708270090E1F
:102CA000C1700120002788F804027CE0D8F82002D7
:102CB00000EB1627D8F82C0287420FD04046FFF7CA
:102CC00073FC002864D198F8010201233A4641467A
:102CD00001F01FFC00285BD1C8F82C727000C00501
:102CE00008EBD050FF22027042700120002788F8C4
:102CF000040258E006EB5604D8F8200200EB5427F3
:102D0000D8F82C0287420ED04046FFF74DFC002831
:102D10003ED198F8010201233A46414601F0F9FB01
:102D2000B0BBC8F82C720027E00508EBD05016F0B5
:102D300001091ABF017841F0F001FF210170012063
:102D400088F80402641CD8F8200200EB542AD8F852
:102D50002C0282450DD04046FFF726FCC0B998F8FA
:102D6000010201235246414601F0D3FB80B9C8F865
:102D70002CA2E00508EBD050B9F1000F12BFFF21E3
:102D8000017841F00F010170012088F804020AE087
:102D90000120012788F8040205E00120022788F8B5
:102DA000040200E0022737B935B1324629464046D1
:102DB000FFF757FD0746DFB9C8F80C62D8F81002D4
:102DC00010F1010F19D0401EC8F8100298F8050242
:102DD00040F0010088F805020FE010F1010F18BF64
:102DE00001280BD0BE427FF411AF0020BDE8F08770
:102DF000012F0CBF4FF0FF3601263046BDE8F087AB
:102E000070B504460D46A4F80652D4F8080201280D
:102E100032D0D4F80012D1F8142290422CD228B922
:102E200091F80002032802D1D1F8240248B9002009
:102E3000C4F80C02B1F8080285421DD2D1F8240270
:102E40002BE091F802120E0100E0AD1BD4F8002235
:102E5000ADB2B54212D301461046FFF75CFC10F14B
:102E6000010F01D1012070BD022805D3D4F8001252
:102E7000D1F814128842E8D3022070BDC4F80C02C5
:102E8000801ED2F81412891E88422FBF002092F8AB
:102E90000212D2F8282201FB002000EB1510C4F822
:102EA000100205F00F00D4F8001201EB4010C4F836
:102EB0001402002070BD00002DE9F04781460F4646
:102EC000B9F80602451CADB2002D1CBFD9F810029E
:102ED00000282BD015F00F0F40F0DD80401CC9F802
:102EE0001002D9F80C12D9F8000239B9B0F808026A
:102EF0008542C0F2D0800420BDE8F08790F802221D
:102F0000521E12EA151F40F0C680FFF704FC064669
:102F1000022E19D316F1010F00F0A280D9F8000299
:102F2000D0F814128E42C0F0A38017B90420BDE877
:102F3000F087D9F80C12FFF74FFE060008BF0720F4
:102F400000F0B480012E02D10220BDE8F08716F116
:102F5000010F00F08580D9F8007297F8040228B3B9
:102F6000D7F82C8297F8010201234246394601F036
:102F7000DEFA002874D187F80402D7F82002D7F8C7
:102F80001812A8EB0000884210D297F8030202281A
:102F90000CD3441ED7F81802804497F8010201238D
:102FA0004246394601F0C3FA641EF3D1D9F8000253
:102FB0004FF4007101F0D6FAD9F80002D0F81432BB
:102FC000B21E9B1E9A422FBF002190F80232D0F809
:102FD000281203FB0211C0F82C12002725E000BFC5
:102FE00088F80402D8F82002D8F81812201A88426B
:102FF00013D298F803020228C0F00F80A0F1010A52
:10300000D8F81802041998F8010201232246414613
:1030100001F08DFABAF1010AF2D1D9F80002D0F824
:103020002C12491CC0F82C127F1CD9F8000290F811
:103030000212FFB28F4216D2012180F80412D9F891
:10304000008298F804020028E7D0D8F82C4298F8BB
:10305000010201232246414601F069FA0028BFD04F
:103060000120BDE8F087D0F82C12C91BC0F82C1243
:10307000C9F80C62B11ED9F80002D0F81422921ED1
:1030800091422FBF002090F80222D0F8280202FBC4
:103090000100C9F81002A9F8065205F00F00D9F88E
:1030A000001201EB4010C9F814020020BDE8F087BF
:1030B000CA7E8B7E90F8000243EA0222032805D1E3
:1030C000487D097D41EA002042EA004210467047EF
:1030D00081760A04120EC276090C0175090A41753F
:1030E000704700002DE9F04104460D46042662E0D9
:1030F00096F8010201233A46314601F00AFA002807
:1031000067D1C6F82C72D4F814020178002621B3D6
:10311000C07A00F03F00E5291CBF2E290F2805D0FA
:1031200008280CBF01200020A8425AD0B4F806029B
:10313000471CBFB28FB1D4F8100270B117F00F085E
:1031400031D1401CC4F81002D4F80C12D4F800029B
:1031500029B9B0F80802874225DB04263EE090F842
:103160000222521E12EA171F1DD1FFF7D4FA0228BD
:1031700031D310F1010F2CD0D4F80012D1F8142261
:103180009042EAD2C4F80C02801ED1F81422921E9A
:1031900090422FBF002091F80222D1F8281202FBA2
:1031A0000010C4F81002A4F80672D4F8000200EB74
:1031B0004810C4F81402D4F8107277B1D4F8006241
:1031C000D6F82C0287429ED03046FFF7EDF9002852
:1031D0008ED0012602E0022600E016B10020C4F8DD
:1031E00010023046BDE8F0812DE9F04F81B08046F5
:1031F0000021FFF705FE060040F0EC80002527E0E7
:103200006D1C012D00F0E980B8F80602461CB6B22C
:10321000002E1CBFD8F81002002859D016F00F0F4E
:103220000CD1401CC8F81002D8F80C12D8F80002D3
:10323000002931D1B0F80802864249DAA8F80662BE
:1032400006F00F00D8F8001201EB4010C8F8140285
:10325000D8F80072D8F81062D7F82C02864211D044
:103260003846FFF7A1F9002840F0B08097F8010236
:1032700001233246394601F04CF9002840F0A6807F
:10328000C7F82C62D8F8140200780026E52818BF89
:103290000028B5D00025B7E790F80222521E12EAA6
:1032A000161FCBD1FFF737FA0746022FC0F09080E8
:1032B00017F1010F00F08A80D8F80002D0F814123C
:1032C0008F426FD3D8F80C12FFF786FC070001D1AC
:1032D000072682E0012F7BD017F1010F76D0D8F8B6
:1032E0000002FFF761F9002870D1D8F800024FF40E
:1032F000007101F037F9D8F80002D0F81432BA1E84
:103300009B1E9A422FBF002190F80232D0F828125B
:1033100003FB0211C0F82C12002437E0012180F8D1
:103320000412D8F8009299F8040238B3D9F82CA204
:1033300099F8010201235246494601F0F8F80028A5
:1033400044D189F80402D9F82002D9F81812AAEB5E
:103350000000884212D299F8030202280ED3A0F18D
:10336000010B0123D9F81802824499F80102524650
:10337000494601F0DCF8BBF1010BF2D1D8F80002AC
:10338000D0F82C12491CC0F82C12641CD8F800028A
:1033900090F80212E4B28C42C0D3D0F82C12091B70
:1033A000C0F82C12C8F80C72B91ED8F80002D0F878
:1033B0001422921E91422FBF002090F80222D0F8D2
:1033C000280202FB0100C8F8100237E7012604E0DA
:1033D000022602E0042E3FF47BAF96BBD8F80072C1
:1033E000D8F81052D7F82C0285420DD03846FFF796
:1033F000DBF850BB97F8010201232A46394601F059
:1034000088F810BBC7F82C52D8F81402202101F01C
:10341000A9F8D8F81812D8F8140211F8012B00F8FE
:10342000012B052211F8013B00F8013B521E11F857
:10343000013B00F8013BF5D1D8F80012012081F8DA
:103440000402304601B0BDE8F08F0126304601B0DD
:10345000BDE8F08F2DE9F0478846D8F8005000E02D
:103460006D1C29782F2918BF5C29F9D0D0F8189243
:1034700020220B21484601F089F800200022034653
:1034800008210FF2041A0FF2101C05E008295CD184
:10349000920608200B21120E13F805E05B1CBEF10A
:1034A000210F05DBBEF12F0F18BFBEF15C0F0AD153
:1034B0005B19C8F80030BEF1210FB4BF4FF0040E05
:1034C0004FF0000E40E0BEF12E0FDFD088423CD21C
:1034D000BEF1800F04DBE64442F003021EF880ECEC
:1034E000564600E0761C377897B177451CBF16F832
:1034F000017F002F0CD077451CBF16F8017F002FED
:1035000006D077451EBF16F8017F002F7745E9D119
:103510003478D4B9AEF141041A2C06D200F809E08F
:1035200042F00202D2B2401CB6E7AEF161041A2C9E
:1035300006D242F00102AEF12004D2B25FFA84FE5C
:1035400000F809E0401CA7E710B90620BDE8F087A5
:1035500099F80000E52804BF052089F80000082933
:1035600008BF920002F00300012808BF4EF0100EC1
:1035700002F00C00042808BF4EF0080E89F80BE09A
:103580000020BDE8F0870000222A2B2C3A3B3C3D6E
:103590003E3F5B5D7C7F00008081828384858687DF
:1035A00088898A8B8C8D8E8F909192939495969723
:1035B0009899AD9B8C9DAE9FA021A2A3A4A5A6A780
:1035C000A8A9AAABACADAEAFB0B1B2B3B4B5B6B703
:1035D000B8B9BABBBCBDBEBFC0C1C2C3C4C5C6C7F3
:1035E000C8C9CACBCCCDCECFD0D1D2D3D4D5D6D7E3
:1035F000D8D9DADBDCDDDEDFC0C1C2C3C4C5C6C7D3
:10360000C8C9CACBCCCDCECFD0D1D2D3D4D5D6F7A2
:10361000D8D9DADBDCDDDE9F30B4D0F8103201F22D
:1036200009024BB3D0F8140200231C5C5B1C202C55
:1036300009D0052C08BFE524092B04BF2E2502F86C
:10364000015B02F8014B0B2BEFD3C37A0B72847F23
:10365000C37F240444EA0363447F43EA0423047FD2
:1036600023430B60047E437E44EA03238B80C37DA7
:10367000807D40EA0320C8800020107030BC704775
:103680004FF0FF320368114683B1197830390929A8
:103690000BD293F801C0BCF13A0F06D19B1C03601A
:1036A000012903DB11460846704700210846704790
:1036B00072B581B0044608782F2812BF5C28481CD8
:1036C00001900020C4F808020198007820281AD23E
:1036D00000212046FFF794FB0021C4F8141202B029
:1036E00070BDC87E8A7E42EA0020D4F8002292F89B
:1036F0000022032A05D14A7D097D41EA022140EAE0
:103700000140C4F8080201A92046FFF7A3FE0028E3
:1037100040F0E680A4F806020025D4F8080201284B
:1037200047D0D4F80012D1F81422904241D228B9DF
:1037300091F80002032802D1D1F8240248B9C4F854
:103740000C52B1F80802A0B3D1F82402C4F8100258
:1037500036E091F802120E0108E0022829D3D4F8CD
:103760000012D1F81412884223D2AD1BADB2B5427B
:1037700009D30146D4F80002FEF7CDFF10F1010F86
:10378000EBD1012076E0C4F80C02801ED4F80012C0
:10379000D1F81422921E90422FBF002091F80222ED
:1037A000D1F8281202FB001000EB1510C4F810022B
:1037B00006E002205EE000BFC4F81002A4F8065242
:1037C000D4F8001205F00F0001EB4010C4F8140209
:1037D000D4F80062D4F81052D6F82C0285420FD0EB
:1037E0003046FEF7E1FE0028CBD196F80102012316
:1037F0002A46314600F08DFE0028C2D1C6F82C5270
:10380000D4F814120A7800209AB3CA7A120719D48D
:10381000D4F8182211F8015B12F8016B0A23AD1BD2
:103820000FD11E46731E66B111F8015B12F8016BD1
:10383000AD1B06D111F8015B12F8016B5B1EAD1BCD
:10384000EFD0BDB1B4F80602451CADB28DB1D4F8CD
:10385000100270B115F00F0FB0D1401CC4F8100267
:10386000D4F80C12D4F8000269B9B0F80802854205
:10387000A4DB0420D4F81812C97A40B304282FD14D
:1038800049072DD42BE090F80222521E12EA151F90
:1038900094D1FEF740FF02288BD310F1010F3FF4C3
:1038A00070AFD4F80012D1F814229042E1D2C4F8DB
:1038B0000C02801ED1F81422921E90422FBF0020CD
:1038C00091F80222D1F8281202FB001074E7490790
:1038D00006D4D4F81412C87AC0063FF502AF05200A
:1038E00002B070BD30B5044681B0002084F80402F7
:1038F0000D464FF0FF30C4F82C0215F1010F0DD02A
:103900002046FEF751FEB0B994F8010201232A4681
:10391000214600F0FEFD70B9C4F82C5294F8FF0166
:1039200094F8FE1141EA00204AF65521884205D05C
:10393000022001B030BD032001B030BD94F8372023
:1039400094F83810DFF8B406120242EA014194F804
:103950003620114381420BD094F8532094F8541030
:10396000120242EA014194F852201143814202D1ED
:10397000002001B030BD012001B030BD2DE9F04381
:10398000804685B00020C8F8000014460846FFF7BE
:1039900077FE070048BF0B2000F1D781DFF86056A3
:1039A00005EB8700D0F894601EB90C2005B0BDE887
:1039B000F083C8F8006096F8000258B196F801024A
:1039C00000F0A1FDC10705D4002C00F0BD81400727
:1039D00011D4B9E1002086F8000286F8017296F849
:1039E000010200F083FDC10748BF032000F1AD8153
:1039F0002CB1400703D50A2005B0BDE8F0830027AD
:103A000000213046FFF76EFF0446012C5AD106F222
:103A1000BE1100A80A795AB18B7ACA7A1B0443EA0C
:103A200002624B7A097A42EA03221143009100E0D4
:103A3000009706F2CE110A795AB18B7ACA7A1B0422
:103A400043EA02624B7A097A42EA03221143416057
:103A500000E0476006F2DE110A795AB18B7ACA7A21
:103A60001B0443EA02624B7A097A42EA03221143B9
:103A7000816000E0876006F2EE110A795AB18B7A14
:103A8000CA7A1B0443EA02624B7A097A42EA0322A9
:103A90001143C16000E0C7604FEA07080DF100095B
:103AA000D9F8007027B139463046FFF71BFF00E018
:103AB0000220040006D008F1010809F10409B8F158
:103AC000040FEDD3032C08BF012000F03E81002C31
:103AD00001BF307BF17A41EA0020B0F5007F40F071
:103AE0009780F07DB17D51EA00200DD196F8261027
:103AF00096F82700090441EA006096F8251040EA8C
:103B0000012096F824100843C6F81802317C86F884
:103B10000312012918BF02297AD14843717B86F824
:103B20000212002974D04A1E114271D1B27C737CFA
:103B300043EA02220F23A6F808221A4268D1337DF5
:103B4000F47C54EA03240DD196F8224096F82330F1
:103B5000240444EA036396F8214043EA042396F8D8
:103B600020401C43F37B96F80EC05CEA03234FD041
:103B700000EB030C0CEB121C644549D3A4EB0C04C2
:103B8000B4FBF1F1002943D0012440F6F67E7145E3
:103B900028BF02244FF6F67E714528BF0324891CF6
:103BA000C6F81412C6F81C72D919C6F82012032CD4
:103BB0000CEB0701C6F8281212D14ABB96F82E105A
:103BC00096F82F00090441EA006096F82D1040EAAB
:103BD000012096F82C100843D6F8141289000EE044
:103BE000B2B1D6F820124018D6F81412022C0FBF2A
:103BF000490001EB410201F0010101EB5201C6F85D
:103C0000240201F2FF11D6F81802B0EB512F03D2B3
:103C10000D2005B0BDE8F0834FF0FF30C6F810026C
:103C2000C6F80C02802086F80502032C01BF96F826
:103C3000310096F8301041EA002001285FD1D6F813
:103C40002C027F1C87420FD03046FEF7ADFC0028C7
:103C500055D196F8010201233A46314600F059FC4D
:103C600000284CD1C6F82C72002086F8050296F880
:103C7000FE1196F8FF0141EA00204AF655218842DC
:103C80003DD1B178F078090441EA0060717840EAEA
:103C9000012031780843DB49884230D196F8E6119B
:103CA00096F8E701090441EA006096F8E51140EA58
:103CB000012096F8E4110843D34988421FD196F8B1
:103CC000EA1196F8EB01090441EA006096F8E9115F
:103CD00040EA012096F8E8110843C6F8100296F869
:103CE000EE1196F8EF01090441EA006096F8ED1133
:103CF00040EA012096F8EC110843C6F80C0286F859
:103D00000042B5F89000401CA5F89000A6F8060205
:103D100000202968B14204BF00212960E968401CE5
:103D2000B14204BF0021E960A969401CB14204BF4F
:103D30000021A961696A401CB14204BF0021696287
:103D4000401C30350C28E4D3002005B0BDE8F083DA
:103D500000B581B000281CBFD0F80012002908D09F
:103D600091F800222AB1B1F80622B0F8040282428A
:103D700002D0092001B000BD91F8010200F0C3FBA0
:103D8000C0074CBF0320002001B000BD33B581B097
:103D900061B10878A0F1300109290AD2029840786F
:103DA0003A2806D1012901DA002903D50B2003B0F6
:103DB00030BD0021924800EB8101D1F89430F3B17D
:103DC000002405689D4204BF00250560C568641C89
:103DD0009D4204BF0025C5608569641C9D4204BFE7
:103DE00000258561456A641C9D4204BF002545622B
:103DF000641C30300C2CE4D3002083F800020198BE
:103E000020B9C1F8940003B0002030BD019B002010
:103E100083F800020198C1F89400019808B1012AC2
:103E200002D0002003B030BD002202A901A8FFF794
:103E3000A5FD03B030BD00002DE9F243ADF50C7DCA
:103E40005FEA000908BF092000F0D4800020C9F80B
:103E5000000202F01F0505F0FE028CA983A8FFF7FF
:103E60008DFD070040F0C58000A8899003A88C99BB
:103E7000FFF71EFC889E07000CD10EB9062709E04B
:103E800005F0FE00411E8941C943C90F03A8FEF792
:103E90008DFA07461C20054279D0002F6FD0042FE1
:103EA0001CD10020DFF8581151F80C2B72B151F8D9
:103EB0000C2B401C52B151F80C2B401C32B151F864
:103EC0000C2B401C12B1401C0C28EDD30C2808BF51
:103ED000122703D003A8FFF787F90746889E45F00D
:103EE00008058FBB280735D500F03AFB01460004D2
:103EF000B173000EF073080C3074080E7074314604
:103F00000020F07230777077B077F0778398FFF702
:103F1000CFF804460020B076F07630757075012039
:103F2000839981F804028CB121468398D0F82C82C1
:103F3000FEF75CFD070007D18398611EC0F80C12E4
:103F40004146FEF75FFB0746002F52D1280748BFC6
:103F500045F020058398D0F82C02C9F81C02C9F856
:103F6000206205F0FE00411E8941C943C90F03A824
:103F7000FEF788FAC9F82802B0B9022739E0F07ACA
:103F8000112108420ED16807ACD5082731E0002F77
:103F9000DAD1F07AC10648BF04272AD4A907D5D5BB
:103FA000C007D3D5072724E089F80652002089F8F6
:103FB00007023146839D2846FFF77AF8C9F81002B8
:103FC000B17FF07F090441EA0060717F40EA01207F
:103FD000317F0843C9F80C020020C9F80802C9F86B
:103FE0001802C9F82402C9F80052B5F80602A9F867
:103FF000040238460DF50D7DBDE8F08346415400BE
:104000005C0C002052526141727241612DE9F0470F
:1040100082461E4600203060174688465046FFF70D
:1040200097FE002804BF9AF80702002840F0048198
:104030009AF80602C00758BF072040F1FD80DAF861
:104040000C02DAF80812401AB84237D8074635E0B1
:10405000CAF81892DAF80802C205D20DC2F500704B
:10406000874298BF384641465244E8B110F00303F6
:1040700005D05B1E12F8014B01F8014BF9D1830802
:1040800000F0128012F8014B01F8014B5B1E12F890
:10409000014B01F8014B12F8014B01F8014B12F8EA
:1040A000014B01F8014BEDD1DAF808124118CAF8BA
:1040B000081280443168411831603F1A002F00F027
:1040C000BA80DAF80812C805C4D1DAF8000290F80C
:1040D00002224B0A551E05EA0304E4B2002C39D132
:1040E00011B9DAF810022EE0DAF8241239B3081DFB
:1040F000B3FBF2F101E0891A001D50F8042B0AB954
:10410000002020E0914217D3001D891A50F8042B9B
:10411000002AF5D091420FD3001D891A50F8042BC4
:10412000002AEDD0914207D3001D891A50F8042BC4
:10413000002AE5D09142DED20068401803E0DAF8A8
:104140001412FEF7E8FA022815D310F1010F6DD012
:10415000CAF81402DAF80002DAF81422D0F814329D
:10416000921E9B1E9A4206D290F80232D0F8281274
:1041700003FB021121B902208AF80702BDE8F0878B
:1041800004EB01097D0A2FD029198B4238BF1D1B72
:1041900090F80102EBB24A46414600F0BAF9002815
:1041A00044D19AF8060240061CD5DAF81802A0EBB2
:1041B0000900A84216D208EB402051465FF0800269
:1041C00011F8013B00F8013B521E11F8013B00F8C9
:1041D000013B11F8013B00F8013B11F8013B00F8ED
:1041E000013BEDD168025FE7DAF818224A453FF457
:1041F0002FAF9AF8061249060CD590F80102012358
:10420000514600F094F988B99AF8060200F0BF0010
:104210008AF806020123DAF8000290F801024A4601
:10422000514600F076F900283FF412AF01208AF8D9
:104230000702BDE8F0870020BDE8F08730B581B007
:104240000446FFF785FD00285AD194F806128A0625
:1042500056D5480613D5D4F80002D4F8182290F8A1
:1042600001020123214600F062F910B1012001B0E2
:1042700030BD94F8060200F0BF0084F80602D4F8BE
:104280001C12D4F80002FEF7BDF9C8BBD4F82052C6
:10429000E87A40F02000E872D4F80C022877D4F8CD
:1042A0000C020004000E6877D4F80C02000CA8770A
:1042B000D4F80C02000EE8772846D4F81012FEF766
:1042C00007FF00F04DF9A8750104090EE975010C0E
:1042D0002976000E68760020A874E87494F8060227
:1042E00000F0DF0084F806020120D4F8001281F803
:1042F0000402D4F8000201B0BDE83040FEF79EB9D8
:1043000001B030BD10B50446FFF798FF58B92046FC
:10431000FFF71EFD38B9D4F82802FEF728F910B9C6
:104320000021C4F8001210BDF2B584B0040008BF2B
:10433000092000F0AB80002204A900A8FFF71EFBB3
:10434000002840F09F800098C4F8000201A8C4F83B
:10435000180220460499FFF7ABF9002840F08E8040
:10436000D4F8141241B1C87AC00640F1898000988F
:10437000FEF79EFEC4F808020098B0F80602A4F802
:10438000040200212046FEF73BFD002876D1D4F838
:10439000082222B90021C4F81C1205B0F0BDDFF8D4
:1043A0004831B4F80672D4F8005200214FEA0306EF
:1043B000D6F800C0AC4501BFD6F804C09445B6F8A5
:1043C00008C0BC4527D0D6F80CC0491CAC4501BF7D
:1043D000D6F810C09445B6F814C0BC451BD0D6F82A
:1043E00018C0491CAC4501BFD6F81CC09445B6F8AE
:1043F00020C0BC450FD0D6F824C0491CAC4501BF35
:10440000D6F828C09445B6F82CC0BC4503D0491C4A
:1044100030360C29CCD30C2921D100214FEA0306D8
:1044200056F80C7B77B156F80C7B491C57B156F8FF
:104430000C7B491C37B156F80C7B491C17B1491C41
:104440000C29EDD30C2917D001EB4106B600F5502D
:10445000F5186A60B4F806222A8100226A8101EB0D
:10446000410203EB8202491C53895B1C5381C4F84F
:104470001C1259B9122006E00021F8E7042801D1E6
:10448000052000E010B10021C4F8001205B0F0BD15
:1044900030B583B004460D46FFF75AFC08BB2DB972
:1044A00000212046FEF7ACFC03B030BD00A8C4F8E4
:1044B000180200212046FEF715FE042803D1002033
:1044C000C4F8100200E060B929462046FFF7A4F8BE
:1044D00000212046FEF7F0FC042804BF0020C4F8A9
:1044E000100203B030BD00005C0C002001461B4AE6
:1044F0008B5C002033B90120885402EB81004068B6
:10450000006800477047154901EB8000406840682B
:10451000004710B40446084611461A460F4B03EBF9
:10452000840381B05B689B6801B010BC184710B46D
:104530000446084611461A46084B03EB840381B033
:104540005B68DB6801B010BC18470346084611469B
:10455000024A02EB8302526812691047700D002074
:1045600000207047002200F015B850F8041B61B11C
:1045700050F8042BD30744BFA9F101039A18002374
:1045800042F8043B091FFAD1EFE7704762F30F22AC
:1045900062F31F42401810F0030308D0C91A1FD35A
:1045A000DB0748BF00F8012D28BF20F8022D1300BB
:1045B00030B414461546103928BF20E93C00FAD81B
:1045C000490728BF20E90C0048BF40F8042D8900A6
:1045D00028BF20F8022D48BF00F8012D30BC7047DD
:1045E000C91818BF00F8012DCB0728BF00F8012D0E
:1045F00070470268531C03601170704700F5E0704B
:104600000268914203D343689A18914202D38068AA
:104610000028F5D17047DFF82407016891B9DFF869
:1046200020274FF4803181604FF4805141604FF07A
:10463000FF31C160016104214161C2F8BC11DFF8A2
:10464000041701600120704701F1080313F007030C
:1046500005D001F10803C3F1080303F0070359185B
:10466000D21A8161C26042F001034B6051182823C5
:104670004B60DFF8C8160969C16170472DE9F84F32
:10468000044601F1080010F0070005D001F1080010
:10469000C0F1080000F0070000EB010B02F1080078
:1046A00010F0070005D002F10800C0F1080000F08A
:1046B00007008618A6EB0B00A0EB030803EB0B0723
:1046C00043F00300CBF80400B74228BF01F0F6F92D
:1046D0003079C00758BF01F0F1F9B8F1100F38BFB9
:1046E00001F0ECF9A069864207D1E0684044E0603F
:1046F000A76140F0010078605AE16069864208D104
:10470000A0684044A060676140F001017960C05139
:104710004EE1706800F00301012940F0AD80C0084F
:104720004FEAC00920283BD2D6F808A0F5680090CF
:10473000AE4208BF01F0C2F9564508BF01F0BEF90C
:1047400070680099C008C000B0EBC10F18BF01F03D
:10475000B5F9009804EBC00000F128018A4508D0A3
:1047600021698A45C0F08480DAF80C10B14240F02B
:104770007F80554506D1009A2068012191408843E9
:10478000206077E02830854205D0206985426FD3CC
:10479000A868B0426CD1CAF80C50C5F808A069E00E
:1047A000F568D6F818A0B5420CD0B06821698842E7
:1047B00023D3C168B14204BFA968B1421DD1C5600D
:1047C000A8601CE006F11400056835B906F1100078
:1047D0000568A5B101E00846056805F114010A68FD
:1047E000002A02BF05F110010A68002AF3D12169ED
:1047F000884202D30021016001E001F05FF9BAF1C3
:10480000000F37D0F06904EB800000F59870016864
:104810008E4209D10560280014D1F2696068012137
:1048200091408843606025E02069824508D3DAF82A
:104830001000B04214BFCAF81450CAF8105001E07A
:1048400001F03CF9B5B12069854211D3C5F818A033
:10485000316929B1814226BF29618D6101F02EF9AC
:10486000706938B12169884202D36861856101E0CD
:1048700001F024F94E44C84470684008400070605C
:104880004FEAD80548F00100786048F80780202DED
:1048900021D204EBC50000F12806B146B8F1100F93
:1048A00038BF01F00BF9206820FA05F1C90704D4DC
:1048B0000121A9400843206006E0B06821698842D0
:1048C0002CBF814601F0FAF8B760C9F80C70C7F840
:1048D0000890FE606CE05FEA182008BF002123D03A
:1048E000B0F5803F28BF1F211ED2A0F58071090CB2
:1048F00001F008018840A0F58052120C02F0040279
:104900009040A0F580431B0CC1F10E0103F002039F
:10491000891AC91A984001EBD030C11D28FA01F15B
:1049200001F0010101EB4001F96100227A613A6175
:1049300004EB8100626822FA01F300F59870DB074E
:1049400006D4012303FA01F11143616007601CE002
:104950001F2900680EBF00214908C1F1190108FA9A
:1049600001F100E010464268D208D200424510D062
:10497000CA0F00EB820202F1100349001A68002AF4
:10498000F0D121698B4211D31F60B861FF60BF6015
:104990000EE022698168904228BF914206D3CF6021
:1049A0008760B960F8600020B86101E001F086F826
:1049B0000BF10800BDE8F28F2DE9F04F0546DFF856
:1049C0007C03006883B0884608B9FFF724FEDFF84F
:1049D0006C03806800EB08012F31401E21EA0000C3
:1049E000804580F0A881D5F8B81141B1D5F8B02143
:1049F0008018824280F09F818142C0F09C8101F04A
:104A000061F800281EBF0446076814F1010F00F08A
:104A10009281D5F8B0013818C5F8B001D5F8B411B5
:104A2000814238BF0146C5F8B411A86988BB28691E
:104A300008B1844200D22C61C5F8C041C5F8C471E8
:104A40000020C5F8CC0105F12801BC480068686267
:104A50004FF0FF3028620020C960896001F1080230
:104A6000801CD260103192602028F5D3B448854272
:104A700003D1A7F12802214625E055F8040CC0080F
:104A800005EBC000A0F108013819401AA0F1280276
:104A900019E005F5E071084600E08068B8B14268A9
:104AA0000368D2189442F8D1027B12070FD4AA6986
:104AB0009A420CD3466833449A4208D2B9194160ED
:104AC000E868A9693A182846FFF7BEFD1EE1286983
:104AD000844238BF2C610846391900E0806880B1F3
:104AE00002688A42FAD1017B09070AD4046043466E
:104AF0004168791841602846214603B0BDE8F04F6F
:104B0000BCE5AE6931462846FFF778FD416800688C
:104B1000081801902F3800F1080111F0070105D0A5
:104B200000F10801C1F1080101F00701081806F1C0
:104B30001001884234BF00960090009800F10809E7
:104B400000F1180A04F108014FF0000BA7F128004A
:104B500011F0070105D004F10801C1F1080101F0CD
:104B600007010A19401AAA61E86040F0010151608A
:104B700080182821416071480069E86119F0070038
:104B800018BF00F09BFF00991B20486005F5E070FE
:104B9000B0E80E10A9E80E10C5F8C041C5F8C47100
:104BA000A9F11001C5F8CCB1C5F8C811019800E011
:104BB0008A460722CAF804200AF104010A1D0BF1F3
:104BC000010B8242F4D3BBF1020FB8BF00F076FFB5
:104BD0000098B04200F09A80801B81194FEAD009FA
:104BE0004A68520852004A6040F0010171608051E9
:104BF000B9F1200F1FD205EBC90101F128042746A6
:104C0000102838BF00F05AFF286820FA09F1C907B8
:104C100005D4012101FA09F10843286006E0A068E3
:104C2000296988422CBF074600F048FFA660FE6055
:104C3000B760F4606AE0010A08BF002223D0B1F532
:104C4000803F28BF1F221ED2A1F58072120C02F0F5
:104C500008029140A1F580531B0C03F00403994016
:104C6000A1F58044240CC2F10E0204F00204D21A11
:104C7000121BA14002EBD131CA1D20FA02F202F050
:104C8000010202EB4102F26100237361336105EB23
:104C900082016B6823FA02F401F59871E40705D4E8
:104CA00001209040184368600E601CE01F2A0968CC
:104CB0000EBF00225208C2F1190200FA02F200E00F
:104CC00019464B68DB08DB00834210D0D30F01EBA1
:104CD000830303F1100452002368002BF0D12869EC
:104CE000844211D32660B161F660B6600EE02A6995
:104CF0008868914228BF904206D3C6608E60B0603B
:104D0000F1600020B06101E000F0D8FEE868804565
:104D100011D2A0EB0800E86040F00100A96908EB9F
:104D20000102AA61506048F00300486003B001F13D
:104D30000800BDE8F08F002000F030BC580D0020C6
:104D4000840A00206859883C2DE9F84F04468846BB
:104D50000026C8F1000B5FEA182008BF002123D00D
:104D6000B0F5803F28BF1F211ED2A0F58071090C2D
:104D700001F008018840A0F58052120C02F00402F4
:104D80009040A0F580431B0CC1F10E0103F002031B
:104D9000891AC91A984001EBD030C11D28FA01F1D7
:104DA00001F0010101EB400104EB8100D0F830017A
:104DB00030B31F290EBF00224A08C2F1190208FAB7
:104DC00002F2002300E052004568ED08ED00A5EB7B
:104DD00008055D4503D206465FEA050B0CD0456920
:104DE0004FEAD27E00EB8E00002D00691CBF854289
:104DF0002B460028E7D1184600283AD1002E3AD198
:104E0000012088404000414208436168084000F0AA
:104E10005F8141420840411E080B00F0100021FA5A
:104E200000F2510901F00801CA40930803F004039D
:104E3000DA40550805F002050818EA401818C2F3D0
:104E4000400E2844704422FA0EF1081804EB80004A
:104E5000D0F830010DE008464168C908C900A1EB4F
:104E6000080159453CBF8B46064601690029F2D12D
:104E700040690028F0D1002E00F02A81A068A0EB44
:104E80000800834580F0248120698642C0F01E819D
:104E90007068C00808EB0B09C00008EB0605484520
:104EA00018BF00F00BFEAE4280F01081F768D6F814
:104EB00018A0B7420CD0B0682169884223D3C168DA
:104EC000B14204BFB968B1421DD1C760B8601CE0EF
:104ED00006F11400076837B906F110000768A7B19A
:104EE00001E00846076807F114010A68002A02BFBA
:104EF00007F110010A68002AF3D12169884202D320
:104F00000021016001E000F0D9FDBAF1000F38D0B6
:104F1000F06904EB800000F5987001688E4209D1B9
:104F20000760380014D1F26960680121914088431C
:104F3000606026E02069824508D3DAF81000B042AC
:104F400014BFCAF81470CAF8107001E000F0B6FD82
:104F5000BFB12069874212D3C7F818A0306930B1B9
:104F60002169884226BF3861876100F0A7FD70691A
:104F700038B12169884202D37861876101E000F08D
:104F80009DFDBBF1100F09D249F00300706009EBE1
:104F90000600416841F00101416096E048F00300DD
:104FA00070604BF0010068604BF805B04FEADB0021
:104FB00020281DD204EBC00101F12807216821FA45
:104FC00000F2BB46D20705D4012202FA00F00843E2
:104FD000206006E0B868216988422CBF834600F053
:104FE0006DFDBD60CBF80C50C5F808B0EF606CE00B
:104FF0005FEA1B2008BF002123D0B0F5803F28BF07
:105000001F211ED2A0F58071090C01F00801884013
:10501000A0F58052120C02F004029040A0F58043EB
:105020001B0CC1F10E0103F00203891AC91A984042
:1050300001EBD030C11D2BFA01F101F0010101EBB0
:105040004001E96100226A612A6104EB8100626823
:1050500022FA01F300F59870DB0706D4012303FA66
:1050600001F11143616005601CE01F2900680EBF5B
:1050700000214908C1F119010BFA01F100E01046C5
:105080004268D208D2005A4510D0CA0F00EB820203
:1050900002F1100349001A68002AF0D121698B42FD
:1050A00011D31D60A861ED60AD600EE022698168DA
:1050B000904228BF914206D3CD608560A960E86028
:1050C0000020A86101E000F0F9FC07E100F0F6FC27
:1050D00001E12DE9F84F04468846606841420840E6
:1050E000411E080B00F01000C1404A0902F00802FE
:1050F000D1408B0803F00403D9404D0805F00205A8
:105100001018E9401818C1F3400628443018F1403F
:10511000081804EB8000D0F830014168C908C900C4
:105120000646A1EB080A09E008464168C908C9001B
:10513000A1EB080151453CBF8A460646016900299A
:10514000F2D140690028F0D120698642C0F0C180C8
:105150007068C00808EB0A09C00008EB060B484558
:1051600018BF00F0ABFC5E4580F0B380F768B5690E
:10517000B7420CD0B0682169884223D3C168B142DC
:1051800004BFB968B1421DD1C760B8601CE006F128
:105190001400076837B906F110000768A7B101E0ED
:1051A0000846076807F114010A68002A02BF07F1E0
:1051B00010010A68002AF3D12169884202D3002134
:1051C000016001E000F07AFC002D34D0F06904EBBE
:1051D000800000F5987001688E4209D107603800A0
:1051E00011D1F2696068012191408843606022E03A
:1051F0002069854205D32869B04214BF6F612F61D1
:1052000001E000F05BFCB7B12069874211D3BD61BA
:10521000306930B12169884226BF3861876100F06A
:105220004DFC706938B12169884202D37861876189
:1052300001E000F043FCBAF1100F09D249F003007D
:10524000706009EB0600416841F0010141603FE0F8
:1052500048F0030070604AF00100CBF804004AF8FF
:105260000BA0D4F808804FEAD805202D28BF00F005
:1052700025FCB8F1000F27D0D4F81490009504EB6A
:10528000C50000F128052F46B8F1100F38BF00F017
:1052900015FC2068009920FA01F1C90705D4009A8D
:1052A000012191400843206006E0A86821698842F6
:1052B0002CBF074600F002FCC5F80890C7F80C9018
:1052C000C9F80870C9F80C50C4F808A0C4F814B0A4
:1052D00004E000F0F3FB0020BDE8F28F06F10800C7
:1052E000BDE8F28F2DE9F04F83B00546C046C046B9
:1052F000DFF8C047F52D80F006810B2D31BF102758
:1053000005F10B00C008C7002068FE08F04010F04F
:10531000030F42D0C04300F00100861904EBC60021
:1053200000F12808F700D8F808506868C008C000E5
:10533000B84218BF00F0C2FBD5F80890454508BF39
:1053400000F0BCFB4D4508BF00F0B8FB6868C00822
:10535000C000B84218BF00F0B1FBC84505D12068B5
:105360000121B140884320600DE02069814508D3C8
:10537000D9F80C00A84204D1C8F80890C9F80C80EC
:1053800001E000F09BFB47F00300686078190835E6
:10539000416841F001014160FDE0A168B94280F03F
:1053A000C480002800F0A680012505FA06F1490016
:1053B0004A42B0401143084041420840411E080B98
:1053C00000F01000C1404A0902F00802D1408B08E9
:1053D00003F00403D9404E0806F002061018F1400D
:1053E0001818C1F340083018404421FA08F101EBC5
:1053F000000804EBC80000F128094FEAC80AD9F8F0
:1054000008607068C008C000504518BF00F056FB27
:10541000D6F808B04E4508BF00F050FB5E4508BF07
:1054200000F04CFB7068C008C000504518BF00F089
:1054300045FBD94505D1206805FA08F1884320606D
:105440000DE02069834508D3DBF80C00B04204D19D
:10545000C9F808B0CBF80C9001E000F02FFB47F042
:105460000300AAEB07087060BF1948F001007860DC
:1054700048F80780D4F808904FEAD90ABAF1200F0B
:1054800028BF00F01BFBB9F1000F2DD06069009020
:10549000CDF804A004EBCA0000F1280AD346B9F104
:1054A000100F38BF00F00AFB2068019920FA01F1C3
:1054B000C90705D4019905FA01F10843206007E006
:1054C000DAF80800216988422CBF834600F0F6FA1A
:1054D0000098CAF808000098CBF80C000098C0F8B3
:1054E00008B00098C0F80CA0C4F80880676106F105
:1054F000080550E06068C0B339462046FFF7E9FD73
:10550000050012D047E015F1400F28BF4FF0FF37DC
:105510000BD205F10B00C008C700606828B13946FE
:105520002046FFF711FC050035D1A168B9421CD314
:10553000CA1B6069102A0AD339186161A26042F05F
:1055400001034B60525047F0030141600AE0002222
:10555000A260626141F00302426009184A6842F0A9
:1055600001024A6000F1080515E0E06887420DD2AB
:10557000C01BA169E0607A18A26140F00100506090
:1055800001F1080547F00300486004E03946204671
:10559000FFF712FA0546C046C046284603B0BDE8EC
:1055A000F08F00B970472DE9F047A0F10804C0461C
:1055B000C046DFF8005528698442C0F075826168F2
:1055C00001F00302012A00F06F82CA084FEAC20804
:1055D00008EB0409CA0737D4226811F0030F00F062
:1055E000658251420C1990448442C0F05D82696921
:1055F0008C4200F0D880D608202E70D2D4F80CA0AF
:10560000A768544508BF00F059FABC4208BF00F033
:1056100055FA6068C008C000B0EBC60F18BF00F0B4
:105620004DFA05EBC60000F128018F4205D029692B
:105630008F4251D3F968A1424ED1BA453DD1286875
:105640000121B140884328604C4580F02D82D9F873
:105650000400C10740F12882810700F17A81A9691D
:10566000894540F0B580E868AC614044E86040F0AE
:105670000101616069698C4202D100216961A96000
:10568000E969814280F01282DFF82C04006808B9D1
:10569000FEF7C1FFA969002900F00882E8682928FF
:1056A00024BF2846FEF7AAFFE869E968884280F02F
:1056B000FD814FF0FF30E861F8E12830824506D0E7
:1056C0002869824508D3DAF80800A04204D1C7F857
:1056D0000CA0CAF80870B7E700F0F0F9B4E7E76883
:1056E000A669A7420BD0A168814222D3C868A04214
:1056F00004BFB868A0421CD1CF60B9601BE004F1C0
:1057000014010F6837B904F110010F689FB101E06F
:1057100011460F6807F114021368002B02BF07F14E
:1057200010021368002BF3D1814202D300200860DD
:1057300001E000F0C3F9002E86D0E06905EB80009F
:1057400000F5987001688C4209D10760380011D1CA
:10575000E2696868012191408843686074E72869BC
:10576000864205D33069A04214BF7761376101E0FA
:1057700000F0A4F9002F3FF467AF28698742ABD34C
:10578000BE61216929B1814226BF39618F6100F074
:1057900095F9606900283FF457AF296988429BD387
:1057A0007861876150E799F8040000F0030003284E
:1057B0007FF44AAFC5F80880D9F8040040084000DB
:1057C000C9F8040048F00100606048F804806DE109
:1057D0006969894508D1A8686C614044A86040F0B7
:1057E00001016160005161E1C008C0004FEAD00AC8
:1057F0008044BAF1200F36D2D9F80C70D9F808607D
:10580000B94508BF00F05AF9B14508BF00F056F994
:10581000D9F80400C008C000B0EBCA0F18BF00F0F0
:105820004DF905EBCA0000F128018E4206D0296926
:105830008E42C0F08180F16849457DD1B74206D1E2
:105840002868012101FA0AF18843286076E02830AF
:10585000874205D0286987426ED3B86848456BD126
:10586000F760BE606AE0D9F80C70D9F818604F454F
:105870000DD0D9F808002969884223D3C168494569
:1058800004BFB96849451DD1C760B8601CE009F183
:105890001400076837B909F110000768A7B101E0E3
:1058A0000846076807F114010A68002A02BF07F1D9
:1058B00010010A68002AF3D12969884202D3002125
:1058C000016001E000F0FAF8002E37D0D9F81C0092
:1058D00005EB800000F59870016889450AD10760E2
:1058E000380012D1D9F81C20686801219140884302
:1058F000686023E02869864205D33069484514BFB3
:105900007761376101E000F0D9F8BFB128698742BB
:1059100012D3BE61D9F8101029B1814226BF396176
:105920008F6100F0CBF8D9F8140038B129698842AA
:1059300002D37861876101E000F0C0F848F001000F
:10594000606048F80480686984420BD1C5F808801B
:10595000ACE040084000C9F8040048F00100606075
:1059600048F804804FEAD807202F22D205EBC70061
:1059700000F128094E46B8F1100F38BF00F09EF82C
:10598000286820FA07F1C90704D40121B940084367
:10599000286007E0D9F80800296988422CBF06462C
:1059A00000F08CF8C9F80840F460A660C4F80C90C8
:1059B0007CE05FEA182008BF002123D0B0F5803FCB
:1059C00028BF1F211ED2A0F58071090C01F008012B
:1059D0008840A0F58052120C02F004029040A0F51D
:1059E00080431B0CC1F10E0103F00203891AC91A8E
:1059F000984001EBD030C11D28FA01F101F00101FE
:105A000001EB4001E16100226261226105EB81004E
:105A10006A6822FA01F300F59870DB0706D40123C7
:105A200003FA01F11143696004601CE01F2900685A
:105A30000EBF00214908C1F1190108FA01F100E087
:105A400010464268D208D200424510D0CA0F00EB7F
:105A5000820202F1100349001A68002AF0D1296974
:105A60008B4211D31C60A061E460A4600EE02A693F
:105A70008168904228BF914206D3CC608460A160C7
:105A8000E0600020A06101E000F018F8286A401EE4
:105A900028620BD1D5F8C80100E080680028FCD14D
:105AA0004FF0FF30286201E000F008F8C046C04621
:105AB000BDE8F087840A0020580D0020012000F086
:105AC00017B800000749086808B100207047064869
:105AD000C008C00008600549C908C900091A01606A
