:020000040800F2
:10000000080F00203D3D0008693C00086B3C0008DB
:100010006D3C00086F3C0008713C000800000000C7
:10002000000000000000000000000000753C000817
:10003000733C000800000000773C0008793C000891
:10004000593D00085D3D0008613D0008653D000820
:10005000693D00086D3D0008953C0008713D0008B1
:10006000753D0008793D00087D3D0008813D000890
:10007000853D0008893D00088D3D0008913D000840
:10008000953D0008993D00089D3D0008A13D0008F0
:10009000A53D0008A93D0008AD3D0008B13D0008A0
:1000A000B53D0008B93D0008BD3D0008C13D000850
:1000B000C53D0008C93D0008CD3D0008D13D000800
:1000C000D53D0008D93D0008DD3D0008E13D0008B0
:1000D000E53D0008E93D0008ED3D0008F13D000860
:1000E000F53D0008F93D0008FD3D0008013E00080F
:1000F000053E0008093E00080D3E0008113E0008BC
:10010000000000000000000000000000153E000894
:10011000193E00081D3E0008213E0008253E00084B
:10012000293E00082D3E0008313E0008353E0008FB
:10013000393E00083D3E00080000000000000000BD
:10014000413E0008453E0008493E0008000000000E
:10015000000000000000000000000000000000009F
:1001600000000000000000004D3E00087D3C00083B
:10017000833C0008000000000000000000000000B8
:1001800000000000513E000838B5044600250CB9B7
:10019000012032BD022084F84101204600F0EAFD32
:1001A0001C2001230CE000FB054101F128025370E3
:1001B00081F828500021D170D160116151616D1C0E
:1001C00061688D42EFD3002500230BE000FB054161
:1001D00001F1B402537081F8B450D370D36013614D
:1001E00053616D1C61688D42F0D321680120A1F834
:1001F00040004FF43D402168A1F840302168A1F84B
:1002000044302168A1F850302168A1F84000002056
:1002100084F8240084F8410132BD80B5012100F04A
:1002200084FE002002BD2DE9F84F04460020ADF801
:10023000000048F68F7A40F68F7648F60F7B1FE075
:1002400001880BEA0101018004F1280500F0DBFCC4
:1002500000F053F92969401828610021204600F078
:10026000C6FD94F8240058B1686948B994F8240090
:10027000216840F08000A1F84C00002084F82400A0
:100280002068B0F84410ADF80210090440F1118163
:10029000BDF8021011F00F0864D1BDF80210C906B4
:1002A000CED50188ADF8001004F1B405BDF80010FA
:1002B000090517D52A78B0F85010D20012FA81F14A
:1002C00000EB410004F5A27100F00BF9AA88206848
:1002D00000F059FE2068018831400180204600F07E
:1002E00077FDCDE7BDF800100904C9D5018831407C
:1002F000018000F088FC00F0F4F808D0AA88296991
:10030000206800F040FEA869296940182861002192
:10031000204600F063FD2068B0F8501000EB41006B
:10032000E96800F20C403F2908D34A0911F01F0F79
:1003300008BF521E910241F4004104E04A08C90777
:1003400048BF521C910289B201604BF68F7220683F
:100350000188114081F4405141F4004141F0800195
:1003600001808DE730F82810ADF800101C2111FB3A
:100370000849BDF8001009044BD530F82810314069
:1003800020F8281009F1B4052B782068A97ADA0042
:1003900061B900F09FF8D1F80C148F05BF0D24D07F
:1003A000AA8829693B4600F0EEFD1EE030F82330B4
:1003B0005B0400F08FF806D5D1F804148F05BF0D4B
:1003C0000BD0EA8805E0D1F80C148F05BF0D04D0DE
:1003D0002A893B46296900F0D6FD00F074F842F402
:1003E000004242F0C00221F82020A9697918A961D1
:1003F00029697A182A616B6913B1E9688F4204D2BE
:100400002978204600F0EAFC03E02978204600F035
:1004100001FBBDF80000000647D5206830F8281021
:100420000BEA010109F1280520F828102A78236831
:10043000A87AD10050B900F03FF800F058F820D069
:10044000AA882969206800F08AFD1AE033F8222082
:10045000520600F031F804D500F049F809D0EA88D6
:1004600003E000F03EF804D02A892969206800F0F2
:1004700076FD00F028F842F4404242F0800221F874
:10048000202020682978B0F85020CB0013FA82F29F
:1004900000EB420000F031F82A6982182A612046F8
:1004A0006B69002B02D100F0A2FCE9E600F019FB19
:1004B000E6E60020BDE8F28FB3F8502011FA82F191
:1004C00003EB410070472168287831F820200AEAC0
:1004D00002027047B0F8503012FA83F200EB42018A
:1004E0007047D0F80C0483059B0DAB617047D0F8C2
:1004F000040483059B0DAB617047D0F804048005AC
:10050000800DA861704710B504462068B0F844001B
:10051000000444BF2046FFF786FE2068B0F8441070
:1005200049050AD54FF6FF31A0F84410204600F0E7
:100530006AFC0021204600F056F8206800F14001D6
:100540008A88520444BF4BF6FF728A808A889204DC
:1005500044BF4DF6FF728A808988C90412D5B0F86D
:1005600040104FF6FB721140A0F840104FF43D418F
:10057000A0F84010204600F054FC21684EF6FF70B1
:10058000A1F84400206800F140018A88120514D5C2
:100590004FF2FF728A80B0F8402042F00802A0F8C3
:1005A0004020B0F8402042F00402A0F840208888A3
:1005B000C0045CBF204600F033FC2068B0F8441053
:1005C000890506D54FF6FF51A0F84410204600F0EB
:1005D00016FC2068B0F84410C90544BF4FF6FF610F
:1005E000A0F8441010BD90F84021012A01D102204A
:1005F0007047012280F84021002903BF8021026852
:10060000A2F84C1080F82410002180F8401100203E
:1006100070472DE9F04701F07F041C2515FB040409
:100620000D064CBF2834B43401F07F052570C9098C
:100630006170E260E37090F84011012908BF022068
:1006400000F03081012180F8401148F68F13E178E5
:1006500029B1022908D00FD3032908D012E000F0F5
:1006600023F943F400730BE000F01EF908E000F0FA
:100670001BF943F4C06303E000F016F943F4806310
:1006800021F8223025780168A84631F8286048F61C
:100690008F731E4048F280023543154321F82850DD
:1006A0008E46A77A26784BF68F754CF2800848F66E
:1006B000BF7948F2C00C002F66D1A78894F801A03A
:1006C0007F087F00F600BAF1000F1CD0B1F850503F
:1006D00016FA85F50EEB450505F580652F60257842
:1006E00031F82560760606D531F8256033404CEAAE
:1006F000030321F82530237831F8234009EA040464
:1007000084F02004C7E0B1F8509016FA89F90EEB96
:10071000490606F581663760B1F850902678F600F4
:1007200016FA89F9E6680EEB490909F20C493F2EE1
:100730000BD34FEA561E16F01F0F08BFAEF1010E85
:100740004FEA8E2646F4004607E04FEA560EF607BB
:1007500048BF0EF1010E4FEA8E26B6B2C9F800600E
:1007600094F8009031F82960760406D531F82960B4
:10077000334048EA030321F82930237831F8234035
:100780002C4084F4405486E031F826701F4047F432
:10079000014747F0800721F82670B1F850602778AC
:1007A000FF0017FA86F6E7880EEB460606F5806628
:1007B0007F087F003760B1F850602778FF0017FA94
:1007C00086F60EEB460606F58167268976087600E2
:1007D0003E60667894F800E0002E31F82E602ED14D
:1007E000760406D531F82E601E4048EA060621F848
:1007F0002E6094F8008031F82860760606D531F82E
:1008000028601E404CEA060621F8286094F8008013
:1008100031F828E003EA0E034CEA030321F82830FC
:10082000237831F82360354085F44055154321F88D
:100830002350237831F8234009EA04042BE076049E
:1008400006D531F82E601E4048EA060621F82E60D3
:1008500094F800E031F82E60760606D531F82E6067
:100860001E404CEA060621F82E6094F800C031F8CC
:100870002CE003EA0E0348EA030321F82C30237826
:1008800031F8236009EA0606164321F8236023782D
:1008900031F823402C40224321F82320002180F806
:1008A00040110020BDE8F0870168227831F822501D
:1008B0002B4070472DE9F04301F07F021C2313FB0E
:1008C00002020B064CBF02F1280502F1B40501F04B
:1008D0007F022A70C909697090F84011012908BF88
:1008E000022000F09580012180F840114BF68F73B3
:1008F00095F80A9095F800C06F7801684CF2800E68
:1009000048F2800248F6BF7448F2C00848F68F7675
:10091000B9F1000F18D15FB131F82C305B063ED52C
:1009200031F82C30334048EA030321F82C3036E00C
:1009300031F82C40640460D531F82C4034404EEA44
:10094000040421F82C4058E0002F31F82C702ED1EF
:100950007F0406D531F82C7037404EEA070721F89E
:100960002C7095F800C031F82C707F0606D531F850
:100970002C70374048EA070721F82C7095F800C022
:1009800031F82CE006EA0E0648EA060621F82C604B
:100990002E7831F826703B40134321F826302B780F
:1009A00031F823502C40224321F823202CE07F04EF
:1009B00006D531F82C7037404EEA070721F82C7025
:1009C00095F800C031F82C707F0606D531F82C70F0
:1009D000374048EA070721F82C7095F8008031F875
:1009E00028703E404EEA060621F828602E7831F83D
:1009F00026703C40144321F826402C7831F82450CE
:100A00002B401A4321F82420002180F840110020B7
:100A1000BDE8F083F0B501F07F041C2515FB04044C
:100A2000B43401F07F01226163610022A26162702F
:100A3000217090F84011012901D10220F0BD01215F
:100A400080F84011E36861698B4232BFC91A0B46D6
:100A5000002161615908A67A03F00105002E1CBF30
:100A60006678002E1CD10668B6F850702278D20045
:100A700012FA87F706EB470606F20C463F2B09D31E
:100A8000590913F01F0F08BF491E890241F40041A4
:100A900089B203E005B1491C8906090C31600CE0FC
:100AA000012E0AD10668B6F850102278D20012FA48
:100AB00081F106EB4101C1F80C344BF68F730668E7
:100AC000217836F821201A4082F4405242F4004244
:100AD00042F0800226F82120002180F840110020F9
:100AE000F0BD70B504461E4601F07F001C2313FBC9
:100AF000004000F1280500202A616E61A8610120F4
:100B0000687001F07F00287094F84001012801D13D
:100B1000022070BD012084F84001EE6868698642B9
:100B200032BF801B064600206861A87A88B9AA886F
:100B300029692068B3B200F012FA2068B0F85010AA
:100B40002A78D20012FA81F100EB4100C0F8046467
:100B500046E06878B8B900F056F800F20C403F2E35
:100B600009D3710916F01F0F08BF491E890241F40D
:100B7000004189B205E07108F20748BF491C8906A7
:100B8000090C016005E0012803D100F03CF8C0F831
:100B90000C642068297830F8211049064CBF2A8956
:100BA000EA882969B3B200F0DAF9687848F68F71FB
:100BB00048B92268287832F82030194041F40041C1
:100BC00041F0C0010AE001280AD12268287832F8F1
:100BD0002030194041F4404141F0800122F82010BA
:100BE0002168287831F8202048F6BF731A4082F037
:100BF000300242F4004242F0800221F8202000201E
:100C000084F8400170BD2068B0F850102A78D200F6
:100C100012FA81F100EB4100704730B590F84021A5
:100C2000012A01D1022030BD012280F840211C237D
:100C30000A460C0605D502F07F0213FB0202283299
:100C400002E013FB0202B43201239370CC0901F0DD
:100C50007F031370547048F28002016853B90B8807
:100C60004BF6BF74234083F4805383F010031A4380
:100C70000A8011E0002C31F8234005D048F6BF75FA
:100C80002C4084F0100404E04BF68F752C4084F463
:100C90008054224321F82320002180F840110020B5
:100CA00030BD70B51C230A460C0605D502F07F0244
:100CB00013FB0202283202E013FB0202B4320023CB
:100CC000937001F07F031370C909517090F84011BF
:100CD000012901D1022070BD012180F8401148F2A4
:100CE0008003016856781478002E31F8246048F6A5
:100CF0008F7513D0760608D531F82460354045F459
:100D0000004545F0C00521F8245048F6BF7512781B
:100D100031F822402C4084F0300412E0760408D5EB
:100D200031F82460354045F4404545F0800521F810
:100D300024504BF68F75127831F822402C4084F401
:100D40004054234321F82230002180F84011002034
:100D500070BD50F8041B61B150F8042BD30744BF99
:100D6000A9F101039A18002342F8043B091FFAD1A4
:100D7000EFE7704710B5674C86B0206840F400304C
:100D8000206000A94FF4C050009002200190002084
:100D90000290032003900E2004904FF0904000F04A
:100DA00001F9A06840F40000A0600022606840F0F3
:100DB000010060605848016841F0200101604B204B
:100DC0000F2100F0F2F94B2000F010FA06B010BD30
:100DD00000F5A271D0F8740100F064BA1C2212FB75
:100DE0000102D0F87401D2F8C42000F087BA1C22A6
:100DF00012FB0102D0F87401926B00F0B2BAD0F885
:100E0000740100F01ABB10B504460121D4F8740136
:100E100000F010FBD4F87401BDE8104000F0E9BA0E
:100E20007047704710B504463C483D490160C0F822
:100E30007441082141600021C1600221016181608B
:100E4000C4F82002FFF7A0F91823D4F820020022EA
:100E5000002100F06BF8D4F82002582300228021F2
:100E600000F064F8D4F820024FF48073002281214E
:100E700000F05CF8002010BD80B5D0F82002FFF72C
:100E8000CCF9002002BD10B51C461346D0F8200254
:100E90002246FFF7BEFB002010BD80B5D0F820022F
:100EA000FFF708FD002002BD80B5D0F82002FFF753
:100EB000B4FE002002BD80B5D0F82002FFF7F1FE9D
:100EC000002002BDD0F8200201F07F021C2313FB9A
:100ED0000200090602D590F82A00704790F8B60083
:100EE000704780B5D0F82002FFF77DFB002002BDDF
:100EF00080B5D0F82002FFF7F4FD002002BD80B5D8
:100F0000D0F82002FFF786FD002002BD054870479B
:100F100000000000141002400000014050040020B6
:100F2000005C0040E00600207047704730B51C248C
:100F30000D0605D501F07F0114FB0100283002E009
:100F400004FB0100B4301AB900218172838004E0EF
:100F500001218172C380190C0181002030BD10B5C0
:100F600000EB42005A1C00F58060521009E011F8B5
:100F7000013B11F8014B43EA042320F8023B801C9B
:100F8000521EF4D110BD00EB42005A1C00F58060E7
:100F9000521004E050F8043B21F8023B521EF9D1F4
:100FA000704700002DE9F04F02460023664DDFF840
:100FB0009C91DFF89CA14FF00F0801200C6898402D
:100FC00000EA040E864540F09E804C68022C18BF53
:100FD000122C10D1DC0802EB840403F00706276A08
:100FE000B60008FA06FB27EA0B07D1F810B00BFA97
:100FF00006F63E4326625C00176891F804B00326AB
:10100000A640F6430BF0030B37400BFA04FB4BEA08
:10101000070717604F68012F18BF022F03D0112F49
:1010200018BF122F11D19768D1F80CB037400BFAC6
:1010300004FB4BEA07079760576827EA00004F68F0
:10104000C7F300179F4038435060D06830408E6827
:1010500006FA04F42043D0604868C00053D5DAF89B
:10106000000040F00100CAF8000003F003049808F3
:1010700059F82060A40008FA04F7BE43B2F1904F7B
:1010800008BF002718D0334FBA4208BF012713D03A
:10109000314FBA4208BF02270ED0304FBA4208BFC4
:1010A000032709D02E4FBA4208BF042704D02D4F82
:1010B000BA420CBF0527062707FA04F4344349F85F
:1010C00020406FEA0E002C684E680440F60348BFCB
:1010D0004EEA04042C606C684E680440B60348BFB6
:1010E0004EEA04046C60AC684E680440F60248BFE7
:1010F0004EEA0404AC60EC6820404C68A40248BF8F
:101100004EEA0000E8605B1C102BFFF456AFBDE810
:10111000F08F0069084018BF0120C0B270470AB1C3
:101120000183704741837047426951404161704774
:101130000D4A1368034200D1704780B5106000F07B
:10114000D0FA01BD00000000000401400800014089
:10115000181002400004004800080048000C004835
:101160000010004800140048140401402E48006894
:10117000C0F3022070470901002806D500F00F00D7
:101180002A4A801800F8041C7047294A8154704785
:1011900025490A684FF6FF031A4000F0070042EAAB
:1011A0000020244A10430860704770B504460E467C
:1011B0001546FFF7DBFF00F00700C0F10701052926
:1011C00028BF0421021D072A34BF0020C01E0122AF
:1011D00002FA01F1491E3140814002FA00F0401E3E
:1011E000284001432046BDE87040C4E7012100F0DB
:1011F0001F029140104AFFE7400942F82010704753
:1012000010B5401EB0F1807F01D3012010BD0B4C02
:1012100060600F214FF0FF30FFF7ADFF0020A060AE
:1012200007202060002010BD0CED00E018ED00E06C
:1012300000E400E00000FA0500E100E010E000E05A
:1012400080B508B9022002BDD0F8143213B10023D2
:10125000C0F8143209B1C0F81012012180F8FC1155
:101260000270FFF7DFFD002002BD0022002914BF3D
:10127000C0F8141202221046704780B5FFF7FCFD3B
:10128000002002BD10B5D0F8142202241AB1126851
:10129000904700B90024204610BD80B5D0F8142234
:1012A0005268D8E038B5044604F50275284600F0C7
:1012B000C5FB0120C4F8F40104F5FA70418B4160CC
:1012C000007D10F01F0103D002290BD005D30EE0E2
:1012D0002946204600F01AFA0EE02946204600F082
:1012E000B5FA09E02946204600F0CCFA04E000F007
:1012F00080012046FFF7D8FD002032BD38B50446F6
:10130000104604F5FA7309BBD4F8F42104F5827190
:10131000032A24D18D68CA68AA420AD2AB1A8B600C
:10132000934238BF1A46014692B2204600F0D6FBDF
:1013300015E0186A0169080004D0187A032804BF70
:1013400020468847204600F0D1FB08E0186A8269F1
:10135000100004D0187A032804BF204690470020CC
:1013600032BD38B50546104605F5FA74B1BBD5F85F
:10137000F42105F11401022A2AD18A68CB6893422C
:1013800007D2D21A8A60014692B2284600F09EFB2C
:101390001EE04868B0FBF3F103FB110161B998420C
:1013A0000AD36168884207D200220021284600F053
:1013B0008DFB002060600BE0206AC168080004D04B
:1013C000207A032804BF28468847284600F093FB6C
:1013D000207B01280BD10020207308E0206A42699D
:1013E000100004D0207A032804BF2846904700202C
:1013F00032BD10B50446402300220021FFF743FD13
:101400004020C4F810010346002280212046FFF747
:101410003AFD4020206204F5FE72012084F8FC01B0
:10142000D06928B1926961685268C9B22046904774
:10143000002010BD01740020704780B590F8FC11A9
:10144000032906D100F5FE718969C9690A0018BF30
:101450008847002002BD9047002002BD10B59EB015
:1014600000F054FB0121002000F0DAFB012000F025
:1014700089FB002000F086FB022000F083FB0420A3
:1014800000F080FB062000F07DFB072000F07AFBD7
:10149000052000F077FB032000F074FB012005908D
:1014A00006900020079002200C904FF480300D90A1
:1014B0004FF4E0100E9005A800F070FD00B1FEE7BB
:1014C0000FA801F0A4F800201D900FA800F0E2FF83
:1014D0000F200090022102200190002002904FF482
:1014E000806003900020049000A800F0A9FE00B1E5
:1014F000FEE7824C824900222046FFF7A1FE814987
:101500002046FFF7B2FE2046FFF7B7FE4FF47A7091
:1015100000F027FB00F0E2F8012805D100F0DEF82A
:101520000028FBD101F07BF900F001F8FCE780B561
:1015300027E0012000F06BFB00F0CDF8002000F068
:1015400066FB00F0C8F8022000F061FB00F0C3F871
:10155000042000F05CFB00F0BEF8062000F057FB12
:1015600000F0B9F8072000F052FB00F0B4F80520B5
:1015700000F04DFB00F0AFF8032000F048FB00F056
:10158000AAF800F0ABF80128D3D100F0A7F80028A2
:10159000FBD101F091FA10B1FEE701F0E5F800F09F
:1015A0009DF80128F9D100F099F80028FBD100F04E
:1015B00095F8012828D0012000F029FB00F08BF8D5
:1015C000002000F024FB00F086F8022000F01FFB52
:1015D00000F081F8042000F01AFB00F07CF80620EF
:1015E00000F015FB00F077F8072000F010FB00F08A
:1015F00072F8052000F00BFB00F06DF8032000F0FE
:1016000006FB00F068F8D2E700F068F80028FBD18C
:1016100001F07AFA10B1FEE701F05EF800F05EF832
:101620000128F9D100F05AF80028FBD100F056F853
:10163000012828D0012000F0EAFA00F04CF8002040
:1016400000F0E5FA00F047F8022000F0E0FA00F0C0
:1016500042F8042000F0DBFA00F03DF8062000F02C
:10166000D6FA00F038F8072000F0D1FA00F033F88D
:10167000052000F0CCFA00F02EF8032000F0C7FAA5
:1016800000F029F8D2E7002000F0B7FA022000F0BD
:10169000B4FA042000F0B1FA062000F0AEFA0720F8
:1016A00000F0ABFA052000F0A8FA032000F0A5FA3C
:1016B00000F014F80028FBD101F0FEF910B1FEE7AC
:1016C00001F02CF900F00AF80128F9D100F006F831
:1016D0000028FBD101BD142000F043BA002000F027
:1016E000D9BA012808D108480178491C017001784D
:1016F0000329A4BF00210170704700002C020020C4
:10170000CC010020F80000200007002070B50D4635
:1017100004466878211D04F5FE7209284BD8DFE8DD
:1017200000F06B804A7C4A0A054A5A252946204621
:1017300000F008F986E0A888002804BFE88800289F
:1017400039D1A87800F07F0694F8FC01032832D044
:10175000967031462046FFF7C4FB00F090F8002E4B
:1017600014BF0220012084F8FC016BE0364E68882B
:101770003070307802281EDA94F8FC1102291DD04E
:10178000032918D148B9022084F8FC010021002067
:1017900060602046FFF781FD52E0616888424FD0CB
:1017A000C9B22046FFF779FD317861602046FFF726
:1017B00069FD022844D100F03EF943E000283FD003
:1017C0006060032184F8FC1101462046FFF75AFDB2
:1017D0000228F0D034E0E8880128ECD194F8FC012C
:1017E000022803D00328E6D1012212E0002048603D
:1017F000012204F108010CE094F8FC01801E01288C
:10180000D9D89268012002B103208860022204F135
:101810000C01204600F053F914E06888012811D12A
:1018200008E094F8FC01801E0128C4D868880128CB
:1018300008D100209060294692699268204690471E
:1018400000F01DF8002070BD0107002038B50446E7
:101850000D4694F8FC0103280CD12879022809DAF6
:10186000D4F81422926820469047E88828B900F0FE
:1018700006F802E0204600F0F5F8002032BD2046D0
:1018800000F034B970B50D4629796A78044601F044
:101890007F0004F5FE76002A2ED0012A14D0032AF8
:1018A0004DD194F8FC01022802D0032803D044E073
:1018B000002944D010E0688828B900291EBF80297B
:1018C0002046FFF7F1FA0FE094F8FC21022A02D03B
:1018D000032A03D031E091B3802915E06A8872BBF6
:1018E00038B12046FFF7E7FAB269926829462046E8
:1018F0009047FFF7C4FF22E094F8FC21022A02D0AF
:10190000032A06D019E0002819D02046FFF7CCFAA8
:1019100015E004EB00100A064CBF00F1140500F5B9
:1019200082752046FFF7CEFA00B10120286002221E
:101930002946204600F0C3F801E000F07CF80020C2
:1019400070BD000038B50D4604466888020A04F5EB
:101950000471012A08D0022A1ED0032A29D0062A9F
:1019600053D0072A58D05FE000F061F8126800A950
:101970009047BDF8001000291CBFE98800290AD053
:10198000BDF800208A4288BF0A460146ADF8002013
:10199000204600F094F831BD207C4968002800A85A
:1019A00004D1896A884702214170E2E7C96A884701
:1019B000F9E7C0B2052837D8DFE800F003090F15B2
:1019C0001B2100F034F8526800A99047D1E700F0DD
:1019D0002EF8926800A99047CBE700F028F8D2686B
:1019E00000A99047C5E700F022F8126900A99047C6
:1019F000BFE700F01CF8526900A99047B9E700F072
:101A000016F8926900A99047B3E7207C60B949684D
:101A1000496B00A88847ACE7207C28B94968096B66
:101A200000A888470721BFE700F005F831BDD4F8CA
:101A30001022207C70472946204613E00A78027065
:101A40004A784270CB788A7802EB032242804B7945
:101A50000A7902EB032282808A79C97902EB01219B
:101A6000C180704710B504468021FFF71DFA20465B
:101A7000BDE810400021FFF717BA00B9704730B534
:101A80000346002400E0641C13F8015B002DFAD12A
:101A90002406E30D9B1C138012880A7003224A70EF
:101AA000022208E010F8013BD2B25354521CD2B2C9
:101AB00000235354521C0378002BF3D130BD80B562
:101AC0000223C0F8F4318261C26100E080B51346A0
:101AD0000A460021FFF70CFA002002BD80B513462C
:101AE0000A460021FFF70BFA002002BD80B5042151
:101AF00000F006F8EEE780B5052100F001F8F1E707
:101B0000C0F8F411002200231146704780B51B482D
:101B1000016841F0100101600320FFF739FB00204C
:101B200000F005F800F002F8002002BD704710B583
:101B3000044600F076FC4FF47A71B0FBF1F0FFF749
:101B40005FFB002221464FF0FF30FFF72EFB002005
:101B500010BD0B480168491C0160704708480068C7
:101B6000704711B581B0FFF7F9FF0446FFF7F6FFA4
:101B70000199001B8842F9D313BD000000200240E8
:101B8000FC06002070B586B00446DFF8D0130028AC
:101B900018BF012C0BD0022C18BF032C07D0042C2B
:101BA00018BF052C03D0062C18BF072C03D10868DA
:101BB00040F40010086000A90FF2C830DFF8A063FD
:101BC00030F8145000950120019000F081F956F88A
:101BD0002400FFF7E7F956F8240000222946FFF712
:101BE0009EFA06B070BD0FF29C31DD4B31F810103B
:101BF00053F820000122FFF792BA0FF28831D84B38
:101C000031F8101053F820000022FFF788BA0FF2C5
:101C10007431D34A31F8101052F82000FFF784BA1B
:101C2000F0B5050085B00E46CC4803D1016841F4FB
:101C3000003101604168CB4C0FF2583741F001018F
:101C4000416066B900A937F81500009000200190A6
:101C5000022000F03DF954F82500FFF7A3F9012E0A
:101C600016D137F81500009000A900F030F9BE48F1
:101C7000019054F82500FFF795F90FF21C302C5C09
:101C800000220F2160B2FFF790FA60B2FFF7AEFAC0
:101C900005B0F0BD0FF2FC21B24A31F8101052F835
:101CA0002000FFF736BA30B5B04C85B0204601F0C1
:101CB000BDF810BBAE48A94D206000A93220A0603D
:101CC0000120E060002020616061E06120622868FE
:101CD00040F480202860C02000900220019000F095
:101CE000F7F804200490A348FFF75CF9A86840F4D3
:101CF0000010A860204600F027FF05B030BD80B579
:101D00009A4800F071FFBDE80140CCE710B59A4C4D
:101D100086B0204601F0FAFB78BB98482060182076
:101D2000E0610020A06060612061A0620720E062A5
:101D30004FF4E060E060002020624FF40070A0618A
:101D4000002060624FF4827060608448416841F412
:101D500080514160016841F400310160E020009051
:101D600000A9022000F0B2F8052004904FF0904046
:101D7000FFF718F9204601F055F906B010BD11B56E
:101D800083B000208DF8040001237B4C206E00906E
:101D900001AA03A9204601F0B3F920B1204601F0C1
:101DA00098F9FFF7B3FF9DF8040004B010BD30B5FB
:101DB0006A4C734D85B000F01AF80820009001209D
:101DC00000F084F82846FFF7EDF8012208212846A4
:101DD000FFF7A5F900F00BF80620009000F00DF8D1
:101DE0002846FFF7DFF8FFF791FF05B030BD206808
:101DF00040F40010206000A97047002001900320EB
:101E00000390002002907047F8B5164604460D4630
:101E1000022EA8BF45F0400500F02CF82846FFF739
:101E2000AEFF04E014F8010BFFF7A9FF761EB6B26F
:101E3000002EF7D117E0F8B515460446022DACBFC9
:101E400041F0C00641F0800600F014F83046FFF77C
:101E500096FF05E00020FFF792FF04F8010B6D1ECE
:101E6000ADB2002DF6D13846BDE8F8400122082178
:101E7000FFF755B9424F002208213846FFF74FB906
:101E800010B536483E4C86B000F03EF800F03CF805
:101E90000420009000A90020019000F019F82046CD
:101EA000FFF780F8002200210820FFF77EF90820C4
:101EB000FFF79CF93020009000A9FFF79EFF204615
:101EC000FFF770F8FFF7EFFE06B010BD019000209D
:101ED000029003200390704700B5204885B000F0C1
:101EE00013F83020009000A91F48FFF787FF24480F
:101EF000FFF758F8002200210A20FFF756F90A20C0
:101F0000FFF774F905B000BD016841F400110160EC
:101F100070471FB500F013F800F082FE08B1FFF71C
:101F2000EEFE1FBD1FB5002200F009F800F0E7FE2D
:101F300008B1FFF7E4FE9DF80C0004B010BD8DF869
:101F40000C200123094CA26B02920122019203AAE8
:101F500000920A46014620467047000014100240D5
:101F6000AC0100202802002000001110BC0000205D
:101F700000540040000400480000002000300140F0
:101F8000001000480002000100040080000800402A
:101F90000010002001000000060000002DE9F843B9
:101FA000044641F288382078DFF89454C00714D5ED
:101FB000686800F00C00042807D0686800F00C0086
:101FC00008283DD16868C0033AD52868C0F340406E
:101FD00000281CBF6068012817D12078DFF86474DE
:101FE000800714D5686810F00C0F07D0686800F0FF
:101FF0000C0008285AD16868C00357D42868C0F379
:10200000400000281CBF2069012840F01081207882
:10201000000740F18180A169DFF82C0400296DD010
:1020200001210160FFF79AFD0646686AC0F340008F
:10203000002871D1FFF792FD801B6428F5D3F4E0EE
:102040000020A870FFF78AFD07462868C0F34040CB
:1020500028B1FFF783FDC01B4045F6D3E5E060687B
:10206000A870E86AA168000941EA0010E8626068A7
:1020700001280DD1FFF772FD07462868C0F34040E4
:102080000028AAD1FFF76AFDC01B4045F5D3CCE07C
:10209000FFF764FD07462868C0F3404000289CD045
:1020A000FFF75CFDC01B4045F5D3BEE02069B0B131
:1020B00001203860FFF752FD06462868C0F3400053
:1020C00028B9FFF74BFD801B6428F6D3ADE02868E4
:1020D000616920F0F80040EAC100286097E73860A5
:1020E000FFF73CFD06462868C0F3400000288ED06C
:1020F000FFF734FD801B6428F5D396E00160FFF7FD
:102100002DFD0646686AC0F3400028B1FFF726FDA2
:10211000801B6428F6D388E0207840074CD5E86916
:10212000DFF8289340F08050E861D9F8000040F4CF
:102130008070C9F80000FFF711FD0646D9F80000CD
:10214000C00505D4FFF70AFD801B6428F6D36CE0B8
:10215000286A20F005002862FFF700FD0646286A7D
:10216000C0F3400028B1FFF7F9FC801B4045F6D3CF
:102170005BE0286AE16820F0050008432862E06817
:1021800001280CD1FFF7EAFC0646286AC0F340009C
:1021900090B9FFF7E3FC801B4045F6D345E0FFF71D
:1021A000DDFC0646286AC0F3400028B1FFF7D6FCE4
:1021B000801B4045F6D338E0E069002839D06968D3
:1021C00001F00C01082932D0022822D100F034F8A5
:1021D00006462868C0F3406028B1FFF7BFFC801BAB
:1021E0006428F6D321E06868616A20F4741008431B
:1021F000216A08436860012000F01FF8044628683F
:10220000C0F34060A8B9FFF7A9FC001B6428F6D30F
:102210000BE000F011F804462868C0F3406040B1BC
:10222000FFF79CFC001B6428F6D3032002E001208A
:1022300000E00020BDE8F28300203866FFF78EBC86
:102240002DE9F843824D7E4E044628680F4600F083
:10225000070041F28838B84250D22868C00847EADF
:10226000C0002860286800F00700B84219D1207823
:10227000800705D57068A16820F0F0000843706001
:102280002078C00740F190806068012803D1316850
:10229000C1F3404104E03168022803D1C1F3406139
:1022A00021B97FE0C1F3400100297BD000F095F80F
:1022B0000746606801280AD1706800F00C00042805
:1022C00072D0FFF74BFCC01B4045F5D35EE00228FF
:1022D0000AD1706800F00C00082865D0FFF73EFCBA
:1022E000C01B4045F5D351E0706810F00C0F5BD077
:1022F000FFF734FCC01B4045F6D347E02078800749
:1023000005D57068A16820F0F0000843706020785F
:10231000C0073DD56068012803D13168C1F3404151
:1023200004E03168022803D1C1F3406121B939E0EA
:10233000C1F34001002935D000F04FF881466068B4
:1023400001280BD1706800F00C00042820D0FFF7A2
:1023500005FCA0EB09004045F4D317E002280BD19F
:10236000706800F00C00082812D0FFF7F7FBA0EB14
:1023700009004045F4D309E0706810F00C0F07D055
:10238000FFF7ECFBA0EB09004045F5D3032022E06A
:102390002868C00847EAC0002860286800F00700E5
:1023A000B84201D0012016E02078400705D57068BA
:1023B000E16820F4E060084370602078000706D5EB
:1023C0007068216920F4605040EAC100706000200C
:1023D000FFF7ADFB0020BDE8F2837168890840EA91
:1023E00081007060FFF7BABB1A48016801F00C0267
:1023F000082A14D1C1F383420FF27803D25C806AB9
:10240000C90309D500F00F000FF278031249C05C30
:10241000B1FBF0F0504370471048504370470E48EE
:10242000704780B5FFF7E0FF0A4A0FF238031268E1
:102430000B49C2F30312D25CD0400860086802BDA9
:1024400000100240000042428004424200700040FE
:10245000002002400410024000127A0000093D00F2
:102460001402002000000000010203040102030422
:102470000607080902030405060708090A0B0C0DE4
:102480000E0F10100102030405060708090A0B0CC1
:102490000D0E0F10F8B504468B4D2068C0033FD5D4
:1024A000A8698A4E40F08050A861306840F480707E
:1024B0003060FFF753FB07463068C00505D4FFF7CF
:1024C0004DFBC01B6428F7D322E0E869616800F483
:1024D000407001F44071884208D0E8697C490122CB
:1024E0000A6020F4407000220A60E8616068B0F57C
:1024F000807F0FD1FFF732FB0746E869C0F3400049
:1025000040B9FFF72BFBC01B41F288318842F4D35E
:102510000320F2BDE869616820F440700843E86177
:102520002078C00705D5E86AA168800841EA8000E4
:10253000E8622078800705D5E86AE16820F4403039
:102540000843E8622078400705D5E86A216920F44D
:1025500040200843E8622078800605D5E86AE169F2
:1025600020F010000843E8622068800305D5286841
:10257000A16B20F48000084328602078400605D530
:10258000E86A216A20F020000843E862207800070A
:1025900005D5E86A616920F440100843E8622078B4
:1025A000C00605D5E86AA16920F440000843E86246
:1025B0002068800505D52868E16A20F400000843FA
:1025C00028602078000605D5A86A616A20F4F870B2
:1025D0000843A8622068C00505D5A86AA16A20F44E
:1025E00078500843A8622068C00405D5E86A216BCA
:1025F00020F480700843E8622068800405D5E86A0A
:10260000616B20F400700843E8620020F2BD31499C
:1026100001602D49CA6902F440724260CA6A02F040
:1026200003028260CA6A02F44032C260CA6A02F4DB
:1026300040220261CA6A02F01002C261026842F4DA
:10264000003202600A6802F480028263026842F08B
:1026500040020260CA6A02F020020262026842F08E
:1026600018020260CA6A02F440124261CA6A02F4A5
:1026700040028261026842F4007202600A6802F459
:102680000002C262026842F0800202608A6A02F4BA
:10269000F8724262026842F4807202608A6A02F44E
:1026A00078528262026842F480520260CA6A02F47E
:1026B00080720263026842F400520260C96A01F447
:1026C0000071416370470000041002400070004038
:1026D000400442422700010030B583B000A8002129
:1026E000002206C000A800F023FABDF90210BDF9CF
:1026F00000000A0048BF5242030048BF5B42DFF8B7
:10270000A843B4F90250B4F900409A4207DA84426F
:1027100001DA072006E0A8420CDA002002E0A94214
:1027200003DA0420FFF75FFA04E08C42BCBF032009
:10273000FFF759FA0A20FFF714FA0020FFF75DFAB5
:1027400000F04BF900F090F80120FFF756FA00F086
:102750008EF80520FFF751FA0620FFF74EFA022007
:10276000FFF74BFA37BD0000E0B500A800F0C0F954
:102770009DED000AB5EE400AF1EE10FA48BFB1EE49
:10278000400ADDED010AF5EE400AF1EE10FA4CBF09
:10279000B1EE601AB0EE601AB4EE401ADFEDBD1A69
:1027A0009FEDBD2AF1EE10FA0FD59DED000AB4EEB3
:1027B000420AF1EE10FA01DB07200CE0B4EE610AE8
:1027C000F1EE10FA12D5002005E0F4EE610AF1EE08
:1027D00010FA03D50320FFF706FA07E0F4EE420AE9
:1027E000F1EE10FAA4BF0420FFF7FDF90A20FFF76D
:1027F000B8F90020FFF701FA00F0EFF800F034F824
:102800000120FFF7FAF900F032F80520FFF7F5F99B
:102810000620FFF7F2F90220FFF7EFF907BD38B500
:10282000A24C00AD0DE000A800F024F86878002864
:1028300004BFA878002804D000F0C2F83220FFF7C7
:1028400090F90020FFF726FA0128ECD10020FFF7CD
:1028500021FA0028FAD1FFF7D0F900F0BEF800F015
:1028600003F800F004F831BD0420FFF7C6B90720D3
:10287000FFF7C3B938B58E4D044695F90300142807
:1028800004D10020E870A878401CA87095F90200D7
:1028900040B995F903002870401CE870002068706A
:1028A000FFF7B5F995F90200012809D195F9030060
:1028B0006870401CE870002028700420FFF7A7F91A
:1028C00095F9020002280AD195F903004142401C03
:1028D000E8702970002068700720FFF798F995F9D3
:1028E0000200032809D128564142401CE870697053
:1028F000002028700320FFF78AF995F902000428C8
:1029000003D10020A87028706870002020702878FB
:1029100060706878A0700020E07031BD70B582B042
:102920000020FFF760F90320FFF75DF9FFF79FFF35
:10293000FFF79AFF5D4C5F4D00AE29E000F0BCF858
:10294000284600F04DF800208DF800006FF00501DA
:1029500095ED020A00F039F87070062195ED010A34
:1029600000F033F8B0700020F070FFF750F9072046
:10297000FFF74DF90320FFF74AF90420FFF747F965
:102980007078002804BFB078002801D000F018F853
:102990000020FFF77FF90128D0D10020FFF72DF9A3
:1029A0000220FFF72AF9FFF75FFF0620FFF725F95E
:1029B000FFF75DFF0520FFF720F900F00EF873BD6B
:1029C000042200A9204600F012BEBDEEC00A10EE9F
:1029D000100A40B290FBF1F070470320FFF70DB9E9
:1029E00030B585B0044601A80021002206C006C00B
:1029F0008DF800100D460122232100A8FFF71BFAD5
:102A00000622282101A8FFF716FA9DF8002003A846
:102A100001A952060DD401AA02EB450211F81530A6
:102A2000527803EB022220F815206D1C032DF2DBF7
:102A30000DE001AB03EB450311F815205B781202A2
:102A400052FA83F220F815206D1C032DF1DB9DF85E
:102A5000001001F03001102902D0202903D005E038
:102A60009FED0E0A04E09FED0E0A01E09FED0D0AB6
:102A7000002130F9112000EE902AF8EEE00A04EB74
:102A80008102C0EE800A491CC2ED000A0329F0DB76
:102A900005B030BD00409CC501409C4500008C4104
:102AA00000008C4200000C41240200202C02002077
:102AB000F0060020C806002038B5114D68680124D2
:102AC0008047D42803D068688047D5280ED10D4CA4
:102AD0002968256041F23F0088472168096A002083
:102AE00088472168496A102088470024204632BD63
:102AF00004490968896A0A0018BF0847704700003E
:102B000030010020F806002038B50D4D686801241A
:102B1000804733280AD10B4C2968256040F64700CE
:102B200088472168096A902088470024204632BDE2
:102B300004490968896A0A0018BF084770470000FD
:102B40005C010020F406002010B5040001D1012032
:102B500010BD94F8350010B9204600F05FF802204F
:102B600084F8350020680168490849000160606800
:102B7000216820F0706008612068816821F40041BC
:102B80008160A06840B1E16801290CBF40F40040B9
:102B900040F4044021688860E068022803D121687D
:102BA0004FF4006048602068416841F0007141F4D2
:102BB00000414160206961690843A16940EA012040
:102BC0002168C860216AE0690843216808602068BC
:102BD000016841F001010160002084F83600012005
:102BE00084F83500002010BD10B5040001D101208B
:102BF00010BD022084F835002068016849084900AA
:102C00000160204600F00BF8002084F8360084F8BC
:102C1000350000E0002084F8340010BD7047704794
:102C20002DE9F047054682B095F835008846012821
:102C300062D10A9F002F1CBF0B9C002C5DD028681E
:102C40008069000458D495F83400012854D001203C
:102C500085F83400522000F0DDF800F0EAF858B1B1
:102C600095F83600042803D1002085F8340018E0D8
:102C7000002085F834002EE04FF0FF09FF2C009073
:102C800003DD00F0C0F8CA4602E000F0B5F8A24645
:102C90003146284600F07FF928B195F8360004281F
:102CA00019D1012029E0296817F8010BAAF1010ABE
:102CB000641E8862BAF1000FA4B207D144B100F0DB
:102CC00095F840B9FF2C0090DFDDDAE7002CDFD16A
:102CD00000F086F808B103200FE029683F4A202061
:102CE000C8612868416811404160012085F83500BD
:102CF000002085F8340000E00220BDE8F6872DE9C9
:102D0000F047054682B095F835008846012861D124
:102D10000A9F002F1CBF0B9C002C5CD02868806988
:102D2000000457D495F83400012853D0012085F8C9
:102D30003400622000F06EF800F0A4F860B195F85D
:102D40003600042804D1002085F83400012042E038
:102D5000002085F834002CE04FF410504FF0FF09AC
:102D6000FF2C009003DD00F04EF8CA4602E000F0B0
:102D700043F8A246334600220421284600F0B8F862
:102D8000B8B92868406AAAF1010A641E07F8010B65
:102D9000BAF1000FA4B207D144B100F027F840B94E
:102DA000FF2C0090E3DDDEE7002CE3D100F018F803
:102DB00008B103200FE02968084A2020C86128686C
:102DC000416811404160012085F83500002085F8F8
:102DD000340000E00220BDE8F687000000E800FEB5
:102DE000334600222021284600F082B833460022D4
:102DF0008021284600F07CB84FF00073E2B24146D3
:102E0000284600F0FDB84FF08073FF224146284667
:102E100000F0F6B885F83500002085F83600284621
:102E20000C9E00967047204600F0EAB890F83500F6
:102E30007047F8B500F049F84FF08073F2B2FFF731
:102E4000F2FF069F00F051F820B194F836000428F4
:102E500011D108E0012E08D000F044F828B194F810
:102E60003600042807D10120F2BD00F035F880219A
:102E700000F006F800B10320F2BD19230022202142
:102E8000204635E0F8B500F020F80023F2B2FFF755
:102E9000CAFF069F00F029F820B194F836000428F4
:102EA00011D108E0012E08D000F01CF828B194F8E8
:102EB0003600042807D10120F2BD00F00DF84021B2
:102EC000FFF7DEFF00B10320F2BD04464FF40050CF
:102ED000009015461E4670472068EDB285623B465D
:102EE000002270472168280A88623946204652E04D
:102EF0002DE9F04104460D4616469846FEF72EFE93
:102F0000074686B9206881692940A94240D0816975
:102F1000C90610D418F1010FF4D0FEF71FFEC01B34
:102F20004045EFD32CE0206881692940A9422FD188
:102F30008169C9061CD51021C161042084F83600BE
:102F4000012084F8350020688069800608D418F1D3
:102F5000010FF8D0FEF702FEC01B4045F3D30FE08F
:102F600020202168C861002084F83400012010E08E
:102F700018F1010FD7D0FEF7F1FDC01B4045D2D3A9
:102F8000012084F83500002084F83400032000E09C
:102F90000020BDE8F08170B504460D46FEF7DEFD69
:102FA000064620688169890728D48169C9060FD53A
:102FB0001021C16194F8360040F0040084F8360016
:102FC000012084F83500002084F83400012070BD11
:102FD00015F1010FE5D0FEF7C1FD801BA842E0D33B
:102FE00094F8360040F0200084F83600012084F880
:102FF0003500002084F83400032070BD002070BD2F
:1030000030B50068064D44682C40890554EA91515A
:1030100041EA0241039A19431143416030BD000067
:10302000009800FC38B5040001D1012032BD022017
:1030300084F85D00204600F061F82068016821F006
:103040004001016040F20173E2689A4204D300211A
:10305000B2F5706F05D106E04FF48051B2F5E06F24
:1030600001D00025A562256B25B99A422CBF02220A
:10307000012222636268A3681A4323691A436369C1
:103080001A43A36903F400731A43E3691A43236ADA
:103090001A43A36A1A430260226B022A03D1026810
:1030A00042F400620260A269636A120C02F0040238
:1030B0001A43636B1A43E3681A4311434160E16AA0
:1030C0000161002084F85E00012084F85D0000208A
:1030D00032BD10B5040001D1012010BD022084F8DA
:1030E0005D0000F0EAF9204600F009F8002084F8BD
:1030F0005E0084F85D0084F85C0010BD7047704786
:103100002DE9F04182B004460020ADF800000E46E3
:1031100094F85D0090461F4601280CD1002E1CBF7C
:10312000B8F1000F002F07D0FEF718FD054694F800
:103130005C00012801D10220F1E0012084F85C004C
:10314000052000F00CF9C4F84080A4F84670A4F8FB
:103150004470A663E787A78700F0F0F808D12068DD
:10316000016821F400510160016841F400510160DF
:1031700040F20171E068884203D2B4F846000228A8
:1031800004DB2068426822F4805203E02068426831
:1031900042F48052426020680268520603D40268FA
:1031A00042F040020260E068089E88423AD3E18F14
:1031B00091B9B4F84600F8B900F0C0F840F08F803B
:1031C00033460222022100F0EDF800F0D4F8B1F508
:1031D000706F78D1C06880E02068826892070BD554
:1031E00000F09FF8491EE18789B2002904BFA16A57
:1031F000B1F5005F00F0A6F8B4F8460048B12068C9
:103200008168C90705D5216CC0680880881C00F05A
:103210009FF816F1010FCAD0FEF7A0FC401BB04288
:10322000C5D349E0E18F19B9B4F84600D8B9C3E76E
:1032300020688268920716D5032903DB00F071F835
:10324000891E07E0A16B491CA163491E097801731F
:10325000E18F491EE187E18F002904BFA16AB1F522
:10326000005F00F06FF8B4F84610E9B1206882689A
:10327000D20719D5226C022910DBC1681180911C7C
:103280002164B4F84610891EA4F8461089B20229B8
:103290000ADA416841F48051416005E0511C216423
:1032A000007B107000F043F816F1010FBAD0FEF762
:1032B00055FC401BB042B5D3012084F85D000020CE
:1032C00084F85C0010E000F050F808D13346022288
:1032D000022100F067F800F058F8ADF80000314620
:1032E000204600F0F0F808B1032018E0012084F82F
:1032F0005D00216894F85E008A68D2060AD540F025
:10330000020084F85E006FF010008860002084F8EE
:103310005C0003E0002184F85C1000B10120BDE8EE
:10332000F681A26B32F8023BC360A2637047B4F827
:103330004600401EA4F846007047446AA06AB0F5F3
:10334000005F704703D1016841F48051016070470C
:103350002064B4F84600401EA4F84600704784F884
:103360005D00002084F85E007047007BADF800002F
:10337000206B0228704728B194F85E0040F00200EC
:1033800084F85E00E1682068704728B194F85E0018
:1033900040F0020084F85E002068007B70472B46F6
:1033A00001220121204600E000002DE9F04100F05B
:1033B0007EF80746206880682840B0422FD018F178
:1033C000010FF7D0FEF7CAFBC01B4045F2D32068BF
:1033D000416821F0E00141606168B1F5827F0AD166
:1033E000A168B1F5004F18BFB1F5806F03D1016836
:1033F00021F040010160A16AB1F5005F07D10168C9
:1034000021F400510160016841F400510160012084
:1034100084F85D00002084F85C00032000E00020B8
:10342000BDE8F0812DE9F04182B000F040F8074698
:10343000206881682940B14236D0B5F5C06F02BF1F
:10344000002E007B8DF8000018F1010FF0D0FEF780
:1034500085FBC01B4045EBD32068416821F0E001AB
:1034600041606168B1F5827F0AD1A168B1F5004F72
:1034700018BFB1F5806F03D1016821F040010160F0
:10348000A16AB1F5005F07D1016821F40051016024
:10349000016841F400510160012084F85D000020C2
:1034A00084F85C00032000E00020BDE8F6810446BB
:1034B0000D4616469846FEF751BB2068016821F07C
:1034C00040010160704738B50D4604462B46002286
:1034D0004FF4C051FFF7A6FF28B900F00CF810B95F
:1034E00000F00EF830B194F85E0040F0200084F84F
:1034F0005E00032032BD2B4600228021204654E787
:103500002B4600224FF4C06120468BE790F85D0007
:103510007047000038B504460025042303228121AA
:10352000FDF7B1FC1020FDF7F1FCC4F818020028EB
:103530000CBF01250573284632BD10B50446042191
:10354000FDF7ABFCD4F8180220B1FDF7EDFC00202C
:10355000C4F81802002010BD38B50B4600221D78B3
:10356000D0F81812002415F060051BD0202D3CD196
:103570005A78022A0ED0032A06D00A2A06D00B2A2D
:103580000BD19878086030E001222CE05888000ABE
:1035900048602AE00122091D25E01946FEF762FA7B
:1035A000022032BD5D78062D06D00A2D19D00B2DD4
:1035B00004BF9878886018E059881D4D090A2229AF
:1035C00006D1DA884B2AA8BF4A2205F10C0406E08E
:1035D000212904D1DA882C460A2AA8BF09222146CB
:1035E00001E001220831FEF76AFA002032BD10B571
:1035F00090F8FC41D0F81832032C04BF1C7B002C3F
:1036000006D101241C7313460A468121FDF770FC84
:10361000002010BD2221018006487047D0F8180212
:1036200000210173002070470A2101800248704781
:1036300064000020880100201802002010B582B02C
:10364000044600208DF80000FEF7B1FB8DF8004025
:103650000122202100A8FEF7D7FB200A00F075F810
:1036600023214BE080B5FEF7A2FB01220F217FE072
:1036700080B50122242100F0ECF89DF8000040F014
:10368000800000F062F8242100A8FEF7BDFB01BD18
:1036900010B582B004460020ADF8000001223021B0
:1036A0000DF10100FEF7C7FB00F0D1F89DF8010015
:1036B00000F080008DF8010001229DF8000000F06C
:1036C000DF0020438DF8000030210DF10100FEF7EE
:1036D0009BFB11E010B582B000F0B8F824B99DF85A
:1036E000000040F0800005E0012C05D19DF80000AD
:1036F00040F008008DF800000122222100A8FEF70A
:1037000083FB13BD10B582B000F0A0F824B99DF87A
:10371000000000F07F0005E0012C05D19DF80000BD
:1037200000F0F7008DF80000E6E710B582B004461F
:103730000122212100F08DF89DF8000000F0C0006A
:1037400000F002F82121D9E720438DF80000012282
:10375000704710B582B004460122242100F079F8A8
:103760009DF8000000F0EF00FFF7EEFF2421C5E711
:1037700000F06FF89DF8000002BD000038B52DED97
:10378000028B86B0044601A80021002206C006C0B4
:103790008DF800100D469FED298A0122232100F0AB
:1037A00058F80622282101A8FEF745FB9DF80020C5
:1037B00003A801A952060DD401AA02EB450211F893
:1037C0001530527803EB022220F815206D1C032DD2
:1037D000F2DB0DE001AB03EB450311F815205B783C
:1037E000120252FA83F220F815206D1C032DF1DB32
:1037F0009DF8001011F0300106D0102907D02029C3
:1038000008BF9FED0F8A04E09FED0E8A01E09FED57
:103810000E8A002130F9112000EE102AB8EEC00AFD
:1038200004EB810220EE080A491C82ED000A0329FC
:10383000F0DB06B0BDEC028B31BD000000000000E3
:1038400000008C4200000C4100008C410446012223
:10385000222100A8FEF7EFBA10B50446FEF710FBD0
:10386000E2B2202100F0BDF8BDE810400022232183
:1038700022E080B5FEF704FBBDE804400F213220B2
:10388000FEF750BB80B5242100F08DF8BDE808405C
:1038900040F0800224210FE010B500F082F800F023
:1038A0000C0004E010B500F07CF800F0F70044EAEA
:1038B0000002BDE8104021213220FEF72ABBF0B5FE
:1038C000044685B00125232100F06DF80646242129
:1038D00000F069F8282100F066F88DF8000000AFCC
:1038E000292100F060F878702A2100F05CF8B870A7
:1038F0002B2100F058F8F8702C2100F054F83871A2
:103900002D2100F050F88DF80500710602A80FD4A3
:10391000002100AA02EB4102525717F9113012029E
:1039200042FA83F220F81120491C0329F1DB0EE052
:10393000002100AB03EB410317F911205B57120282
:1039400042FA83F220F81120491C0329F1DB06F02A
:103950003001102905D0202905D0302908BF0C25B9
:1039600002E0022500E00425002130F8112012FBBE
:1039700005F224F81120491C0329F6DB05B0F0BD3F
:1039800010B500F00EF800F0FB0090E710B504460B
:10399000222100F008F844EA0002BDE8104022218C
:1039A0008AE7044621213220FEF7BCBA10B504464E
:1039B0003821FFF7F8FF44EA0002382100F011F83F
:1039C0000A223A2100F00DF805223B2100F009F807
:1039D00005223C2100F005F8BDE8104032223D21CF
:1039E0006AE73220FEF795BA80B5FEF775FA8020B7
:1039F000FFF7CCFF0420FFF7C3FFBDE80240102013
:103A0000D4E70000122008800FF2E800704704207D
:103A100008800FF2F400704710B5174C0FF28C00BD
:103A200003E010B5144C0FF29C000A462146FEF745
:103A300024F8204610BD38B51A2008800F4D1048D4
:103A4000446801688068401809D00822A91C00F069
:103A500019F8042205F11201204600F013F8284657
:103A600032BD10B5044C0FF27000DEE710B5024C09
:103A70000FF27000D9E70000C8050020E80100201F
:103A8000ACF7FF1F30B5002307E001F8134001EB4E
:103A90004305002400016C705B1C934205DA040F9F
:103AA0000A2C34BF30343734EFE730BD4849442066
:103AB0004A6F79737469636B20696E204653204D99
:103AC0006F64650053544D6963726F656C65637410
:103AD000726F6E696373000048494420436F6E66DD
:103AE0006967000048494420496E746572666163E5
:103AF000650000001201000200000040830410571E
:103B0000000201020301000004030904816807E0C8
:103B100002681168536889185B18C3600832026034
:103B2000C2689142F4D04A1C8260087870472DE93F
:103B3000FF4D00F10801009100270168009A490833
:103B400002EBC1010191B846002102910391016885
:103B5000490800EBC101406800F0010501F10804CB
:103B6000400804EBC00631E000A8FFF7CFFF4FFA92
:103B700080FA0AE0009801680818009902904968E4
:103B80000818039000980830009002980399884222
:103B9000F0D0401C029010F801BD47450CD1B44252
:103BA00008BF00F01DF8276805B14F44606800EBBE
:103BB000070808344745F2D007F801BBBAF1000FF7
:103BC0000AD51AF1010AE8D14745CDD1B442CBD18B
:103BD000304604B0BDE8F08DBAF1010AD5D5F3E75F
:103BE000012000F001B8000080B5C046C046024A7E
:103BF00011001820ABBEFBE7260002001448154A4E
:103C0000016841F4700101601348016841F001014D
:103C10000160416811404160104A01681140016033
:103C20000F4A016821F480210160416821F4FE01FE
:103C30004160C16A09090901C162016B1140016358
:103C4000002181604FF00060064908607047000065
:103C500088ED00E00CC07FF800100240FFFFF6FE88
:103C6000CCFC00FF08ED00E07047FEE7FEE7FEE752
:103C7000FEE7704770477047FDF76BBF0348FCF7DE
:103C800042BC03494FF48020086070475004002074
:103C9000140401400120FDF74BBA000010B507499C
:103CA00079441831064C7C44163404E00A68081D37
:103CB000511888470146A142F8D110BD0800000004
:103CC000300000008FD0FFFFD80400002C0200203D
:103CD000000000005BFEFFFF020000000200000089
:103CE0007401000051010000000000202C020000BF
:103CF0004EF68851CEF20001086840F4700008606A
:103D00004FF00070E1EE100A7047000000F00BF871
:103D1000002801D0FFF7C2FF0020C046C046FDF7D3
:103D20009DFB00F002F80120704700F001B8000090
:103D300007463846FFF758FFFBE700000148804779
:103D400001480047FD3B00084D3D0008C046C04605
:103D5000FFF7CEFFFFF7DAFFFFF7FEBFFFF7FEBF6B
:103D6000FFF7FEBFFFF7FEBFFFF7FEBFFFF7FEBF87
:103D7000FFF7FEBFFFF7FEBFFFF7FEBFFFF7FEBF77
:103D8000FFF7FEBFFFF7FEBFFFF7FEBFFFF7FEBF67
:103D9000FFF7FEBFFFF7FEBFFFF7FEBFFFF7FEBF57
:103DA000FFF7FEBFFFF7FEBFFFF7FEBFFFF7FEBF47
:103DB000FFF7FEBFFFF7FEBFFFF7FEBFFFF7FEBF37
:103DC000FFF7FEBFFFF7FEBFFFF7FEBFFFF7FEBF27
:103DD000FFF7FEBFFFF7FEBFFFF7FEBFFFF7FEBF17
:103DE000FFF7FEBFFFF7FEBFFFF7FEBFFFF7FEBF07
:103DF000FFF7FEBFFFF7FEBFFFF7FEBFFFF7FEBFF7
:103E0000FFF7FEBFFFF7FEBFFFF7FEBFFFF7FEBFE6
:103E1000FFF7FEBFFFF7FEBFFFF7FEBFFFF7FEBFD6
:103E2000FFF7FEBFFFF7FEBFFFF7FEBFFFF7FEBFC6
:103E3000FFF7FEBFFFF7FEBFFFF7FEBFFFF7FEBFB6
:103E4000FFF7FEBFFFF7FEBFFFF7FEBFFFF7FEBFA6
:103E5000FFF7FEBF9F000A100000092111010001B9
:103E6000224AFC004905010902A1010901A100053E
:103E70000919012903150025019503750181029592
:103E800001750581010501093009310938158125C0
:103E90007F750895038106C0093C05FF09011500DF
:103EA000250175019502B12275069501B101C0C4C5
:103EB000000D0100153500083B3500085935000894
:103EC000F800031D360008F00027153600081536E7
:103ED000000815360008293600083D36000865360A
:103EE00000087136000891360008D53600080537FD
:103EF0000008F8001B2B370008533700087D3700F7
:103F000008593800087338000885380008E9390076
:103F100008F0002D99380008A5380008BF380008BF
:103F200009022200010100E032090400000103013E
:103F30000200092111010001224A00070581030442
:103F4000000AFD003C100048001000480010004826
:103F50000010004800100048001000480010004801
:103F600000100048053A00080F3A0008233A0008FC
:103F7000193A0008373A0008633A00086D3A000819
:103F80001A03DE000F010203040607080900127A73
:103F9000000A060002FD00014001FD0003E80318CD
:053FA000FCFD000048DB
:0400000508003D4D65
:00000001FF
