:020000040800F2
:10000000E8150020A1850008398500083B85000817
:100010003D8500083F85000841850008000000007C
:100020000000000000000000000000004385000800
:100030004585000800000000478500084985000844
:10004000BD850008C1850008C5850008C985000870
:10005000CD850008D1850008D5850008D985000820
:10006000DD850008E1850008E5850008E9850008D0
:10007000ED850008F1850008F5850008F985000880
:10008000FD8500080186000805860008098600082D
:100090000D860008118600081586000819860008DC
:1000A0001D8600082186000825860008298600088C
:1000B0002D8600083186000835860008398600083C
:1000C0003D860008418600084586000849860008EC
:1000D0004D8600085186000855860008598600089C
:1000E0004D8500085D860008618600086586000869
:1000F000698600086D86000871860008758600080C
:100100007986000800000000000000007D860008DD
:100110008186000885860008898600088D8600088B
:100120009186000895860008998600089D8600083B
:10013000A1860008A586000800000000000000005D
:10014000A9860008AD860008B186000800000000FE
:10015000000000000000000000000000000000009F
:10016000B5860008B9860008BD860008C18600086B
:10017000C5860008C9860008CD860008D18600081B
:10018000D5860008D98600080000000000000000A5
:10019000DD860008000000000000000000000000F4
:1001A000000000000000000000000000000000004F
:1001B000000000000000000000000000000000003F
:1001C000000000000000000000000000000000002F
:1001D000000000000000000000000000000000001F
:1001E0000000038000038000038000038000038080
:1001F00000038000038000038000038000010000F2
:1002000001000000000000000003800003800000E7
:1002100000000000000000000000000000000000DE
:10022000000000000000000000000000000E700050
:100230000E70000E70000420000420000420000452
:10024000200000000000000000000000000000008E
:10025000000000000000000000000000000000009E
:10026000000000000000000000000000000000008E
:100270000000066000066000066000066000066080
:10028000003FF8003FF8000660000CC0003FF80097
:100290003FF8000CC0000CC0000CC0000CC0000CEB
:1002A000C00000000000000000000000000000008E
:1002B0000000000000000001800001800007B00085
:1002C0000FF0001870001870001C00000F8000076D
:1002D000E00000F0001830001C30001C70001FE02F
:1002E000001BC0000180000180000180000180002F
:1002F00000000000000000000000000000000000FE
:1003000000000780000FC0001CE0001860001860AB
:10031000001CE0000FF80007E0001FF000073800A5
:1003200006180006180007380003F00001E000007E
:1003300000000000000000000000000000000000BD
:1003400000000000000000000000000000000000AD
:1003500003F00007F0000C60000C00000C00000629
:1003600000000700000F9C001DFC0018F000187032
:10037000000FFC0007DC000000000000000000008F
:10038000000000000000000000000000000000006D
:1003900000000000000380000380000380000100D3
:1003A000000100000100000100000000000000004A
:1003B000000000000000000000000000000000003D
:1003C000000000000000000000000000000000002D
:1003D00000000000000000000000001800003800CD
:1003E00000700000F00000E00000E00001C000012B
:1003F000C00001C00001C00001C00001C00000E059
:100400000000E000007000007000003800001800DC
:1004100000000000000000000000000000000000DC
:1004200000001800001C00000E00000E0000070075
:1004300000070000038000038000038000038000A9
:100440000380000380000700000700000F00000E7B
:1004500000001C0000180000000000000000000068
:10046000000000000000000000000180000180008A
:100470000180001DB8001FF80007E00003C0000362
:10048000C0000660000660000000000000000000E0
:10049000000000000000000000000000000000005C
:1004A000000000000000000000000000000000004C
:1004B00000000000000000000180000180000180B9
:1004C000000180000180003FFC003FFC0001800033
:1004D0000180000180000180000180000000000018
:1004E000000000000000000000000000000000000C
:1004F00000000000000000000000000000000000FC
:1005000000000000000000000000000000000000EB
:10051000000000000000000000000000000000E0FB
:100520000000C00001C00001800001800003000045
:1005300003000000000000000000000000000000B8
:1005400000000000000000000000000000000000AB
:10055000000000000000001FF8001FF8000000006D
:10056000000000000000000000000000000000008B
:10057000000000000000000000000000000000007B
:10058000000000000000000000000000000000006B
:10059000000000000000000000000000000000005B
:1005A000000000000000000000000000000003C088
:1005B0000003C00003C000000000000000000000B5
:1005C0000000000000000000000000000018000013
:1005D000180000380000300000700000600000606B
:1005E0000000C00000C00001800001800003000086
:1005F0000300000600000600000E00000C00001CB6
:1006000000001800001800000000000000000000BA
:100610000000000000000000000003C00007E00030
:100620000C30000C300018180018180018180018AA
:1006300018001818001818001818000C30000C309A
:100640000007E00003C00000000000000000000000
:10065000000000000000000000000000000000009A
:1006600000000080000780001F80001D80000180C6
:1006700000018000018000018000018000018000F5
:100680000180000180000180001FF8001FF80000B9
:10069000000000000000000000000000000000005A
:1006A0000000000000000000000007C0001FF00074
:1006B00038300030180030180000180000300000FA
:1006C000600001C0000380000600000C000018005C
:1006D000003FF8003FF800000000000000000000AC
:1006E000000000000000000000000000000000000A
:1006F000000003C0000FE0000C700000300000306C
:100700000000600003C00003E0000070000018005B
:100710000018000018001838001FF0000FC000007B
:1007200000000000000000000000000000000000C9
:100730000000000000000000000000E00001E000F8
:1007400001E0000360000660000660000C60000C21
:1007500060001860003060003FF8003FF800006063
:100760000003F80003F80000000000000000000093
:100770000000000000000000000000000000000079
:1007800000001FF0001FF000180000180000180003
:10079000001BC0001FF0001C3000001800001800F3
:1007A0000018000018003030003FF0000FC00000BB
:1007B0000000000000000000000000000000000039
:1007C0000000000000000000000000F80003F80036
:1007D0000700000E00000C00001800001BC0001FE6
:1007E000F0001C30001818001818001818000C38F9
:1007F000000FF00003E00000000000000000000017
:1008000000000000000000000000000000000000E8
:1008100000001FF8001FF8001818001838000030FA
:100820000000300000700000600000600000E00088
:1008300000C00000C00001C0000180000180000075
:1008400000000000000000000000000000000000A8
:100850000000000000000000000007E0000FF000B2
:100860001C38001818001818000C300007E00007AA
:10087000E0000C30001818001818001818001C3878
:10088000000FF00007E00000000000000000000082
:100890000000000000000000000000000000000058
:1008A000000007C0000FF0001C30001818001818D6
:1008B000001818000C38000FF80003D800001800CA
:1008C00000300000700000E0001FC0001F000000AA
:1008D0000000000000000000000000000000000018
:1008E0000000000000000000000000000000000008
:1008F00000000000000003C00003C00003C00000AF
:10090000000000000000000000000000000003C024
:100910000003C00003C00000000000000000000051
:1009200000000000000000000000000000000000C7
:10093000000000000000000000000000000000F0C7
:100940000000F00000F000000000000000000000C7
:1009500000000000E00001C00001800001800003F1
:100960000000020000000000000000000000000085
:100970000000000000000000000000000000000077
:10098000001C00003C0000F00003C0000F00003C11
:100990000000F000003C00000F000003C00000F069
:1009A00000003C00001C00000000000000000000EF
:1009B0000000000000000000000000000000000037
:1009C0000000000000000000000000000000000027
:1009D000007FFC007FFC000000000000007FFC00A6
:1009E0007FFC00000000000000000000000000008C
:1009F00000000000000000000000000000000000F7
:100A000000000000000000000000000000000000E6
:100A10007000007800001E000007800001E0000068
:100A20007800001E0000780001E0000780001E0032
:100A300000780000700000000000000000000000CE
:100A400000000000000000000000000000000000A6
:100A5000000000000007C0000FE000187000183010
:100A60000018300000700000E00003C000038000A8
:100A70000300000000000000000700000700000065
:100A80000000000000000000000000000000000066
:100A90000000000000000000000003E00007F0007C
:100AA0000E38000C180018780018F80019D8001932
:100AB000980019980019980018F800187800180084
:100AC000000C00000E180007F80003E00000000012
:100AD0000000000000000000000000000000000016
:100AE00000000000001F80001FC00001C000036064
:100AF000000360000630000630000C30000FF800E4
:100B00001FF800180C00300C00FC7F00FC7F000078
:100B100000000000000000000000000000000000D5
:100B2000000000000000000000000000007FE00066
:100B30007FF0001838001818001818001838001F27
:100B4000F0001FF800181C00180C00180C00180CFE
:100B5000007FF8007FF000000000000000000000AF
:100B60000000000000000000000000000000000085
:100B7000000000000003EC000FFC001C1C00180C1F
:100B800000300C0030000030000030000030000069
:100B9000300000180C001C1C000FF80003F00000CF
:100BA0000000000000000000000000000000000045
:100BB000000000000000000000000000007FC000F6
:100BC0007FF000183800181800180C00180C0018D6
:100BD0000C00180C00180C00180C0018180018381D
:100BE000007FF0007FE00000000000000000000037
:100BF00000000000000000000000000000000000F5
:100C000000000000007FF8007FF800181800181896
:100C1000001998001980001F80001F8000198000B3
:100C20001998001818001818007FF8007FF80000C5
:100C300000000000000000000000000000000000B4
:100C4000000000000000000000000000003FFC0069
:100C50003FFC000C0C000C0C000CCC000CC0000F76
:100C6000C0000FC0000CC0000CC0000C00000C0045
:100C7000003FC0003FC00000000000000000000076
:100C80000000000000000000000000000000000064
:100C9000000000000003EC000FFC001C1C00180CFE
:100CA00000300C0030000030000030FE0030FE004C
:100CB000300C00380C001C1C000FFC0003F000007E
:100CC0000000000000000000000000000000000024
:100CD000000000000000000000000000007E7E0018
:100CE0007E7E001818001818001818001818001F29
:100CF000F8001FF800181800181800181800181825
:100D0000007E7E007E7E00000000000000000000EB
:100D100000000000000000000000000000000000D3
:100D200000000000001FF8001FF800018000018093
:100D3000000180000180000180000180000180002E
:100D40000180000180000180001FF8001FF80000F2
:100D50000000000000000000000000000000000093
:100D60000000000000000000000000000007FE007E
:100D700007FE0000300000300000300000300000AE
:100D80003000303000303000303000303000306023
:100D9000003FE0000F8000000000000000000000A5
:100DA0000000000000000000000000000000000043
:100DB00000000000007F3E007F3E001830001860F9
:100DC0000018C0001980001B80001FC0001CE0003C
:100DD0001870001830001838007F1F007F1F0000B7
:100DE0000000000000000000000000000000000003
:100DF000000000000000000000000000007F8000F4
:100E00007F80000C00000C00000C00000C00000CA7
:100E100000000C00000C0C000C0C000C0C000C0C66
:100E2000007FFC007FFC00000000000000000000CC
:100E300000000000000000000000000000000000B2
:100E40000000000000F00F00F81F00381C003C3CC0
:100E5000003C3C00366C00366C0033CC0033CC00D8
:100E6000318C00300C00300C00FE7F00FE7F000053
:100E70000000000000000000000000000000000072
:100E80000000000000000000000000000078FE00EC
:100E900078FE001C18001E18001F18001B18001BED
:100EA000980019D80018D80018F8001878001838D9
:100EB000007F18007F180000000000000000000004
:100EC0000000000000000000000000000000000022
:100ED000000000000003C0000FF0001C38001818CC
:100EE00000381C00300C00300C00300C00300C00BE
:100EF000381C001818001C38000FF00003C0000058
:100F000000000000000000000000000000000000E1
:100F1000000000000000000000000000003FF000A2
:100F20003FF8000C1C000C0C000C0C000C0C000C0E
:100F300018000FF8000FE0000C00000C00000C007F
:100F4000003FC0003FC000000000000000000000A3
:100F50000000000000000000000000000000000091
:100F6000000000000003C0000FF0001C380018183B
:100F700000381C00300C00300C00300C00300C002D
:100F8000381C001818001C38000FF00007C00007BC
:100F9000CC000FFC000C3800000000000000000036
:100FA000000000000000000000000000007FE000E2
:100FB0007FF0001838001818001818001838001FA3
:100FC000F0001FC00018E00018700018300018383A
:100FD000007F1E007F0E00000000000000000000E7
:100FE0000000000000000000000000000000000001
:100FF000000000000007D8000FF8001C3800181887
:10100000001818001E00000FC00003F00000780058
:101010001818001818001C38001FF0001BE0000012
:1010200000000000000000000000000000000000C0
:10103000000000000000000000000000003FFC0075
:101040003FFC00318C00318C00318C00318C000170
:10105000800001800001800001800001800001808B
:10106000000FF0000FF00000000000000000000082
:101070000000000000000000000000000000000070
:1010800000000000007E7E007E7E00181800181808
:101090000018180018180018180018180018180060
:1010A0001818001818000C30000FF00003C00000E2
:1010B0000000000000000000000000000000000030
:1010C000000000000000000000000000007F7F0022
:1010D0007F7F00180C000C18000C18000C1800067C
:1010E000300006300003600003600003600001C0B0
:1010F0000001C000008000000000000000000000AF
:1011000000000000000000000000000000000000DF
:101110000000000000FE3F80FE3F803006003006E9
:101120000030860019CC0019CC001B6C001B6C0031
:101130001E7C000E38000E38000C18000C18000041
:10114000000000000000000000000000000000009F
:10115000000000000000000000000000007E7E0093
:101160007E7E001818000C300006600003C00001ED
:10117000800001800003C0000660000C30001818D9
:10118000007E7E007E7E0000000000000000000067
:10119000000000000000000000000000000000004F
:1011A00000000000007C7E007C7E001818000C30DF
:1011B0000006600006600003C0000180000180009E
:1011C0000180000180000180000FF0000FF000009E
:1011D000000000000000000000000000000000000F
:1011E000000000000000000000000000001FF800E8
:1011F0001FF80018180018300018600018C000010F
:1012000080000300000618000C18001818003018A1
:10121000003FF8003FF80000000000000000000060
:1012200000000000000000000000000000000000BE
:10123000000001F00001F000018000018000018049
:101240000001800001800001800001800001800019
:101250000180000180000180000180000180000108
:10126000800001F00001F00000000000000000001C
:10127000000000001800001800001C00000C000016
:101280000E0000060000060000030000030000013D
:10129000800001800000C00000C00000600000600D
:1012A0000000700000300000380000180000180036
:1012B000000000000000000000000000000000002E
:1012C00000000F80000F800001800001800001807D
:1012D0000001800001800001800001800001800089
:1012E0000180000180000180000180000180000178
:1012F00080000F80000F8000000000000000000050
:101300000000000000000000800001C00003E000B9
:101310000770000630000C1800180C0010040000C4
:1013200000000000000000000000000000000000BD
:1013300000000000000000000000000000000000AD
:10134000000000000000000000000000000000009D
:10135000000000000000000000000000000000008D
:10136000000000000000000000000000000000007D
:10137000000000000000000000000000000000006D
:101380000000000000000000000000000000FFFF5F
:1013900000FFFF0000000003000003800000E000E9
:1013A00000600000000000000000000000000000DD
:1013B000000000000000000000000000000000002D
:1013C000000000000000000000000000000000001D
:1013D000000000000000000000000000000000000D
:1013E00000000000000000000000000000000FC02E
:1013F000001FE00000300000300007F0001FF00088
:101400003830003030003070001FFC000FBC00008E
:1014100000000000000000000000000000000000CC
:1014200000000000000000000000780000780000CC
:101430001800001800001BE0001FF8001C1800181E
:101440000C00180C00180C00180C00180C001C18CC
:10145000007FF8007BE000000000000000000000BA
:10146000000000000000000000000000000000007C
:10147000000000000000000000000000000003EC7D
:10148000000FFC001C1C00380C00300C0030000069
:10149000300000380C001C1C000FF80003F00000A6
:1014A000000000000000000000000000000000003C
:1014B000000000000000000000000078000078003C
:1014C00000180000180007D8001FF8001838003076
:1014D0001800301800301800301800301800183884
:1014E000001FFE0007DE00000000000000000000FA
:1014F00000000000000000000000000000000000EC
:10150000000000000000000000000000000007E0F4
:10151000001FF800181800300C003FFC003FFC00D2
:10152000300000300000180C001FFC0007F0000025
:1015300000000000000000000000000000000000AB
:101540000000000000000000000001FC0003FC009F
:101550000600000600003FF8003FF8000600000605
:10156000000006000006000006000006000006005D
:10157000003FF0003FF0000000000000000000000D
:10158000000000000000000000000000000000005B
:10159000000000000000000000000000000007DE66
:1015A000001FFE00183800301800301800301800F6
:1015B0003018003018001838001FF80007D8000055
:1015C00018000018000038000FF0000FC0000000E5
:1015D000000000000000000000007800007800001B
:1015E0001800001800001BE0001FF0001C38001855
:1015F00018001818001818001818001818001818E3
:10160000007E7E007E7E00000000000000000000E2
:1016100000000000000000000000000000000000CA
:1016200000000180000180000000000000001F8019
:10163000001F800001800001800001800001800007
:101640000180000180000180003FFC003FFC0000A1
:10165000000000000000000000000000000000008A
:101660000000000000000000000000C00000C000FA
:101670000000000000001FF0001FF000003000001C
:10168000300000300000300000300000300000303A
:10169000000030000030000030000030000070001A
:1016A0001FE0001F8000000000000000000000009C
:1016B00000003C00003C00000C00000C00000CF896
:1016C000000CF8000CC0000D80000F80000F00001F
:1016D0000F80000DC0000CE0003C7C003C7C000052
:1016E00000000000000000000000000000000000FA
:1016F000000000000000000000001F80001F8000AC
:101700000180000180000180000180000180000153
:1017100080000180000180000180000180000180C4
:10172000003FFC003FFC0000000000000000000043
:1017300000000000000000000000000000000000A9
:101740000000000000000000000000000000F7782A
:1017500000FFFC0039CC00318C00318C00318C0052
:10176000318C00318C00318C00FDEF00FDEF00006A
:101770000000000000000000000000000000000069
:101780000000000000000000000000000000000059
:101790000000000000007BE0007FF0001C38001813
:1017A0001800181800181800181800181800181831
:1017B000007E7E007E7E0000000000000000000031
:1017C0000000000000000000000000000000000019
:1017D000000000000000000000000000000003C046
:1017E000000FF0001C3800381C00300C00300C00DA
:1017F000300C00381C001C38000FF00003C0000043
:1018000000000000000000000000000000000000D8
:1018100000000000000000000000000000000000C8
:101820000000000000007BE0007FF8001C1800189A
:101830000C00180C00180C00180C00180C001C18D8
:10184000001FF8001BE0001800001800001800003E
:101850007F00007F0000000000000000000000008A
:10186000000000000000000000000000000007DE93
:10187000001FFE0018380030180030180030180023
:101880003018003018001838001FF80007D8000082
:10189000180000180000180000FE0000FE00000004
:1018A0000000000000000000000000000000000038
:1018B0000000000000003E78003EFC0007CC00075E
:1018C00000000600000600000600000600000600FA
:1018D000003FF0003FF000000000000000000000AA
:1018E00000000000000000000000000000000000F8
:1018F000000000000000000000000000000007F8E9
:10190000000FF8001818001818001F80000FF000D2
:1019100000F8001818001838001FF0001FE0000041
:1019200000000000000000000000000000000000B7
:10193000000000000000000000000C00000C00008F
:101940000C00000C00003FF0003FF0000C00000C09
:1019500000000C00000C00000C00000C00000C1C2F
:101960000007FC0003F00000000000000000000081
:101970000000000000000000000000000000000067
:101980000000000000000000000000000000787867
:101990000078780018180018180018180018180097
:1019A0001818001818001838000FFE0007DE000095
:1019B0000000000000000000000000000000000027
:1019C0000000000000000000000000000000000017
:1019D0000000000000007C3E007C3E00181800184B
:1019E00018000C30000C300006600006600007E0B4
:1019F0000003C00003C00000000000000000000061
:101A000000000000000000000000000000000000D6
:101A10000000000000000000000000000000783C12
:101A200000783C003118003398003398001AB00059
:101A30001EF0001EF0001C60000C60000C60000036
:101A40000000000000000000000000000000000096
:101A50000000000000000000000000000000000086
:101A60000000000000003E7C003E7C000C300006C0
:101A7000600003C00001800003C0000660000C305D
:101A8000003E7C003E7C00000000000000000000E2
:101A90000000000000000000000000000000000046
:101AA00000000000000000000000000000007E1F99
:101AB000007E1F00180C000C18000C1800063000E7
:101AC00006300003600003E00001C00000C0000118
:101AD00080000180000300003FC0003FC000000004
:101AE00000000000000000000000000000000000F6
:101AF0000000000000001FF8001FF8001830001858
:101B0000600000C0000180000300000618000C18EF
:101B1000001FF8001FF80000000000000000000097
:101B200000000000000000000000000000000000B5
:101B3000000000E00001E000018000018000018061
:101B40000001800001800001800003800007000088
:101B500003800001800001800001800001800001FD
:101B6000800001E00000E000000000000000000034
:101B70000000000000000000000001800001800063
:101B800001800001800001800001800001800001CF
:101B90008000018000018000018000018000018040
:101BA00000018000018000018000018000018000B0
:101BB0000000000000000000000000000000000025
:101BC0000000070000078000018000018000018004
:101BD0000001800001800001800001C00000E000E1
:101BE00001C000018000018000018000018000012F
:101BF00080000780000700000000000000000000D7
:101C000000000000000000000000000000000000D4
:101C10000000000000000000000000000E00001F97
:101C200018003BB80031F00000E0000000000000A8
:101C300000000000000000000000000000000000A4
:101C40000000000000000000000000000000000094
:101C50000000000000000000001010101010000034
:101C600010000000006C4848000000000000000068
:101C7000001414287C287C285050000000103840A4
:101C80004038487010100000002050200C700814DC
:101C90000800000000000018202054483400000014
:101CA00000101010100000000000000000080810D4
:101CB0001010101010080800002020101010101034
:101CC0001020200000107C102828000000000000D8
:101CD0000000101010FE10101000000000000000A6
:101CE000000000181030200000000000007C000000
:101CF0000000000000000000000000303000000084
:101D0000000404080810102020400000003844445B
:101D100044444444380000000030101010101010EB
:101D20007C00000000384404081020447C000000BF
:101D3000003844041804044438000000000C141453
:101D400024447E040E000000003C2020380404449B
:101D500038000000001C2040784444443800000053
:101D6000007C4404080808101000000000384444B7
:101D7000384444443800000000384444443C0408DB
:101D80007000000000000030300000303000000023
:101D900000000018180000183020000000000C108F
:101DA000608060100C000000000000007C007C00DF
:101DB000000000000000C02018041820C00000002F
:101DC0000000182404081000300000003844444C7F
:101DD00054544C40443800000030102828287C44DB
:101DE000EE00000000F8444478444444F800000049
:101DF000003C4440404040443800000000F048446B
:101E000044444448F000000000FC445070504044FA
:101E1000FC000000007E22283828202070000000EE
:101E2000003C4440404E44443800000000EE44442E
:101E30007C444444EE000000007C10101010101090
:101E40007C000000003C08080848484830000000BA
:101E500000EE444850704844E60000000070202026
:101E6000202024247C00000000EE6C6C5454444478
:101E7000EE00000000EE64645454544CEC0000008A
:101E8000003844444444444438000000007824248A
:101E90002438202070000000003844444444444466
:101EA000381C000000F8444444784844E200000034
:101EB00000344C40380404645800000000FE9210C6
:101EC000101010103800000000EE44444444444414
:101ED0003800000000EE44442828281010000000BC
:101EE00000EE4444545454542800000000C64428D2
:101EF00010102844C600000000EE442828101010DE
:101F000038000000007C4408101020447C000000D1
:101F100000382020202020202020380000402020D1
:101F200020101008080800000038080808080808F1
:101F300008083800001010284400000000000000CD
:101F40000000000000000000000000FE001008007B
:101F5000000000000000000000000038443C444441
:101F60003E00000000C0405864444444F8000000B3
:101F70000000003C4440404438000000000C0434A1
:101F80004C4444443E00000000000038447C404083
:101F90003C000000001C207C202020207C00000051
:101FA000000000364C4444443C04380000C0405813
:101FB00064444444EE000000001000701010101043
:101FC0007C0000000010007808080808080870006D
:101FD00000C0405C48705048DC0000000030101029
:101FE000101010107C000000000000E854545454FD
:101FF000FE000000000000D864444444EE000000ED
:10200000000000384444444438000000000000D878
:10201000644444447840E000000000364C444444AA
:102020003C040E000000006C302020207C000000EA
:102030000000003C44380444780000000000207C8C
:10204000202020221C000000000000CC4444444C0E
:1020500036000000000000EE444428281000000074
:10206000000000EE4454545428000000000000CC4E
:1020700048303048CC000000000000EE442428180E
:10208000101078000000007C481020447C00000004
:102090000008101010102010101008000010101070
:1020A0001010101010100000002010101010081058
:1020B0001010200000000000002458000000000064
:1020C0000000000000000000202020200020000070
:1020D00050500000000000002850F850F850A000B8
:1020E00020306030106020002020186010100000A8
:1020F0000038206050780000202020000000000000
:1021000010202020202010004020202020204000EF
:102110002070205000000000002020F82020000047
:1021200000000000102020000000007000000000EF
:10213000000000000020000010202020404080000F
:1021400020505050502000006020202020F8000037
:10215000205020204070000020501020106000000F
:10216000103050781038000070406010502000008F
:10217000304060505060000070501020202000005F
:10218000205020505020000030505030106000008F
:1021900000002000002000000000100010200000BF
:1021A000001020C02010000000700070000000002F
:1021B0000040201820400000205010200020000087
:1021C00030484858484038006020507088D8000097
:1021D000F048704848F00000705040404030000027
:1021E000F048484848F00000F848604048F80000CF
:1021F000F848604040E00000704040585030000017
:10220000E848784848E8000070202020207000004E
:102210003810105050200000D850607050D8000086
:10222000E040404048F80000D8D8D8A888D800003E
:10223000D868685858E800003048484848300000DE
:10224000F048487040E000003048484848301800E6
:10225000F048487048E800007050201050700000AE
:10226000F8A8202020700000D848484848300000D6
:10227000D888485050300000D888A8A8A85000003E
:10228000D850202050D80000D8885020207000005E
:10229000784810204878000030202020202030008E
:1022A000804040202020100060202020202060005E
:1022B000202050000000000000000000000000F896
:1022C00020100000000000000000301070780000B6
:1022D000C040704848F000000000704040700000AE
:1022E000180838484838000000007070403000007E
:1022F0001020702020700000000038484838083056
:10230000C040704848E800002000602020700000B5
:102310002000701010101070C040587050D800008D
:1023200060202020207000000000D0A8A8A8000095
:102330000000F04848C80000000030484830000065
:102340000000F048487040E000003848483808185D
:102350000000782020700000000030201060000095
:102360000040F040483000000000D84848380000E5
:102370000000C848303000000000D8A8A850000075
:1023800000004830304800000000D8505020206045
:1023900000007850287800001020206020201000D5
:1023A000202020202020200040202030202040001D
:1023B000000000285000000000F5E0700268914223
:1023C00003D343689A18914202D380680028F5D15C
:1023D0007047DFF82407016891B9DFF820274FF430
:1023E000803181604FF4805141604FF0FF31C16016
:1023F000016104214161C2F8BC11DFF804170160DA
:102400000120704701F1080313F0070305D001F123
:102410000803C3F1080303F007035918D21A8161B6
:10242000C26042F001034B60511828234B60DFF873
:10243000C8160969C16170472DE9F84F044601F1DA
:10244000080010F0070005D001F10800C0F10800F5
:1024500000F0070000EB010B02F1080010F007008C
:1024600005D002F10800C0F1080000F0070086184E
:10247000A6EB0B00A0EB030803EB0B0743F00300F4
:10248000CBF80400B74228BF01F0F6F93079C00755
:1024900058BF01F0F1F9B8F1100F38BF01F0ECF9B5
:1024A000A069864207D1E0684044E060A76140F03F
:1024B000010078605AE16069864208D1A068404412
:1024C000A060676140F001017960C0514EE1706821
:1024D00000F00301012940F0AD80C0084FEAC009B7
:1024E00020283BD2D6F808A0F5680090AE4208BF7D
:1024F00001F0C2F9564508BF01F0BEF970680099B5
:10250000C008C000B0EBC10F18BF01F0B5F90098CA
:1025100004EBC00000F128018A4508D021698A45F2
:10252000C0F08480DAF80C10B14240F07F8055454D
:1025300006D1009A2068012191408843206077E00D
:102540002830854205D0206985426FD3A868B04203
:102550006CD1CAF80C50C5F808A069E0F568D6F847
:1025600018A0B5420CD0B0682169884223D3C16855
:10257000B14204BFA968B1421DD1C560A8601CE08A
:1025800006F11400056835B906F110000568A5B11B
:1025900001E00846056805F114010A68002A02BF37
:1025A00005F110010A68002AF3D12169884202D39B
:1025B0000021016001E001F05FF9BAF1000F37D0AE
:1025C000F06904EB800000F5987001688E4209D133
:1025D0000560280014D1F2696068012191408843A8
:1025E000606025E02069824508D3DAF81000B04227
:1025F00014BFCAF81450CAF8105001E001F03CF9B9
:10260000B5B12069854211D3C5F818A0316929B147
:10261000814226BF29618D6101F02EF9706938B1C0
:102620002169884202D36861856101E001F024F9E3
:102630004E44C84470684008400070604FEAD805B6
:1026400048F00100786048F80780202D21D204EB83
:10265000C50000F12806B146B8F1100F38BF01F0EF
:102660000BF9206820FA05F1C90704D40121A9401B
:102670000843206006E0B068216988422CBF81468B
:1026800001F0FAF8B760C9F80C70C7F80890FE605E
:102690006CE05FEA182008BF002123D0B0F5803F2E
:1026A00028BF1F211ED2A0F58071090C01F008017E
:1026B0008840A0F58052120C02F004029040A0F570
:1026C00080431B0CC1F10E0103F00203891AC91AE1
:1026D000984001EBD030C11D28FA01F101F0010151
:1026E00001EB4001F96100227A613A6104EB81005B
:1026F000626822FA01F300F59870DB0706D4012323
:1027000003FA01F11143616007601CE01F290068B2
:102710000EBF00214908C1F1190108FA01F100E0DA
:1027200010464268D208D200424510D0CA0F00EBD2
:10273000820202F1100349001A68002AF0D12169CF
:102740008B4211D31F60B861FF60BF600EE0226949
:102750008168904228BF914206D3CF608760B960FC
:10276000F8600020B86101E001F086F80BF1080084
:10277000BDE8F28F2DE9F04F0546DFF87C030068D5
:1027800083B0884608B9FFF724FEDFF86C03806841
:1027900000EB08012F31401E21EA0000804580F047
:1027A000A881D5F8B81141B1D5F8B021801882427E
:1027B00080F09F818142C0F09C8101F071F8002877
:1027C0001EBF0446076814F1010F00F09281D5F88E
:1027D000B0013818C5F8B001D5F8B411814238BF3E
:1027E0000146C5F8B411A86988BB286908B18442BC
:1027F00000D22C61C5F8C041C5F8C4710020C5F8ED
:10280000CC0105F12801BC48006868624FF0FF3038
:1028100028620020C960896001F10802801CD26032
:10282000103192602028F5D3B448854203D1A7F136
:102830002802214625E055F8040CC00805EBC0002D
:10284000A0F108013819401AA0F1280219E005F595
:10285000E071084600E08068B8B142680368D218A9
:102860009442F8D1027B12070FD4AA699A420CD382
:10287000466833449A4208D2B9194160E868A969A8
:102880003A182846FFF7BEFD1EE12869844238BF8A
:102890002C610846391900E0806880B102688A42DC
:1028A000FAD1017B09070AD40460434641687918CC
:1028B00041602846214603B0BDE8F04FBCE5AE6953
:1028C00031462846FFF778FD4168006808180190F6
:1028D0002F3800F1080111F0070105D000F10801BF
:1028E000C1F1080101F00701081806F11001884242
:1028F00034BF00960090009800F1080900F1180A12
:1029000004F108014FF0000BA7F1280011F00701B6
:1029100005D004F10801C1F1080101F007010A190D
:10292000401AAA61E86040F0010151608018282136
:10293000416071480069E86119F0070018BF00F0B4
:102940009BFF00991B20486005F5E070B0E80E1071
:10295000A9E80E10C5F8C041C5F8C471A9F110016D
:10296000C5F8CCB1C5F8C811019800E08A46072225
:10297000CAF804200AF104010A1D0BF1010B82427E
:10298000F4D3BBF1020FB8BF00F076FF0098B0425D
:1029900000F09A80801B81194FEAD0094A685208DA
:1029A00052004A6040F0010171608051B9F1200F7E
:1029B0001FD205EBC90101F128042746102838BFB2
:1029C00000F05AFF286820FA09F1C90705D401214F
:1029D00001FA09F10843286006E0A06829698842E5
:1029E0002CBF074600F048FFA660FE60B760F460A9
:1029F0006AE0010A08BF002223D0B1F5803F28BF5A
:102A00001F221ED2A1F58072120C02F00802914022
:102A1000A1F580531B0C03F004039940A1F58044F9
:102A2000240CC2F10E0204F00204D21A121BA140BF
:102A300002EBD131CA1D20FA02F202F0010202EBD0
:102A40004102F26100237361336105EB82016B681F
:102A500023FA02F401F59871E40705D401209040AF
:102A6000184368600E601CE01F2A09680EBF002230
:102A70005208C2F1190200FA02F200E019464B684E
:102A8000DB08DB00834210D0D30F01EB830303F19B
:102A9000100452002368002BF0D12869844211D31E
:102AA0002660B161F660B6600EE02A6988689142DE
:102AB00028BF904206D3C6608E60B060F1600020EF
:102AC000B06101E000F0D8FEE868804511D2A0EBCB
:102AD0000800E86040F00100A96908EB0102AA6162
:102AE000506048F00300486003B001F10800BDE801
:102AF000F08F002000F030BC540D0020880A002028
:102B00006859883C2DE9F84F044688460026C8F1EC
:102B1000000B5FEA182008BF002123D0B0F5803FEA
:102B200028BF1F211ED2A0F58071090C01F00801F9
:102B30008840A0F58052120C02F004029040A0F5EB
:102B400080431B0CC1F10E0103F00203891AC91A5C
:102B5000984001EBD030C11D28FA01F101F00101CC
:102B600001EB400104EB8100D0F8300130B31F29A4
:102B70000EBF00224A08C2F1190208FA02F200232D
:102B800000E052004568ED08ED00A5EB08055D4545
:102B900003D206465FEA050B0CD045694FEAD27EA8
:102BA00000EB8E00002D00691CBF85422B460028DB
:102BB000E7D1184600283AD1002E3AD101208840AA
:102BC0004000414208436168084000F05F81414293
:102BD0000840411E080B00F0100021FA00F25109D4
:102BE00001F00801CA40930803F00403DA405508D5
:102BF00005F002050818EA401818C2F3400E2844F0
:102C0000704422FA0EF1081804EB8000D0F830016D
:102C10000DE008464168C908C900A1EB0801594503
:102C20003CBF8B46064601690029F2D14069002865
:102C3000F0D1002E00F02A81A068A0EB08008345A7
:102C400080F0248120698642C0F01E817068C0082F
:102C500008EB0B09C00008EB0605484518BF00F05B
:102C60000BFEAE4280F01081F768D6F818A0B7428C
:102C70000CD0B0682169884223D3C168B14204BF37
:102C8000B968B1421DD1C760B8601CE006F11400FC
:102C9000076837B906F110000768A7B101E00846D8
:102CA000076807F114010A68002A02BF07F1100142
:102CB0000A68002AF3D12169884202D30021016009
:102CC00001E000F0D9FDBAF1000F38D0F06904EB53
:102CD000800000F5987001688E4209D107603800C5
:102CE00014D1F2696068012191408843606026E058
:102CF0002069824508D3DAF81000B04214BFCAF840
:102D00001470CAF8107001E000F0B6FDBFB1206980
:102D1000874212D3C7F818A0306930B121698842C0
:102D200026BF3861876100F0A7FD706938B121695D
:102D3000884202D37861876101E000F09DFDBBF11C
:102D4000100F09D249F00300706009EB06004168DA
:102D500041F00101416096E048F0030070604BF0E3
:102D6000010068604BF805B04FEADB0020281DD257
:102D700004EBC00101F12807216821FA00F2BB46EB
:102D8000D20705D4012202FA00F00843206006E0D1
:102D9000B868216988422CBF834600F06DFDBD6094
:102DA000CBF80C50C5F808B0EF606CE05FEA1B2070
:102DB00008BF002123D0B0F5803F28BF1F211ED2BD
:102DC000A0F58071090C01F008018840A0F580523F
:102DD000120C02F004029040A0F580431B0CC1F1DC
:102DE0000E0103F00203891AC91A984001EBD03092
:102DF000C11D2BFA01F101F0010101EB4001E96174
:102E000000226A612A6104EB8100626822FA01F300
:102E100000F59870DB0706D4012303FA01F1114392
:102E2000616005601CE01F2900680EBF0021490891
:102E3000C1F119010BFA01F100E010464268D20815
:102E4000D2005A4510D0CA0F00EB820202F11003E3
:102E500049001A68002AF0D121698B4211D31D6004
:102E6000A861ED60AD600EE022698168904228BFE4
:102E7000914206D3CD608560A960E8600020A8611A
:102E800001E000F0F9FC07E100F0F6FC01E12DE9BA
:102E9000F84F04468846606841420840411E080BCE
:102EA00000F01000C1404A0902F00802D1408B082E
:102EB00003F00403D9404D0805F002051018E9405D
:102EC0001818C1F3400628443018F140081804EBE4
:102ED0008000D0F830014168C908C9000646A1EB5E
:102EE000080A09E008464168C908C900A1EB0801C1
:102EF00051453CBF8A46064601690029F2D1406926
:102F00000028F0D120698642C0F0C1807068C008F6
:102F100008EB0A09C00008EB060B484518BF00F093
:102F2000ABFC5E4580F0B380F768B569B7420CD062
:102F3000B0682169884223D3C168B14204BFB9682F
:102F4000B1421DD1C760B8601CE006F114000768EB
:102F500037B906F110000768A7B101E00846076815
:102F600007F114010A68002A02BF07F110010A687C
:102F7000002AF3D12169884202D30021016001E0D7
:102F800000F07AFC002D34D0F06904EB800000F5ED
:102F9000987001688E4209D10760380011D1F2693A
:102FA0006068012191408843606022E02069854289
:102FB00005D32869B04214BF6F612F6101E000F0B2
:102FC0005BFCB7B12069874211D3BD61306930B174
:102FD0002169884226BF3861876100F04DFC706925
:102FE00038B12169884202D37861876101E000F03D
:102FF00043FCBAF1100F09D249F00300706009EBED
:103000000600416841F0010141603FE048F00300E3
:1030100070604AF00100CBF804004AF80BA0D4F825
:1030200008804FEAD805202D28BF00F025FCB8F114
:10303000000F27D0D4F81490009504EBC50000F1E0
:1030400028052F46B8F1100F38BF00F015FC206896
:10305000009920FA01F1C90705D4009A0121914095
:103060000843206006E0A868216988422CBF074613
:1030700000F002FCC5F80890C7F80C90C9F8087079
:10308000C9F80C50C4F808A0C4F814B004E000F06B
:10309000F3FB0020BDE8F28F06F10800BDE8F28FD7
:1030A0002DE9F04F83B00546C046C046DFF8C04763
:1030B000F52D80F006810B2D31BF102705F10B0097
:1030C000C008C7002068FE08F04010F0030F42D08F
:1030D000C04300F00100861904EBC60000F1280887
:1030E000F700D8F808506868C008C000B84218BF98
:1030F00000F0C2FBD5F80890454508BF00F0BCFBC6
:103100004D4508BF00F0B8FB6868C008C000B84271
:1031100018BF00F0B1FBC84505D120680121B140BE
:10312000884320600DE02069814508D3D9F80C0060
:10313000A84204D1C8F80890C9F80C8001E000F05A
:103140009BFB47F00300686078190835416841F03F
:1031500001014160FDE0A168B94280F0C48000280F
:1031600000F0A680012505FA06F149004A42B04068
:103170001143084041420840411E080B00F0100076
:10318000C1404A0902F00802D1408B0803F0040351
:10319000D9404E0806F002061018F1401818C1F385
:1031A00040083018404421FA08F101EB000804EB14
:1031B000C80000F128094FEAC80AD9F80860706809
:1031C000C008C000504518BF00F056FBD6F808B044
:1031D0004E4508BF00F050FB5E4508BF00F04CFBB9
:1031E0007068C008C000504518BF00F045FBD945C5
:1031F00005D1206805FA08F1884320600DE02069B8
:10320000834508D3DBF80C00B04204D1C9F808B0FC
:10321000CBF80C9001E000F02FFB47F00300AAEB85
:1032200007087060BF1948F00100786048F807800F
:10323000D4F808904FEAD90ABAF1200F28BF00F05D
:103240001BFBB9F1000F2DD060690090CDF804A0F0
:1032500004EBCA0000F1280AD346B9F1100F38BFB9
:1032600000F00AFB2068019920FA01F1C90705D492
:10327000019905FA01F10843206007E0DAF8080037
:10328000216988422CBF834600F0F6FA0098CAF8FC
:1032900008000098CBF80C000098C0F808B000981F
:1032A000C0F80CA0C4F80880676106F1080550E07A
:1032B0006068C0B339462046FFF7E9FD050012D02B
:1032C00047E015F1400F28BF4FF0FF370BD205F153
:1032D0000B00C008C700606828B139462046FFF7D8
:1032E00011FC050035D1A168B9421CD3CA1B606925
:1032F000102A0AD339186161A26042F001034B60C1
:10330000525047F0030141600AE00022A26062616E
:1033100041F00302426009184A6842F001024A6023
:1033200000F1080515E0E06887420DD2C01BA169D5
:10333000E0607A18A26140F00100506001F10805D8
:1033400047F00300486004E039462046FFF712FAD0
:103350000546C046C046284603B0BDE8F08F00B918
:1033600070472DE9F047A0F10804C046C046DFF8D9
:10337000005528698442C0F07582616801F003023B
:10338000012A00F06F82CA084FEAC20808EB04095C
:10339000CA0737D4226811F0030F00F0658251424A
:1033A0000C1990448442C0F05D8269698C4200F03F
:1033B000D880D608202E70D2D4F80CA0A768544527
:1033C00008BF00F059FABC4208BF00F055FA606827
:1033D000C008C000B0EBC60F18BF00F04DFA05EBF7
:1033E000C60000F128018F4205D029698F4251D3D0
:1033F000F968A1424ED1BA453DD128680121B140BA
:10340000884328604C4580F02D82D9F80400C1071C
:1034100040F12882810700F17A81A969894540F04D
:10342000B580E868AC614044E86040F0010161604B
:1034300069698C4202D100216961A960E969814210
:1034400080F01282DFF82C04006808B9FEF7C1FF93
:10345000A969002900F00882E868292824BF2846C5
:10346000FEF7AAFFE869E968884280F0FD814FF025
:10347000FF30E861F8E12830824506D028698245AE
:1034800008D3DAF80800A04204D1C7F80CA0CAF8A3
:103490000870B7E700F0F0F9B4E7E768A669A7425B
:1034A0000BD0A168814222D3C868A04204BFB8688B
:1034B000A0421CD1CF60B9601BE004F114010F6879
:1034C00037B904F110010F689FB101E011460F6890
:1034D00007F114021368002B02BF07F110021368F2
:1034E000002BF3D1814202D30020086001E000F0FC
:1034F000C3F9002E86D0E06905EB800000F59870D6
:1035000001688C4209D10760380011D1E26968680E
:10351000012191408843686074E72869864205D399
:103520003069A04214BF7761376101E000F0A4F96F
:10353000002F3FF467AF28698742ABD3BE61216992
:1035400029B1814226BF39618F6100F095F9606928
:1035500000283FF457AF296988429BD3786187617F
:1035600050E799F8040000F0030003287FF44AAF05
:10357000C5F80880D9F8040040084000C9F80400E4
:1035800048F00100606048F804806DE16969894590
:1035900008D1A8686C614044A86040F001016160F6
:1035A000005161E1C008C0004FEAD00A8044BAF17E
:1035B000200F36D2D9F80C70D9F80860B94508BF89
:1035C00000F05AF9B14508BF00F056F9D9F80400E7
:1035D000C008C000B0EBCA0F18BF00F04DF905EBF2
:1035E000CA0000F128018E4206D029698E42C0F03F
:1035F0008180F16849457DD1B74206D12868012113
:1036000001FA0AF18843286076E02830874205D025
:10361000286987426ED3B86848456BD1F760BE60B1
:103620006AE0D9F80C70D9F818604F450DD0D9F878
:1036300008002969884223D3C168494504BFB96895
:1036400049451DD1C760B8601CE009F11400076846
:1036500037B909F110000768A7B101E0084607680B
:1036600007F114010A68002A02BF07F110010A6875
:10367000002AF3D12969884202D30021016001E0C8
:1036800000F0FAF8002E37D0D9F81C0005EB8000C6
:1036900000F59870016889450AD10760380012D199
:1036A000D9F81C206868012191408843686023E0B4
:1036B0002869864205D33069484514BF7761376170
:1036C00001E000F0D9F8BFB12869874212D3BE618A
:1036D000D9F8101029B1814226BF39618F6100F0FD
:1036E000CBF8D9F8140038B12969884202D378613F
:1036F000876101E000F0C0F848F00100606048F820
:103700000480686984420BD1C5F80880ACE04008A9
:103710004000C9F8040048F00100606048F80480E7
:103720004FEAD807202F22D205EBC70000F1280965
:103730004E46B8F1100F38BF00F09EF8286820FA06
:1037400007F1C90704D40121B9400843286007E004
:10375000D9F80800296988422CBF064600F08CF889
:10376000C9F80840F460A660C4F80C907CE05FEAF9
:10377000182008BF002123D0B0F5803F28BF1F21AB
:103780001ED2A0F58071090C01F008018840A0F557
:103790008052120C02F004029040A0F580431B0CF2
:1037A000C1F10E0103F00203891AC91A984001EB16
:1037B000D030C11D28FA01F101F0010101EB4001F7
:1037C000E16100226261226105EB81006A6822FAF0
:1037D00001F300F59870DB0706D4012303FA01F129
:1037E0001143696004601CE01F2900680EBF0021BE
:1037F0004908C1F1190108FA01F100E010464268D8
:10380000D208D200424510D0CA0F00EB820202F16A
:10381000100349001A68002AF0D129698B4211D39C
:103820001C60A061E460A4600EE02A698168904297
:1038300028BF914206D3CC608460A160E060002084
:10384000A06101E000F018F8286A401E28620BD140
:10385000D5F8C80100E080680028FCD14FF0FF30A7
:10386000286201E000F008F8C046C046BDE8F087D5
:10387000880A0020540D0020012000F027B850F8DD
:10388000041B61B150F8042BD30744BFA9F1010315
:103890009A18002342F8043B091FFAD1EFE770475A
:1038A0000749086808B1002070470648C008C000F2
:1038B00008600549C908C900091A0160704700BFBE
:1038C000840D0020EF150020E817002080B5C046C9
:1038D000C046024A11001820ABBEFBE726000200DA
:1038E00003E011F8013B00F8013B13465A1E002B80
:1038F000F7D17047130003D00A46194601F0E8B922
:103900007047F0B5002200230C24DFF8205B04FB95
:1039100003F677598FB1D0F800C267450ED17619FA
:1039200000F50077D6F804C0D7F808E0F44502BFE8
:103930003689FF88BE4201D103E001225B1C0C2BBB
:10394000E5D30C2B04D162B902290AD01220F0BDB4
:1039500029B904FB03504089B0F5807F01D11020C4
:10396000F0BD0020F0BDF0B5D0F80062DFF8BC4A31
:1039700000220C2300F5007503FB02F73859B04212
:1039800001BF3F197868D5F808E0704503D13F8939
:10399000E888874202D0521C0C2AEDD30C2A13D19E
:1039A000002203FB0240006810B1521C0C2AF8D31D
:1039B0000C2A0ED003FB02F006510019AE684660D7
:1039C000ED8805810025458103FB0240438929B12B
:1039D0000BB10020F0BD4FF4807100E0591C418113
:1039E000501CF0BD401E0C2815D20C214843DFF8B6
:1039F0003C1A42185389B3F5807F18BF002B02D1BF
:103A00000023538103E05B1E53819BB20BB900225C
:103A10004250002070470220704710B50021DFF8A7
:103A20000C2A0C234B439C58844204BF00249C5016
:103A3000491C0C29F5D310BDF8B5044604F2012544
:103A4000E87800B394F8010204F5067701237E6953
:103A5000324601F093F808B10120F2BDE870B86871
:103A6000D4F81812301A88420DD2AD7809E0D4F893
:103A70001802861994F801020123324601F07EF8FB
:103A80006D1E022DF3D20020F2BD38B504460D465E
:103A9000D4F82C0285420FD02046FFF7CDFF38B96D
:103AA00094F8010201232A46214601F05CF908B18D
:103AB000012032BDC4F82C52002032BD38B5044676
:103AC000FFF7BAFF05004FD194F80002032804BFA6
:103AD00094F8050201283FD101F0D7F801F0E2F88F
:103AE00021465220207060706120A07001F0E2F841
:103AF000D4F8100284F8E801D4F810020004000E93
:103B000084F8E901D4F81002000C84F8EA01D4F832
:103B10001002000E84F8EB01D4F80C0284F8EC01DA
:103B2000D4F80C020004000E84F8ED01D4F80C0265
:103B3000000C84F8EE01D4F80C02000E84F8EF01BA
:103B4000D4F81C02421CC4F82C2294F8010201F0A3
:103B500011F9002084F80502002294F801020021E6
:103B600001F018F900B10125284632BDD0F8142221
:103B7000891E921E914201D30020704790F80222C4
:103B8000D0F8280202FB010070472DE9F0410D46F4
:103B90008046022D04D308F500767069854201D372
:103BA00001204CE098F80002012804D045D30328F6
:103BB0002CD01CD341E0306A05EB550400F041F8ED
:103BC00000283AD1E005C00D641C10F80870306A76
:103BD00000F037F888BBE005C00D10F8080047EA90
:103BE0000027E8075ABF3805000D380927E0306A7A
:103BF00000EB152100F099F8F8B96800C00508EB52
:103C0000D0504178007840EA012018E0306A00EB9B
:103C1000D51100F08AF880B9A800C00508EBD05093
:103C20008278C178120442EA01614278007841EA60
:103C3000022108430001000901E04FF0FF30BDE818
:103C4000F08100EB542140461FE72DE9F0410C467E
:103C500080461546022C04D308F50076706984422C
:103C600001D302205DE098F80002012804D055D36A
:103C700003283BD02BD351E0306A04EB540700F00B
:103C800052F800284BD1F80508EBD05114F001048C
:103C90001DBF087800F00F0040EA051028460870A4
:103CA0007F1C01203071306A00F03DF8002836D1C9
:103CB000F90508EBD1510CB12A0906E00A782B0A64
:103CC00002F0F00203F00F031A430A7027E0306A93
:103CD00000EB142100F029F808BB6100C90508EBCE
:103CE000D1510D702D042A0E4A7018E0306A00EB95
:103CF000D41100F01AF890B9A100C90508EBD15110
:103D0000CA78120602F0704215432A040D70120E92
:103D10004A702A0C8A702A0ECA7000E00220012123
:103D20003171BDE8F08100EB57214046ADE62DE949
:103D3000F0410C468046022C0DD308F504756868E6
:103D4000844208D2002721464046FFF71EFF0600A6
:103D500021D0012E01D102271DE016F1010F01D162
:103D6000012718E0002221464046FFF76EFF0700BA
:103D700011D1D8F8100210F1010F08D0401CC8F87A
:103D8000100298F8050240F0010088F80502344658
:103D900068688442D7D33846BDE8F0812DE9F04108
:103DA00080460E0008F5037507D1D8F80C4214B10F
:103DB000A86884420AD3012408E0FFF7E6FE02283F
:103DC00032BF0120A968884239D334462746A86803
:103DD0007F1C874202D30227022C28D33946404653
:103DE000FFF7D3FEE0B96FF0704239464046FFF767
:103DF0002CFF28B92EB13A4631464046FFF725FF41
:103E0000B8B9C8F80C72686810F1010F16D0401EDE
:103E1000686098F8050240F0010088F805020DE09E
:103E200010F1010F18BF012809D0A742CFD10020FF
:103E300005E001280CBF4FF0FF3701273846BDE8E9
:103E4000F081D0F82422D0F8000290F80202490A4A
:103E5000121DB1FBF0F001E0401A121D52F8041BD4
:103E600009B9002070478842F6D2116808187047D7
:103E7000F8B5044604F500760D46F580B1680129D1
:103E80002DD0D4F8000200F500725369994226D271
:103E900021B990F80002032801D1516A31B90020FC
:103EA000F060108985421AD2506A1DE090780701AF
:103EB00000E0ED1BD4F80002ADB2BD4211D3FFF714
:103EC00064FE014611F1010F01D10120F2BD02296A
:103ED00005D3D4F80002D0F814028142E9D30220BD
:103EE000F2BDF160FFF742FE00EB1510306105F006
:103EF0000F00D4F8001201EB401070610020F2BDF9
:103F00002DE9F041804608F500750C46E888461C0E
:103F1000B6B2002E1CBF2869002822D016F00F0F61
:103F20006AD1401C2861E968D8F8000221B9B0F8CC
:103F30000802864260DB14E090F80222521E12EA68
:103F4000161F59D1FFF721FE0746022F14D317F190
:103F5000010F45D0D8F80002D0F814128F4246D392
:103F60000CB9042051E0E968FFF718FF070008BF0B
:103F700007204AD0012F01D1022046E017F1010F9E
:103F80002ED0D8F80002FFF757FD48BBD8F8000242
:103F90004FF400720021FFF7ADFCD8F8000239465B
:103FA000FFF7E4FDD8F80012C1F82C02002407E066
:103FB000D8F80002D0F82C12491CC0F82C12641C4E
:103FC000D8F8000290F80212E4B28C420AD2012121
:103FD00080F80412D8F80002FFF72EFD0028E7D081
:103FE000012012E0D0F82C12091BC0F82C12EF604F
:103FF000394600F0D8FD2861EE8006F00F00D8F8B1
:10400000001201EB401068610020BDE8F081CA7E1B
:104010008B7E90F8000243EA0222032805D1487DF6
:10402000097D41EA002042EA00421046704781764D
:104030000A04120EC276090C0175090A417570470F
:1040400070B505460E46042005F500742169E9B1F6
:10405000D5F80002FFF719FDC0B961690A780AB9FD
:10406000042014E0C97A01F03F01E52A1CBF2E2A82
:104070000F2905D008290CBF01210021B14208D029
:1040800000212846FFF73CFF0028DFD008B10021BF
:10409000216170BDF8B504460021FFF7E9FE050077
:1040A00004F5007613D1002700F063FD05000ED162
:1040B00070690078E5281CBF0028002702D17F1C0A
:1040C000012F07D0012100F078F90500ECD0042D74
:1040D00008BF072595B900F04CFD05000ED17069A9
:1040E00020220021FFF706FCB16970690B22FFF75F
:1040F000F7FBD4F80012012081F804022846F2BD33
:104100002DE9F8430C46256800E06D1C29782F291D
:1041100018BF5C29F9D0D0F818620B222021304654
:10412000FFF7E8FB00200022804608210FF2C40CB4
:104130000FF2D00E04E0082941D108200B213A46A5
:1041400018F80530970008F10108FFB2212B03DBB6
:104150002F2B18BF5C2B06D145442560212BB4BF03
:10416000042300232AE02E2BE5D0884227D2802B7F
:1041700004DB734442F0030213F8803CE14601E0A3
:1041800009F1010999F80070002F18BF9F42F7D17B
:10419000002F14D1A3F141071A2F03D242F00202DB
:1041A000D2B208E0A3F161071A2F04D242F0010253
:1041B000203BD2B2DBB28355401CC1E708B90620D0
:1041C00015E03078E52804BF05203070082908BFC5
:1041D0003A4602F00300012808BF43F0100302F042
:1041E0000C00042808BF43F00803F3720020BDE868
:1041F000F2830000222A2B2C3A3B3C3D3E3F5B5D84
:104200007C7F0000808182838485868788898A8B71
:104210008C8D8E8F90919293949596979899AD9B53
:104220008C9DAE9FA021A2A3A4A5A6A7A8A9AAABD6
:10423000ACADAEAFB0B1B2B3B4B5B6B7B8B9BABB46
:10424000BCBDBEBFC0C1C2C3C4C5C6C7C8C9CACB36
:10425000CCCDCECFD0D1D2D3D4D5D6D7D8D9DADB26
:10426000DCDDDEDFC0C1C2C3C4C5C6C7C8C9CACB96
:10427000CCCDCECFD0D1D2D3D4D5D6F7D8D9DADBE6
:10428000DCDDDE9F30B5D0F8103201F209024BB30D
:10429000D0F8140200231C5C5B1C202C09D0052CD8
:1042A00008BFE524092B04BF2E2502F8015B02F8A4
:1042B000014B0B2BEFD3C37A0B72847FC37F240493
:1042C00044EA0363447F43EA0423047F23430B60EF
:1042D000047E437E44EA03238B80C37D807D40EAD5
:1042E0000320C8800020107030BD10B54FF0FF32A1
:1042F000036811466BB119783039092908D25C7806
:104300003A2C05D19B1C0360012902DB114600E019
:104310000021084610BDF2B5044608782F2812BFC8
:104320005C28481C009004F500750020A8600098E7
:104330000078202809D200F07CFC00216961F2BDE0
:10434000D4F80002FFF763FEA86000A92046FFF73B
:10435000D7FE00282FD100F06CFCE0B9296900F0ED
:1043600009FCC0B969690A780AB9042013E0CA7A5D
:1043700012070CD4AB690B22002617467A1E2FB108
:1043800011F8016B13F8017BF61BF6D01EB100F09B
:1043900013F80028E2D0A969C97A01F0040120B11C
:1043A000042808BF002906D104E021B96969C87A48
:1043B000C006C5D40520F2BD00212046A0E538B5D1
:1043C000044604F2FE150020A8714FF0FF30C4F837
:1043D0002C022046FFF759FB08B1032032BD687854
:1043E00094F8FE1141EA00204AF65521884201D096
:1043F000022032BD04F23601DFF84C054B788A7892
:104400001B0243EA024294F836301A43824208D033
:104410008A7F4B7F097F1B0243EA0242114381429C
:1044200001D1002032BD012032BD0000600C00200F
:104430002DE9F043054685B0002028601446084663
:10444000FFF753FF070048BF0B2006D4DFF8FC84BA
:1044500008EB870046680EB90C2060E12E6096F8E4
:10446000000250B196F8010200F077FCC10704D4B5
:10447000002C01D0400710D450E1002086F8000243
:1044800086F8017296F8010200F05AFCC10748BF95
:10449000032003D41CB1400701D50A203FE10027C7
:1044A00000213046FFF78BFF0446012C29D1002064
:1044B00000AD06EB001101F2BE110A7952B18B7A00
:1044C000CA7A1B0443EA02624B7A097A42EA03225F
:1044D000114300E0002145F82010401C0428E8D3D7
:1044E000B94655F8297027B139463046FFF767FFBE
:1044F00000E00220040004D009F10109B9F1040F21
:10450000EFD3032C08BF0120C8D0002C01BF307BA3
:10451000F17A41EA0020B0F5007F1AD1F07DB17D3B
:1045200051EA00200DD196F8261096F827000904CC
:1045300041EA006096F8251040EA012096F8241020
:104540000843C6F81802317C86F80312012918BF07
:10455000022976D14843717B86F80212002970D077
:104560004A1E11426DD1B27C737C43EA02220F23B2
:10457000A6F808221A4264D1337DF47C54EA03245D
:104580000DD196F8224096F82330240444EA0363C0
:1045900096F8214043EA042396F820401C43F37B1D
:1045A000B57B55EA03234CD0C51805EB1215AC4278
:1045B00047D3641BB4FBF1F1002942D0012440F63B
:1045C000F67E714528BF02244FF6F67E714528BF5E
:1045D0000324891CC6F81412C6F81C72D919C6F82F
:1045E0002012E919C6F82812032C12D14ABB96F8FA
:1045F0002E1096F82F00090441EA006096F82D105D
:1046000040EA012096F82C100843D6F814128900CD
:104610000EE0B2B1D6F820124018D6F81412022CCF
:104620000FBF490001EB410201F0010101EB520112
:10463000C6F8240201F2FF11D6F81802B0EB512F90
:1046400001D20D206BE04FF0FF30C6F81002C6F823
:104650000C02802086F80502032C01BF96F8310079
:1046600096F8301041EA002001284BD1791C3046E1
:10467000FFF70BFA002845D186F8050296F8FE11DF
:1046800096F8FF0141EA00204AF65521884239D1C7
:10469000B178F07800F046F8717840EA012031787E
:1046A0000843AB4988422DD196F8E61196F8E70108
:1046B00000F038F896F8E51140EA012096F8E41188
:1046C0000843A44988421DD196F8EA1196F8EB01F7
:1046D00000F028F896F8E91140EA012096F8E81170
:1046E0000843C6F8100296F8EE1196F8EF0100F0B4
:1046F00019F896F8ED1140EA012096F8EC110843FC
:10470000C6F80C0286F80042B8F80000401CA8F871
:104710000000A6F806023046FFF77FF9002005B03A
:10472000BDE8F083090441EA0060704780B50028C5
:104730001CBFD0F80012002909D091F8002232B134
:1047400001F50071B0F80402CA88824201D0092044
:1047500002BD487800F001FBC00701D5032002BD6F
:10476000002002BD73B582B01446009100A8FFF787
:10477000BCFD002848BF0B201FD4744901EB800505
:104780006E682EB13046FFF748F9002086F8000227
:10479000029808B9686009E00020029981F80002D7
:1047A00002986860029808B1012C01D0002004E052
:1047B000002203A902A8FFF73BFE04B070BD2DE95B
:1047C000F243ADF50C7D5FEA000808BF092000F058
:1047D000B6800020C8F8000202F01F0606F0FE02B4
:1047E00000F04FFA040060D100F055FA6F69040040
:1047F0000AD10FB9062407E016F0FE0118BF012107
:1048000003A8FFF77EF804461C2006426CD0002C5B
:1048100062D0042C10D100204F490C2202FB001260
:10482000126812B1401C0C28F7D30C280EBF1220BE
:1048300003A8FFF72FFC04466F6946F008069CBBEF
:10484000300737D500F0B2FA01460004B973000E04
:10485000F873080C3874080E787439460020F87222
:1048600038777877B877F8778398FFF7D0FB814669
:1048700000213846FFF7DBFB8399012081F8040211
:10488000B9F1000F12D08398D0F82C524946FFF7A7
:104890004EFA040008D18398A9F10101C0F80C1266
:1048A0002946FFF7F2F80446002C47D1300748BFED
:1048B00046F020068398D0F82C0208F5007516F013
:1048C000FE01E8612F6218BF012103A8FFF74BF832
:1048D000A862B0B9022431E01121F87A08420ED161
:1048E0007007ADD5082429E0002CDDD1F87AC10687
:1048F00048BF042422D4B107D8D5C007D6D5072491
:104900001CE0AE710020E8713946839E3046FFF707
:104910007EFB2861B97FF87F090441EA0060797F56
:1049200040EA0120397F0843E8600020A860A861C0
:104930006862C8F80062B6F80602A88020460DF545
:104940000D7DBDE8F083000046415400780D002045
:104950005252614172724161600C00202DE9F84FA2
:1049600000F0A6F8002802BF09F50074E0790028DD
:1049700040F08780A079C00758BF072040F18180B0
:10498000E068A168401AB04217D8064615E0C4F89E
:1049900018A000F085F888BF0D4600EB09012A46F3
:1049A0004046FEF79DFFA0682818A060A844DBF8E9
:1049B00000002818CBF80000761B002E60D0A168FC
:1049C000C805E6D1D9F8000290F802325B1E03EA6E
:1049D0005122D5B28DB909B9206908E0626A1AB1CD
:1049E0004846FFF72EFA02E06169FFF7CEF8022889
:1049F00006D310F1010F40D0606100F04CF808B907
:104A000002203BE005EB000A770A1CD000F03BF8DF
:104A100038BF4F1B90F80102FBB25246414600F0EE
:104A2000A2F950BBA07940060BD5A069A0EB0A0003
:104A3000B84206D24FF40072494608EB4020FEF718
:104A40004FFF7D02AFE7A2695245A0D0A079400692
:104A500008D5D9F8000200F034F870B9A07900F058
:104A6000BF00A0710123D9F8000290F8010252465C
:104A7000494600F078F9002889D00120E07100E073
:104A80000020BDE8F28FD9F8000200F201217A1966
:104A90004978914270476169D9F80002FFF766B81A
:104AA000A068C005C00DC0F5007135468E42704744
:104AB00081469B460020CBF80000164688464846B3
:104AC00034E690F801020123494600F053B970B56D
:104AD0000446FFF72BFE00284AD104F50075A9799A
:104AE0008A0645D548060ED5D4F80002AA6990F882
:104AF0000102012300F042F808B1012070BDA8793D
:104B000000F0BF00A871E96900F034F880BB2E6A9C
:104B1000F07A40F02000F072E8683077E86800042E
:104B2000000E7077E868000CB077E868000EF07748
:104B300030462969FFF77BFA00F038F9B0750104B7
:104B4000090EF175010C3176000E70760020B074FC
:104B5000F074A87900F0DF00A8710120D4F80012E9
:104B600081F80402D4F80002BDE87040FEF7A6BF49
:104B700070BD3169D4F80002FEF787BF214600F00E
:104B8000F9B810B50446FFF7A2FF58B92046FFF761
:104B9000CDFD38B9D4F82802FEF724FF10B9002162
:104BA000C4F8001210BDD8F80002FEF7DFBF72B5DE
:104BB00085B0040008BF092039D0002205A900A84B
:104BC000FFF736FC06002DD10098C4F8000204F56A
:104BD000007501A8A86120460599FFF79CFB060017
:104BE0001CD1696931B1C87AC00619D50098FFF7A0
:104BF0000EFAA8600098B0F80602A88000F019F834
:104C000006000BD1A86808B9E8610FE00021204632
:104C1000FEF7A9FEE86148B9122604E0042E01D18E
:104C2000052600E016B10020C4F80002304606B0A8
:104C300070BD00212046FFF71BB93EB504460D4666
:104C4000FFF774FDE0B915B9FFF7F3FF3EBD00A80B
:104C5000C4F8180200212046FFF7F2F9042803D116
:104C60000020C4F8100200E050B929462046FFF7A2
:104C700009FBFFF7A1FB042804BF0020C4F81002C1
:104C80003EBD8CA983A8FFF7D3BB4FF4007200216F
:104C90002046FEF72FBE83AD00A8A86103A88C991B
:104CA000FFF739BB552084F8FE010123AA2084F8C0
:104CB000FF0170474120E070722084F8E40184F81D
:104CC000E501412084F8E601612084F8E70170479E
:104CD00062F30F2262F31F42401810F0030308D062
:104CE000C91A1FD3DB0748BF00F8012D28BF20F8E1
:104CF000022D130030B414461546103928BF20E9A0
:104D00003C00FAD8490728BF20E90C0048BF40F80A
:104D1000042D890028BF20F8022D48BF00F8012D7E
:104D200030BC7047C91818BF00F8012DCB0728BF49
:104D300000F8012D70470268531C03601170704722
:104D40000146194A8B5C002033B90120885402EBDC
:104D500081004068006800477047134901EB8000FC
:104D600040684068004710B500F00BF89B68BDE84C
:104D70001040184710B500F004F8DB68BDE810409B
:104D800018470446084611461A46074B03EB8403AE
:104D90005B687047034608461146034A02EB8302EC
:104DA00052681269104700006C0D00200020704707
:104DB000F8B5044600250CB90120F2BD94F8450071
:104DC000C0B9204600F0BAFB20688068C00011D44A
:104DD00000F04FF90546012D0CD0022084F8450063
:104DE0002068816821F0405181602068816841F02D
:104DF000805181602068816801F04051B1F1805F8D
:104E000007D0042184F845100125A16C41F001016F
:104E1000A16494F84510042900F0B1808168490725
:104E200000F1AD80022184F84510B0F1A04FDFF809
:104E3000D012DFF8D022DFF8D062DFF8D0320ED007
:104E4000B04208BF4FF0A04609D0DFF8C43290420C
:104E500008BF0E4603D088420CBF1646002687685E
:104E600007F00307012F02D10068C00710D43EB13C
:104E7000B06800F00300012802D13068C00707D4F1
:104E8000986820F44030986098686668304398606D
:104E90002068DFF88062C3683340C360A06B0128DC
:104EA00014BF4FF480500020E369E66840EA4330C5
:104EB0003043A6683043666A012E08BF002B05D137
:104EC000A36A5B1E5B0443F480331843E36A012B3F
:104ED0002DD02668964218BF8E4223D1B3F5307F7D
:104EE00008BF4FF4E0731FD0B3F5807F08BF4FF4C5
:104EF000307319D0B3F5E07F08BF4FF4807313D03F
:104F0000B3F58A5F08BF4FF470730DD0B3F5845FBB
:104F100008BF4FF4A07307D0B3F5865F04D14FF4F8
:104F2000C07301E023F48053216B194308432668C2
:104F3000B16811F00C0F0AD1F168DFF8DC211140E3
:104F4000F160626BA169520042EA81310843216835
:104F5000CA681043C8602068016B09090901016330
:104F60002069012805D12068016B226A521E114375
:104F700001630020A064012084F8450003E00420C0
:104F800084F8450001252846F2BD10B5044694F882
:104F90004400012801D1022010BD00F064F801286E
:104FA00025D094F8451022290CBF3221122184F813
:104FB00045100021A1641C21226811602168B1F113
:104FC000A04F1BBFDFF840219142DFF85021DFF8EE
:104FD0005021126812F01F021EBFB1F1A04FDFF87E
:104FE0002421914203D18A6842F004028A60FFE7DB
:104FF000002184F8441010BDF8B504460D466069E0
:1050000008280CBF08260C2600F0C4FA07462068C2
:105010000168314209D115F1010FF8D025B100F036
:10502000B9FAC01B8542F2D215E0A16909B90C2179
:10503000016094F8450004281CBF94F84500352809
:1050400007D094F8450025280CBF3520152084F89A
:1050500045000020F2BD032084F84500002084F8BC
:1050600044000120F2BD012084F84400204600F0F5
:1050700007BA204600F026BA00680C210160006CD7
:10508000704770B504460E4694F84400012801D1DB
:10509000022070BD012084F84400FFF7EAFF0546B6
:1050A000012D27D0012084F84500012E2068816859
:1050B00021F08041816004D12068816841F0804105
:1050C00081602068816841F00041816000F062FAEF
:1050D00006462068806800280CD500F05BFA801B2B
:1050E0000B28F6D3042084F84500002084F84400FF
:1050F000012070BD002084F84400284670BD0000E7
:105100000005005000040050000100500003005052
:105110000007005007C0F0FFFDBFFFFF080300506D
:1051200008070050F0B50246002092F84430012BE9
:1051300001D10220F0BD012382F844301468A36835
:105140005B0700F194814E6806231F25052E0FD2C0
:10515000276B5E43B54027EA050525631468256B78
:105160004F680E687B4306FA03F32B4323633EE04C
:105170000A2E13D2761F676B16FB03F6B54027EA9B
:10518000050565631468656B4F680E687F1F17FB24
:1051900003F306FA03F32B43636328E00F2E13D2C5
:1051A0000A3EA76B16FB03F6B54027EA0505A56383
:1051B0001468A56B4F680E680A3F17FB03F306FAE5
:1051C00003F32B43A36312E00F3EE76B16FB03F6DA
:1051D000B54027EA0505E5631468E56B4F680E687E
:1051E0000F3F17FB03F306FA03F32B43E363072395
:1051F0001468A56815F00C0F46D10D680B2D13D35C
:105200000A3DA66905EB450503FA05F526EA0505FD
:10521000A5611468A5690F688E680A3F07EB470708
:10522000BE403543A56110E005EB4505666903FA0C
:1052300005F526EA05056561146865690F688E68DD
:1052400007EB4707BE403543656115684C69EE685A
:105250000F69C6F3C1067600B440DFF8DC62012FA7
:1052600006D039D3032F1DD00FD3042F27D033E01E
:105270002F6E3E402E6615682E6E0F6844EA8764D6
:1052800044F0004434432C6655E06F6E3E406E6639
:1052900015686E6E0F6844EA876444F00044344336
:1052A0006C6648E0AF6E3E40AE661568AE6E0F6845
:1052B00044EA876444F000443443AC663BE0EF6E5C
:1052C0003E40EE661568EE6E0F6844EA876444F06F
:1052D00000443443EC662EE02C6E0E6804F0F84473
:1052E000B4EB866F03D12C6E640064082C661468DE
:1052F000656E0E6805F0F845B5EB866F03D1656EF7
:105300006D006D0865661468A56E0E6805F0F845B9
:10531000B5EB866F03D1A56E6D006D08A5661468A8
:10532000E56E0E6805F0F845B5EB866F03D1E56EC6
:105330006D006D08E5661468A56805F00305012D8C
:1053400002D12568ED074ED40E680125B540CE6820
:10535000012E05D0D4F8B030AB43C4F8B0302DE006
:10536000D4F8B0603543C4F8B0500D6814680B2D04
:1053700012D3093DA66905EB4505AB4026EA0303B8
:10538000A36113689C690E688D68093E06EB4606AA
:10539000B5402C439C6111E06D1C666905EB450529
:1053A000AB4026EA0303636113685C690E688D688D
:1053B000761C06EB4606B5402C435C611368DFF8AB
:1053C0006851B3F1A04F16BFAB42DFF86841DFF878
:1053D00054410968102902D1A668360203E0112958
:1053E00003D1A668F60146D404E0122943D1A66889
:1053F000760240D4B3F1A04F0FD0AB4208BF4FF0BC
:10540000A0450AD0DFF82451DFF82461AB4208BF81
:10541000354602D0B34218BF00259E6806F0030649
:10542000012E02D11E68F60721D43DB1AE6806F008
:105430000306012E02D12D68ED0718D4102906D1DC
:10544000B3F1A04F17D1A16841F400010DE011297B
:1054500006D1B3F1A04F0ED1A16841F0807104E0F4
:10546000122908D1A16841F48001A16003E0042061
:1054700082F845000120FFE7002182F84410F0BDCA
:1054800038B504462068816801F00301012902D182
:105490000168C90714D481686FF39E1179B98168D6
:1054A00041F00101816000F075F805462068006850
:1054B000C00705D400F06EF8401B0328F6D327E0A0
:1054C000002032BD38B504462068816801F0030130
:1054D00001291BD10168C90718D5816801F00D01A8
:1054E000012912D1816841F0020181600320216805
:1054F000086000F04FF8054620688068C00705D5B1
:1055000000F048F8401B0328F6D301E0002032BD2C
:10551000042084F84500A06C40F00100A064012044
:1055200032BD000000070050000100500004005090
:10553000000500500003005000F0FF83704790F812
:105540004500704780B51B48016841F010010160BB
:10555000032000F045F80F2000F005F800F002F8F5
:10556000002002BD704710B5044600F065F94FF405
:105570007A71B0FBF1F000F06BF8002221464FF099
:10558000FF3000F03AF8002010BD0B480168491CBC
:105590000160704708480068704711B581B0FFF797
:1055A000F9FF0446FFF7F6FF0199001B8842F9D383
:1055B00013BD000000200240800D00202E4800682E
:1055C000C0F3022070470901002806D500F00F0043
:1055D0002A4A801800F8041C7047294A81547047F1
:1055E00025490A684FF6FF031A4000F0070042EA17
:1055F0000020244A10430860704770B504460E46E8
:105600001546FFF7DBFF00F00700C0F10701052991
:1056100028BF0421021D072A34BF0020C01E01221A
:1056200002FA01F1491E3140814002FA00F0401EA9
:10563000284001432046BDE87040C4E7012100F046
:105640001F029140104AFFE7400942F820107047BE
:1056500010B5401EB0F1807F01D3012010BD0B4C6E
:1056600060600F214FF0FF30FFF7ADFF0020A0601A
:1056700007202060002010BD0CED00E018ED00E0D8
:1056800000E400E00000FA0500E100E010E000E0C6
:105690002DE9F843714D704E044628680F4600F01E
:1056A000070041F28938B84250D22868C00847EA5A
:1056B000C0002860286800F00700B84219D120789F
:1056C000800705D57068A16820F0F000084370607D
:1056D0002078C00740F190806068012803D13168CC
:1056E000C1F3404104E03168022803D1C1F34061B5
:1056F00021B97FE0C1F3400100297BD000F095F88B
:105700000746606801280AD1706800F00C00042880
:1057100072D0FFF73FFFC01B4045F5D35EE0022883
:105720000AD1706800F00C00082865D0FFF732FF3E
:10573000C01B4045F5D351E0706810F00C0F5BD0F2
:10574000FFF728FFC01B4045F6D347E020788007CD
:1057500005D57068A16820F0F000084370602078DB
:10576000C0073DD56068012803D13168C1F34041CD
:1057700004E03168022803D1C1F3406121B939E066
:10578000C1F34001002935D000F04FF88146606830
:1057900001280BD1706800F00C00042820D0FFF71E
:1057A000F9FEA0EB09004045F4D317E002280BD125
:1057B000706800F00C00082812D0FFF7EBFEA0EB99
:1057C00009004045F4D309E0706810F00C0F07D0D1
:1057D000FFF7E0FEA0EB09004045F5D3032022E0EF
:1057E0002868C00847EAC0002860286800F0070061
:1057F000B84201D0012016E02078400705D5706836
:10580000E16820F4E060084370602078000706D566
:105810007068216920F4605040EAC10070600F2078
:10582000FFF7A1FE0020BDE8F2837168890840EA15
:1058300081007060FFF7AEBE80B500F074F9084AD1
:105840000FF2240312680749C2F30312D25CD0405E
:105850000860086802BD00000010024000200240FD
:105860000410024054010020000000000102030463
:1058700001020304060708092DE9F843044641F232
:1058800088382078DFF8DC52C00714D5686800F04B
:105890000C00042807D0686800F00C0008283BD1F1
:1058A0006868C00338D52868C0F3404000281CBF92
:1058B0006068012816D12078AB4E800714D568683F
:1058C00010F00C0F07D0686800F00C00082859D1C0
:1058D0006868C00356D42868C0F3400000281CBF85
:1058E0002069012840F016812078000740F180806F
:1058F000A1699E4800296DD001210160FFF74AFE91
:105900000746686AC0F34000002871D1FFF742FEE5
:10591000C01B6428F5D3FBE00020A870FFF73AFE17
:1059200006462868C0F3404028B1FFF733FE801BCD
:105930004045F6D3ECE06068A870E86AA168000909
:1059400041EA0010E862606801280DD1FFF722FEED
:1059500006462868C0F340400028ACD1FFF71AFE85
:10596000801B4045F5D3D3E0FFF714FE06462868B8
:10597000C0F3404000289ED0FFF70CFE801B40453E
:10598000F5D3C5E02069B0B101203060FFF702FE19
:1059900007462868C0F3400028B9FFF7FBFDC01B8D
:1059A0006428F6D3B4E02868616920F0F80040EA82
:1059B000C100286098E73060FFF7ECFD07462868D3
:1059C000C0F3400000288FD0FFF7E4FDC01B64281F
:1059D000F5D39DE00160FFF7DDFD0746686AC0F37F
:1059E000400028B1FFF7D6FDC01B6428F6D38FE036
:1059F000207840074CD5E869DFF8649140F080508A
:105A0000E861D9F8000040F48070C9F80000FFF7A1
:105A1000C1FD0746D9F80000C00505D4FFF7BAFD5F
:105A2000C01B6428F6D373E0286A20F005002862C2
:105A3000FFF7B0FD0746286AC0F3400028B1FFF722
:105A4000A9FDC01B4045F6D362E0286AE16820F05A
:105A5000050008432862E06801280CD1FFF79AFD91
:105A60000746286AC0F3400090B9FFF793FDC01BBA
:105A70004045F6D34CE0FFF78DFD0746286AC0F39A
:105A8000400028B1FFF786FDC01B4045F6D33FE03C
:105A9000E069002840D0696801F00C01082939D07C
:105AA000022829D100F03BF807462868C0F340607F
:105AB00028B1FFF76FFDC01B6428F6D328E0606AA9
:105AC000216A29B9696821F474110843A16A03E0C5
:105AD0006A6822F47412104308436860012000F0E1
