:020000040800F2
:100000001806002041640008CD610008CF61000897
:10001000D1610008D3610008D5610008000000002C
:10002000000000000000000000000000D761000890
:10003000D961000800000000DB610008DD610008F4
:1000400065640008696400086D6400087164000854
:100050007564000879640008896200087D640008FE
:100060008164000885640008896400088D640008C4
:100070009164000895640008996400089D64000874
:10008000A1640008A56400087F620008A964000854
:10009000AD640008B1640008B5640008B9640008E4
:1000A000BD640008C1640008C5640008C964000894
:1000B000CD640008D164000800000000D564000889
:1000C000D96400080000000000000000DD640008A2
:1000D00000000000E1640008E5640008E96400082D
:1000E000ED640008F164000800000000000000005A
:1000F0000000000000000000000000000000000000
:1001000000000000000000000000000000000000EF
:100110000000000000000000F5640008F964000819
:1001200000000000000000000000000000000000CF
:1001300000000000000000000000000000000000BF
:10014000FD64000801650008000000009F620008CF
:100150009362000805650008096500080D65000840
:10016000116500081565000800000000000000008F
:10017000000000000000000000000000000000007F
:10018000000000001965000870B50400002C01D1C2
:10019000012078E0022084F8C1000020C4F8C400E7
:1001A0000020C4F8C8000020C4F8CC000020C4F827
:1001B000D0000020C4F8D4000020C4F8D800207A71
:1001C000C0071DD52068DFF8F811884207D1DFF895
:1001D000F401006850F00050DFF8E8110860206872
:1001E0000068060036F44046206910F4404006439B
:1001F00036F44056606910F44050064320680660AB
:10020000200000F041F8207A80070AD520680068B5
:10021000060036F44076E06810F44070064320682B
:100220000660012084F8C100002084F8C00000208E
:100230000500EDB2062D25D20020EDB21C2101FBF8
:10024000054188610020EDB21C2101FB0541C86118
:100250000020EDB21C2101FB054108620020EDB237
:100260001C2101FB054148620020EDB21C2101FB6D
:10027000054188620020EDB21C2101FB05410863A5
:100280006D1CD6E7002070BD7047020092F8C000D8
:10029000012801D102201AE0012082F8C0000220CA
:1002A00082F8C1001068D0F8CC03030011F1010FEF
:1002B00004D133F0020353F0010304E033F00D03E3
:1002C00051F0020003431068C0F8CC33002070479F
:1002D00070B504000D00002601F06CFB06002068DC
:1002E000D0F88803C0030ED415F1010FF7D0002D0C
:1002F00004D001F05FFB801B8542F0D2072084F818
:10030000C100032006E0012084F8C100002084F829
:10031000C000002070BD70B504000D00160094F8F8
:10032000C100022801D1022012E0022084F8C1009D
:10033000052D04D13100200000F0DAFB04E032008A
:100340002900200000F0EAFB012084F8C100002011
:1003500070BD10B4020092F8C000012801D1022043
:100360002CE0012082F8C000022082F8C10005299B
:1003700006D11068C06850F010001368D8600DE016
:100380008020136800FB0130D0F88C0050F0100082
:100390008023146803FB0143C3F88C0010680068D5
:1003A000DFF8243053F82130184313681860012017
:1003B00082F8C100002082F8C000002010BC704705
:1003C00000740140181002407800002010B40200B0
:1003D00092F8C100022801D1022035E092F8C00055
:1003E000012801D102202FE0012082F8C000022064
:1003F00082F8C1001068D0F8A003030033F00203B4
:100400000868034333F03C034868034333F47073D4
:100410008868034333F48063C86803430869146839
:10042000C4F8A40348691468C4F8A8038869146868
:10043000C4F8AC031068C0F8A033012082F8C100F2
:10044000002082F8C000002010BC704770B5040086
:100450000D00160094F8C100022801D1022017E017
:1004600094F8C000012801D1022011E0012084F895
:10047000C000022084F8C10032002900200000F0F2
:100480001AFD012084F8C100002084F8C00000207B
:1004900070BD30B4030093F8C100022801D10220DE
:1004A00051E093F8C000012801D102204BE0012067
:1004B00083F8C000022083F8C1001868D0F88003D8
:1004C00004000800012806D002280FD0042819D003
:1004D000082823D02DE034F4E024106810F4E02044
:1004E000044350681D68C5F8BC0322E034F460146E
:1004F0001068C00010F46010044350681D68C5F80F
:10050000C00316E034F0E0741068800110F0E07071
:10051000044350681D68C5F8C4030AE034F0606401
:100520001068400210F06060044350681D68C5F810
:10053000C8031868C0F88043012083F8C100002078
:1005400083F8C000002030BC704770B504000D0077
:10055000160094F8C100022801D102203BE094F873
:10056000C000012801D1022035E0012084F8C0003C
:10057000022084F8C100052D04D13100200000F0D4
:10058000F3FA04E032002900200000F01DFB30687F
:100590001C2101FB0541086270681C2101FB05411B
:1005A0004862B0681C2101FB05418862F0681C218B
:1005B00001FB0541C86230691C2101FB054108634C
:1005C0002900200000F0E8FD012084F8C10000208F
:1005D00084F8C000002070BD30B4030093F8C1005F
:1005E000022801D1022035E093F8C000012801D192
:1005F00002202FE0012083F8C000022083F8C10010
:1006000080201D6800FB0150D0F8B8000400DFF81E
:10061000780404401068044350680443906804431D
:1006200010690443D0680443506954EA0044906957
:100630000443106A0443D069044380201D6800FB12
:100640000150C0F8B840012083F8C100002083F8B1
:10065000C000002030BC704770B4040094F8C100A2
:10066000022801D10220C4E094F8C000012801D181
:100670000220BEE0012084F8C000022084F8C100FE
:10068000052919D11000012806D0022808D0042815
:100690000AD008280CD0A5E018682568E861A1E018
:1006A0001868256868629DE018682568A86299E066
:1006B00018682568E86295E01000012806D0022835
:1006C0000CD0042848D008284ED08BE0186880252C
:1006D000266805FB0165C5F89C0083E01868802545
:1006E000266805FB0165C5F8A4005868002832D0CB
:1006F0008020256800FB0150D0F8800030F4405085
:100700008025266805FB0165C5F8800080202568E6
:1007100000FB0150D0F880005D68284380252668E2
:1007200005FB0165C5F880005868B0F5005F07D18A
:1007300098688025266805FB0165C5F89C000AE0DD
:100740005868B0F5405F06D198688025266805FB9B
:100750000165C5F8A80045E018688025266805FBF6
:100760000165C5F8A8003DE018688025266805FBEE
:100770000165C5F8AC005868002833D08020256892
:1007800000FB0150D0F8800030F4404080252668FE
:1007900005FB0165C5F880008020256800FB01503D
:1007A000D0F880005D6850EA85008025266805FB4A
:1007B0000165C5F880005868B0F5005F07D19868FA
:1007C0008025266805FB0165C5F89C000AE058688D
:1007D000B0F5405F06D198688025266805FB016565
:1007E000C5F8A800012084F8C100002084F8C000EA
:1007F000002070BC7047F8B504000D0016001F0003
:1008000094F8C100022801D1022018E094F8C00039
:10081000012801D1022012E0012084F8C00002204A
:1008200084F8C1003B0032002900200000F0CCFA1F
:10083000012084F8C100002084F8C0000020F2BD2F
:10084000020092F8C000012801D1022013E001202B
:1008500082F8C000022082F8C1001068D0F894032A
:1008600008431368C3F89403012082F8C1000020F4
:1008700082F8C00000207047020092F8C0000128F2
:1008800001D1022013E0012082F8C000022082F88A
:10089000C1001068D0F8980308431368C3F89803A0
:1008A000012082F8C100002082F8C00000207047BB
:1008B000020092F8C000012801D1022011E00120BD
:1008C00082F8C000022082F8C10010680068084366
:1008D00013681860012082F8C100002082F8C0006F
:1008E00000207047F8B504000D0094F8C1000228FC
:1008F00001D102207FE0022084F8C10094F8C000FA
:10090000012801D1022076E0012084F8C000E8032C
:100910001ED5D4F8B00000281AD0DFF87401D4F83E
:10092000C4100863DFF86C01D4F8C4108862D4F8EE
:10093000BC30D4F8B820D4F8B410D4F8C40001F016
:1009400072F82068C068D4F8B01008432168C86005
:1009500000200600F6B2052E41D2F6B2DFF82C01D7
:1009600050F82600054238D0F6B21C2000FB0640A5
:10097000406A002831D0F6B23100200000F0AEFB12
:100980000700DFF80C013863DFF80C01B862F6B23B
:100990001C2000FB0640036BF6B21C2000FB064047
:1009A000C26AF6B21C2000FB0640816A380001F0E2
:1009B0003AF8F6B28020216800FB0610F6B28021DA
:1009C000226801FB0621D1F88C10F6B21C2202FB32
:1009D0000642526A1143C0F88C10761CBAE72068B0
:1009E0000068284321680860012084F8C1000020C5
:1009F00084F8C0000020F2BD020092F8C100022875
:100A000001D102201CE092F8C000012801D102208F
:100A100016E0012082F8C000022082F8C1001068B0
:100A2000D0F8A00303005B085B000B431068C0F81C
:100A3000A033012082F8C100002082F8C00000200D
:100A40007047010091F8C100022801D102201AE08C
:100A500091F8C000012801D1022014E0012081F8A2
:100A6000C000022081F8C1000868D0F8A40350F04B
:100A700001000A68C2F8A403012081F8C100002027
:100A800081F8C000002070470020003C7800002062
:100A9000531900081F170008A117000838B50400F3
:100AA0000D00FF2D03D1200000F0B6FB09E0052D5D
:100AB00003D1200000F019FC03E02900200000F021
:100AC000A9FC31BD70477047704770477047704749
:100AD000704770477047704770477047704770475E
:100AE000704770477047704770477047704770474E
:100AF00010B403681B681A00D208D2008B681A432E
:100B000032F01802CB681A4303681A600B68046855
:100B100063614B680468A36110BC704770B48024A3
:100B2000056804FB0154D4F880402300DB08DB0097
:100B30009468234333F01803D46823438024056862
:100B400004FB0154C4F8803014688025066805FB56
:100B50000165C5F8944054688025066805FB016569
:100B6000C5F8984070BC704710B40468246823002E
:100B70000468D4F8A043220033F020034C692343D7
:100B800033F400638C69234333F48063CC692343DB
:100B900033F0C0630C6A234333F000634C6A234391
:100BA0009B009B088C6A53EA840333F000530C6B60
:100BB000234332F48032CC6A224304682360046801
:100BC000C4F8A02310BC70472DE9F0415FF0800C01
:100BD000D0F800E00CFB01ECDCF880C05FEA0C1CF4
:100BE0005FEA1C1C5FF0800ED0F800800EFB018EC7
:100BF000CEF880C05FF0800CD0F800E00CFB01EC78
:100C0000DCF880C063465FF0800CD0F800E00CFB9D
:100C100001ECDCF8E8C064465FF0800CD0F800E03E
:100C20000CFB01ECDCF8E4C065465FF0800CD0F80A
:100C300000E00CFB01ECDCF8D4C06646D0F800C044
:100C4000DCF8A0C3674633F02003D2F814C05CEA96
:100C5000030333F40063D2F818C05CEA030333F4EF
:100C60008063D2F81CC05CEA030333F0C063D2F89F
:100C700020C05CEA030333F00063D2F824C05CEACE
:100C800003031B011B09D2F828C05CEA030333F4F9
:100C90000033D2F830C0BCF1005F01D153F400330F
:100CA00033F04003D2F834C05CEA030333F480230A
:100CB000D2F850C05CEA030333F0FC73D2F848C0AA
:100CC0005CEA03036409640192F838C01CF01F0C4D
:100CD0005CEA040464006408D2F83CC05CEA0404E2
:100CE000D2F834C0BCF1000F05D135F48075D2F8CC
:100CF00040C05CEA0505D2F844C0BCF5606F04D082
:100D0000D2F844C0BCF5F05F04D1D2F834C0BCF1D5
:100D1000400F05D135F4F055D2F844C05CEA050522
:100D2000D2F84CC06646002906D0022912D00AD358
:100D300004291DD015D321E037F40037D2F82CC098
:100D400057EA4C071AE037F48027D2F82CC057EA4C
:100D50008C0713E037F40027D2F82CC057EACC07F1
:100D60000CE037F48017D2F82CC057EA0C1705E0D6
:100D700037F40017D2F82CC057EA4C175FF0800CFC
:100D8000D0F800E00CFB01ECCCF880305FF0800C78
:100D9000D0F800E00CFB01ECCCF8E8405FF0800CF0
:100DA000D0F800E00CFB01ECCCF8E4505FF0800CD4
:100DB000D0F800E00CFB01ECCCF8D460D0F800C017
:100DC000CCF8A073BDE8F081F0B55FF0FF36802766
:100DD000D0F800C007FB01C7D7F8E4703C008027BB
:100DE000D0F800C007FB01C7D7F8B8703D00170066
:100DF000012F14D0022F27D0042F10D0082F23D07A
:100E0000102F0CD0202F1FD0402F08D0802F1BD0A8
:100E1000B7F5807F03D0B7F5007F15D028E05F6875
:100E20005FF0800CD0F800E00CFB01ECCCF8BC705B
:100E30009F685FF0800CD0F800E00CFB01ECCCF870
:100E4000C07000273E0013E05F685FF0800CD0F8B0
:100E500000E00CFB01ECCCF8C4709F685FF0800CE4
:100E6000D0F800E00CFB01ECCCF8C87010273E0075
:100E7000FE27B740BC431F68B7403C43DF68B7401C
:100E80003C431F69B7403C435F69B7403C439F699F
:100E9000B7403C431F69082F05D115F0022F02D13E
:100EA000DF69B7403C438027D0F800C007FB01C78B
:100EB000C7F8E440F0BD70B40668D6F8B0633500FA
:100EC0000668D6F8B46333000668D6F8B863340011
:100ED0000E00012E18D0022E29D0042E3ED0082E4E
:100EE00053D0102E68D0202E7DD0402E00F0908060
:100EF000802E00F0A680B6F5807F00F0BB80B6F5AE
:100F0000007F00F0D080E7E0AD09AD011668354301
:100F1000167916F004063543966835430668C6F818
:100F2000B053166935430668C6F8B053D4E035F4BB
:100F30007C65166855EA86155668B60116F4807603
:100F40003543966855EA86150668C6F8B0531669A3
:100F500055EA86150668C6F8B053BDE035F47C3511
:100F6000166855EA06355668360316F4804635434A
:100F7000966855EA06350668C6F8B053166955EA0C
:100F800006350668C6F8B053A6E035F47C05166849
:100F900055EA86455668B60416F4801635439668B9
:100FA00055EA86450668C6F8B053166955EA86457F
:100FB0000668C6F8B0538FE035F07C55166855EAE0
:100FC00006655668360616F080663543966855EA1B
:100FD00006650668C6F8B053166955EA06650668E0
:100FE000C6F8B05378E05B095B01166833431679A5
:100FF00016F0040633439668334324092401D66867
:1010000034430668C6F8B4330668C6F8B84363E0EC
:1010100033F4F863166853EA86135668B60116F47B
:1010200080763343966853EA861334F47074D66836
:1010300054EA86140668C6F8B4330668C6F8B8439E
:101040004AE033F4F833166853EA06335668360339
:1010500016F480463343966853EA063334F47044FA
:10106000D66854EA06340668C6F8B4330668C6F88B
:10107000B84331E033F4F803166853EA8643566800
:10108000B60416F480163343966853EA864334F464
:101090007014D66854EA86440668C6F8B433066805
:1010A000C6F8B84318E033F0F853166853EA0663FD
:1010B0005668360616F080663343966853EA066330
:1010C00034F07064D66854EA06640668C6F8B4332F
:1010D0000668C6F8B843FFE770BC704702000020FE
:1010E00000290BD0022911D00CD3042916D011D31A
:1010F000052916D1D2F8C430180012E0D2F8C83051
:1011000018000EE0D2F8CC3018000AE0D2F8D03047
:10111000180006E0D2F8D430180002E0D2F8D83037
:101120001800704701005FF0FF300A68144B9A42C4
:1011300002D10522100021E00A68124B9A4202D126
:10114000002210001AE00A680F4B9A4202D10122D5
:10115000100013E00A680D4B9A4202D102221000DF
:101160000CE00A680A4B9A4202D10322100005E003
:101170000A68084B9A4201D104221000704700000F
:101180001C0002403000024044000240580002406F
:101190006C00024080000240002910D0022920D0BB
:1011A00016D304292FD025D3052934D10268D2F8CB
:1011B000842352F001020368C3F884232BE0026801
:1011C000D2F8842352F002020368C3F8842322E099
:1011D0000268D2F8842352F004020368C3F884231F
:1011E00019E00268D2F8842352F008020368C3F8B9
:1011F000842310E00268D2F8842352F010020368BE
:10120000C3F8842307E00268D2F8842352F0200256
:101210000368C3F88423704710B504002068D0F831
:101220008803C0070BD52068D0F89003C00706D507
:1012300001202168C1F88C032000FFF743FC2068DF
:10124000D0F8880380070BD52068D0F8900380077A
:1012500006D502202168C1F88C032000FFF733FC7B
:101260002068D0F8880340070BD52068D0F8900399
:10127000400706D504202168C1F88C032000FFF741
:1012800023FC2068D0F8880300070BD52068D0F82D
:101290009003000706D508202168C1F88C032000C0
:1012A000FFF713FC2068D0F88803C0060BD5206830
:1012B000D0F89003C00606D510202168C1F88C0331
:1012C0002000FFF703FC2068D0F8880380060BD5C8
:1012D0002068D0F89003800606D520202168C1F848
:1012E0008C032000FFF7F3FB10BD10B5040020684D
:1012F000D0F88803C00312D52068D0F89003C0034B
:101300000DD55FF480302168C1F88C03012084F88A
:10131000C100002084F8C0002000FFF7D9FB20683E
:10132000D0F8880380030CD52068D0F890038003A0
:1013300007D55FF400302168C1F88C03200001F06C
:10134000FFFC20684068C0070AD52068C068C00755
:1013500006D501202168886005212000FFF7BBFB2E
:101360002068406880070AD52068C068800706D5D5
:1013700002202168886005212000FFF7ADFB20686E
:10138000406840070AD52068C068400706D5042099
:101390002168886005212000FFF79FFB20684068D6
:1013A00000070AD52068C068000706D50820216814
:1013B000886005212000FFF791FB20684068C00687
:1013C0000AD52068C068C00606D51020216888604C
:1013D0000521200001F050FC20684068800609D5F6
:1013E0002068C068800605D520202168886020001C
:1013F000FFF76FFB2068406840060AD52068C06888
:10140000400606D540202168886005212000FFF7AE
:1014100061FB10BD38B504000D008020216800FB81
:101420000510D0F88400C00712D58020216800FB89
:101430000510D0F88C00C0070AD501208021226851
:1014400001FB0521C1F8880029002000FFF743FBBC
:101450008020216800FB0510D0F88400800712D599
:101460008020216800FB0510D0F88C0080070AD589
:1014700002208021226801FB0521C1F88800290093
:101480002000FFF729FB8020216800FB0510D0F821
:101490008400400712D58020216800FB0510D0F899
:1014A0008C0040070AD504208021226801FB052119
:1014B000C1F8880029002000FFF70FFB8020216879
:1014C00000FB0510D0F88400000712D580202168A9
:1014D00000FB0510D0F88C0000070AD508208021F9
:1014E000226801FB0521C1F8880029002000FFF7D0
:1014F000F5FA8020216800FB0510D0F88400C006B2
:1015000012D58020216800FB0510D0F88C00C006A1
:101510000AD510208021226801FB0521C1F888002E
:101520002900200001F0A8FB8020216800FB0510A5
:10153000D0F88400400612D58020216800FB0510F9
:10154000D0F88C0040060AD540208021226801FB9B
:101550000521C1F8880029002000FFF7BBFA802090
:10156000216800FB0510D0F88400000612D5802009
:10157000216800FB0510D0F88C0000060AD58020F9
:101580008021226801FB0521C1F888002900200084
:10159000FFF7A5FA8020216800FB0510D0F8840031
:1015A000C00513D58020216800FB0510D0F88C0001
:1015B000C0050BD54FF480708021226801FB052106
:1015C000C1F8880029002000FFF78AFA80202168EE
:1015D00000FB0510D0F88400800513D58020216819
:1015E00000FB0510D0F88C0080050BD54FF400707F
:1015F0008021226801FB0521C1F888002900200014
:10160000FFF771FA8020216800FB0510D0F88400F4
:10161000400513D58020216800FB0510D0F88C0010
:1016200040050BD54FF480608021226801FB052125
:10163000C1F8880029002000FFF756FA80202168B1
:1016400000FB0510D0F88400000513D58020216828
:1016500000FB0510D0F88C0000050BD54FF400609E
:101660008021226801FB0521C1F8880029002000A3
:10167000FFF73BFA8020216800FB0510D0F88400BA
:10168000C00413D58020216800FB0510D0F88C0021
:10169000C0040BD54FF480508021226801FB052146
:1016A000C1F8880029002000FFF720FA8020216877
:1016B00000FB0510D0F88400800413D58020216839
:1016C00000FB0510D0F88C0080040BD54FF40050BF
:1016D0008021226801FB0521C1F888002900200033
:1016E000FFF700FA8020216800FB0510D0F8840085
:1016F000400413D58020216800FB0510D0F88C0031
:1017000040040BD54FF480408021226801FB052165
:10171000C1F8880029002000FFF7E3F931BD38B592
:101720000400656A2868C068C00304D50521280044
:10173000FFF7D1F933E02868C068800304D505219C
:101740002800FFF7C9F92AE02868C068400304D5DB
:1017500005212800FFF7C1F921E02868C0680003CF
:1017600004D505212800FFF7B9F918E02868C068FA
:10177000C00204D50521280001F07EFA0FE0286898
:10178000C068800203D52800FFF7A3F907E02868A6
:10179000C068400203D505212800FFF79BF931BD41
:1017A00070B50400666A2000FFF7BCFC0500EDB2CE
:1017B0008020316800FB0510D0F88C00C00305D5EF
:1017C000EDB229003000FFF786F9C1E0EDB28020CC
:1017D000316800FB0510D0F88C00800305D5EDB210
:1017E00029003000FFF778F9B2E0EDB280203168CF
:1017F00000FB0510D0F88C00400305D5EDB22900A0
:101800003000FFF76AF9A3E0EDB28020316800FBF9
:101810000510D0F88C00000305D5EDB2290030008A
:10182000FFF75CF994E0EDB28020316800FB051011
:10183000D0F88C00C00205D5EDB22900300001F0CF
:101840001BFA85E0EDB28020316800FB0510D0F86E
:101850008C00400205D5EDB229003000FFF73AF9BF
:1018600076E0EDB28020316800FB0510D0F88C00E6
:10187000000205D5EDB229003000FFF730F967E02E
:10188000EDB28020316800FB0510D0F88C00C0015B
:1018900005D5EDB229003000FFF722F958E0EDB28E
:1018A0008020316800FB0510D0F88C00800105D540
:1018B000EDB229003000FFF716F949E0EDB28020C3
:1018C000316800FB0510D0F88C00400105D5EDB261
:1018D00029003000FFF708F93AE0EDB280203168C6
:1018E00000FB0510D0F88C00000105D5EDB22900F1
:1018F0003000FFF7FAF82BE0EDB28020316800FBF2
:101900000510D0F88C00C00005D5EDB229003000DC
:10191000FFF7ECF81CE0EDB28020316800FB051009
:10192000D0F88C00800005D5EDB229003000FFF71B
:10193000D9F80DE0EDB28020316800FB0510D0F839
:101940008C00400004D5EDB229003000FFF7C9F843
:1019500070BD38B50400656A2800FFF7C8F831BDCE
:1019600080B51C48006850F010001A490860032038
:1019700001F0D8FA0F2000F005F800F002F800207E
:1019800002BD704710B5040001F0FDFF4FF47A71FD
:10199000B0FBF1F001F0E6FA002221005FF0FF3029
:1019A00001F0C6FA002010BD0B480068401C0A492F
:1019B0000860704708480068704711B581B0FFF7AC
:1019C000F9FF0400FFF7F6FF001B01998842F9D3E5
:1019D00013BD00000020024004020020010000228C
:1019E000002901D101201DE0022081F821000868B2
:1019F000006802006FF30D1248688B681843CB68CB
:101A000018430B6918434B6918438B691843CB691A
:101A1000184302430868026000204863012081F8EF
:101A2000210000207047F8B504000D0016001F00CB
:101A300094F82000012801D102202AE0012084F836
:101A40002000022084F8210020680068400840003F
:101A5000216808603B0032002900200000F01AF8DD
:101A60002068006850F00200216808602068006863
:101A700050F00400216808602068006850F00800F9
:101A8000216808602068006850F001002168086043
:101A90000020F2BD10B4046863604468102C04D1C7
:101AA0000468A2600468E16003E00468A16004685F
:101AB000E26010BC704710B450F8041B81B102689A
:101AC0001218001D50F8043BDC0744BFA9F10104C3
:101AD000E31852F8044B43F8044B091FF9D1EBE724
:101AE00010BC70472DE9F8432DED088B96B0002609
:101AF00010A8142101F080FF4FF4C8799FED748B7A
:101B0000C84600F043FAFFF72BFF0120059006902E
:101B1000079602200C904FF480300D904FF4E010A7
:101B20000E9005A801F034FA08B101F049F90F2030
:101B3000009002960220019004964FF4806003907A
:101B4000022100A801F037FD08B101F039F901F0D8
:101B50001AFFDFF8B81CB0FBF1F001F003FADFF870
:101B6000B04C0020207101F05BFF012001F058FF14
:101B7000022001F055FF032001F052FF0121304601
:101B800001F0B5FF304602F001F801281AD10DE04E
:101B900000F054FE4620FFF710FF00F052FE00F068
:101BA00099FE4620FFF709FF00F097FE01F061F86B
:101BB0000128EDD000F045FE00F08FFE0120A0715D
:101BC00000F019FC00F0E7F900F088FB9FEDD69BD0
:101BD0009FEDC5BADFEDC5BADFF8387C10AD0CE07B
:101BE00000F07EFE00F079FEB0EE6B0A00F0F8FB2C
:101BF0005020FFF7E2FE86F00106607938B1022836
:101C000000F09C8068D3032800F03E8168E100F07A
:101C10008FF900F028FE00F066FE00F05EFE00F096
:101C200010FE00F0ABF918B301F0CAF820E000F0A4
:101C300005FE00F018FE00F09BF900EE100A00F01F
:101C4000CFFB53EC1A2B0020DFF8CC1B01F0BCFFBC
:101C500000F079F951EC1A0B0022DFF8C03B02F0DA
:101C600027F805D800F092F900F0EBFD00F0E3FD55
:101C700000F0FFFF012804BFE0780128D7D000F072
:101C8000F8FF012804BFE0780028B6D100F0D9FDA4
:101C900000F0E6FD00F06CF900EE100A00F0A0FB89
:101CA00053EC1A2B0020DFF8781B01F08DFF00F0B9
:101CB0004AF951EC1A0B0022002302F011F8DED889
:101CC0009FEDA9AB00F0CFFD00F0B5FDD7E700BF59
:101CD000000000000088834000F02AF900F054F969
:101CE000B0EE6B0A00F07CFB0020207101F0E3FEF7
:101CF00000F026F900F0B7FD00F0ECFD00F020F94F
:101D000000F0EBFD00F09AFD00F01AF900F099FDEB
:101D100000F0E6FD00F014F900F0E5FD0120207070
:101D200040213846FEF78CFD08B101F049F84FEA32
:101D30005808B8F1010F00D1C8465EE700F024F959
:101D400000F091FD00F0CFFD00F0C7FD00F079FD3F
:101D500000F014F908B101F033F80020207101F00F
:101D6000AAFE00F06EFD5020109028206860002030
:101D7000A860A020E860782028610020A065E065C8
:101D800020666066A066C4ED1BBA3868D0F8901370
:101D900041F40031C0F89013C4ED1BBA2CE094ED6F
:101DA0001B0ADFEDC90A00F0A3F805DB55F8201087
:101DB000491C00F0A2F8F9D300F0ACF853EC192B51
:101DC00001F0A6FF02F076F802F0BCF841EC100B2F
:101DD00002F018F951EC100B02F06CF800F0B8F8B2
:101DE000E06E02F0AFF8DFF8D82CDFF8D83C01F055
:101DF000EBFE02F05FF8E06694ED1B0AB4EE4B0ACE
:101E0000F1EE10FA02DB20790028C8D000F016FDB0
:101E100000F029FD84ED1BBA94ED1B0ADFEDAB0A3F
:101E200000F066F85ED5207900285BD194ED1B0A9E
:101E3000DFEDA70A00F05CF805DB55F82010491E1D
:101E400000F05BF8F9D300F065F853EC192B01F0C2
:101E50005FFF02F02FF802F075F841EC100B02F072
:101E6000D1F851EC100B02F025F800F071F8E06E9B
:101E700002F068F8DFF8482CDFF8383D01F0A4FEE6
:101E800002F018F8E066C7E7B0EE48AA00F050F894
:101E90000120E070F0EE68AA00F0E5FC00F0D1FC53
:101EA00026B100F01DFD00F018FD03E000F01BFD61
:101EB00000F010FD00F062F808B100F081FF002092
:101EC00020719FED840A00F08BFA1420FFF775FD56
:101ED000002E3FF485AE00F006FD00F0FBFC83E62B
:101EE00000F06EFF89E600000080D14300401C44F2
:101EF000B4EE600AF1EE10FA704745F8201040F693
:101F0000E4420903B1FBF2F104EB8002401C91654D
:101F10000528704794ED1B0ADFED6F0A80EE200A5A
:101F200010EE100A02F00EB89A9999999999F13F1A
:101F30003868D0F8901321F40031C0F8901370473E
:101F40004046FFF73ABD41EC1A0B0A20FFF735BDBA
:101F500000EE100ADFED600A80EE200ABCEEC00A37
:101F600010EE100AFFF729BD00000000000000007D
:101F70000020207151EC1A0B01F09CBF0020207052
:101F800040213846FEF778BC0120E070B0EE48AA48
:101F9000F0EE68AA704770B588B0002040F6E443C0
:101FA000DFF86C4804EB8001401C8A6D1203B2FB21
:101FB000F3F28A650528F5DBDFF83C6DDFF83C5D60
:101FC000306840F001003060102028630020686312
:101FD0008020A8634FF40070E8634FF40060286429
:101FE000202068644FF40050A864DFF8140DE86204
:101FF00005F12C00FFF7F2FC08B100F0E1FEB0683B
:1020000040F00050B060DFF8FC0C686605F1640039
:1020100002F014F808B100F0D3FE05F1640001F0FD
:10202000F9FF08B100F0CCFE0020019000900022E2
:1020300000A905F1640002F016F808B100F0C0FE36
:10204000002105F1640002F051F808B100F0B8FE7B
:10205000A36D0022002105F1640002F02FF808B101
:1020600000F0AEFE306840F48020306002A901200C
:102070000290032003900020049000F022F9DFF882
:10208000100D2860284602F0C2F808B100F098FE52
:10209000402068600020A860E86028616861E8610D
:1020A000A86128626862284602F05CF808B100F076
:1020B00087FE284602F0C5F808B100F081FE00F066
:1020C0000DF808B070BD00006746174401401C447D
:1020D00001401744000000000000C84270B5B6B0CF
:1020E0004FF48050309030A902203190032033907B
:1020F000002032900D20349000F0E3F8DFF8940CCB
:10210000DFF810478169DFF8906C41F480518161FC
:10211000016841F00051016026602046FEF734F866
:10212000DFF8D85B266005F12C00C4F8D0002C65E0
:102130002046FEF729F80C212046FEF7A6F808B144
:1021400000F03EFE00F06EFB08B100F039FE00F03A
:1021500027F910224FF480001E90022104201F90C6
:10216000002000F0A7F808B100F02AFE0020079038
:1021700007AA4FF4F81008900221DFF8200C09900C
:10218000686E08300A9005200B90002000F01AF9C4
:102190004FF40010199000F009F908B100F010FE9A
:1021A00000F093F840F666600090012200F092F88B
:1021B00008B100F005FE00F088F841F6CD4000902F
:1021C000022200F087F808B100F0FAFD00F07DF877
:1021D00042F633300090042200F07CF808B100F0A1
:1021E000EFFD00F072F843F69A100090082200F01C
:1021F00071F808B100F0E4FD4FF4904000F0DCF815
:10220000022100F052F808B100F0DAFD012024901C
:1022100024AA00202590269002212020289000202A
:1022200027902046FEF712F908B100F0C9FD022000
:10223000299029A90C202A9000202B904FF480602F
:102240002C9000202D9040F271202E902F9020464F
:10225000FEF7BCF808B100F0B3FD102100F09DF8C6
:1022600008B100F0ADFD01212046FEF7C5FB08B125
:1022700000F0A6FD4FF400212046FEF733FB08B125
:1022800000F09EFD00220021432000F051FE43207B
:1022900000F061FE4FF4003060602046FEF7D1FB95
:1022A00008B100F08DFD36B070BD082006902046C4
:1022B000FEF731B820902190229023902046FEF71F
:1022C0009ABADFF8DC0A01F0DDBF0020019002902D
:1022D00000AB704702212046FEF7BEB910B5DFF80B
:1022E000180AAAB0016841F4802101604FF48040CF
:1022F000249024A9022025900320279000202690D6
:102300000D202890FFF7DDFFDFF8084500F048F8C2
:10231000402208201E90032100201F90FFF7CAFFD3
:1023200008B100F04DFD00200790089009900A9038
:102330000B9000F047F807AA4FF480001990032192
:1023400000F034F808B100F03BFD4FF4106000F0ED
:1023500033F80321FFF7A9FF08B100F031FDFFF7C3
:10236000B4FFDFF8400A00880090012203212046D4
:10237000FEF772F908B100F023FD402100F00DF8DE
:1023800008B100F01DFD4FF480112046FEF790FAD1
:1023900008B100F015FD2AB010BD2046FEF750BA76
:1023A00000201C901CAB04201D90704700201A9048
:1023B0001B902046FEF7C9B8039003AA00200490A2
:1023C000059070470C900D900E900F90109011900A
:1023D00012901390149015901690179018907047C3
:1023E000DFF830140968BDEEC00A10EE100A80B2A2
:1023F000C1F8A80370472DE9F04FDFF8AC09B3B07E
:10240000006880B2039040F6C415DFF8EC08C1699B
:1024100041F48051C1612E46416841F00051416054
:10242000416841F001014160016841F400310160FF
:10243000016841F480210160016841F400210160DC
:102440004FF470602E902EA902202F90032031901F
:10245000002030900D2032904FF0904001F012FF9C
:102460000121002001F043FBDFF8A843DFF8280931
:1024700020600C212046FDF708FF08B100F0A0FC09
:1024800000F0D0F908B100F09BFC0020269026ABAC
:102490000420279001220820289000210020299064
:1024A0002A902B902C902D90FFF708FF08B100F098
:1024B00087FC26AB00F080FB08B100F081FC002017
:1024C00011901290139014901590169017901890E8
:1024D000199011AA4FF000601A90002100201B9063
:1024E0001C904FF000501D9000201E901F902090D7
:1024F0004FF480702190002022902390249025900A
:102500002046FEF722F808B100F05AFC11AA01217A
:102510002046FEF71AF808B100F052FC00F094F9DA
:1025200040F213100990002100F094F940F233407A
:1025300005902046FEF750F808B100F041FC00F08D
:1025400083F94B200990012100F084F940F2C94041
:1025500005902046FEF740F808B100F031FC4FF43A
:1025600090400D900DAA0A200E90002100200F909F
:1025700008201090FFF79BFE08B100F021FC00201E
:1025800001900295009500AB012200F050F908B1CE
:1025900000F016FC0020019000AB40F6B83002902D
:1025A0000090022200F043F908B100F009FC00207D
:1025B000019000AB41F27C5002900090082200F0A4
:1025C00036F908B100F0FCFB0DAA0121FFF76FFE00
:1025D00008B100F0F5FB0020019000AB4FF47A70D9
:1025E00002900090022201212046FEF735F808B142
:1025F00000F0E6FB00220021442000F099FC44207A
:1026000000F0A9FC0121FFF7C8FE08B100F0D8FBDB
:102610000221FFF7C2FE08B100F0D2FB0421FFF750
:10262000BCFE08B100F0CCFB0821FFF7B6FE08B1F4
:1026300000F0C6FB00F065FA00212046FDF789FE98
:1026400008B100F0BDFB00F051F900F0F4F80027EC
:102650006F4D00F0D5F825D900F0CEF808B100F0A4
:10266000AFFB286F039948436989B0FBF1F02867F5
:1026700040F6E441286F484340F6FF71B0FBF1F0AB
:1026800040F2F111484364217F1CB0FBF1F8642F44
:10269000DFD300F025F900F0CEF800F024F900F0C7
:1026A000CAF8F6E700F016F90220A8700120687059
:1026B00000F0C1F800F0A0F808B100F081FBDFF8ED
:1026C000EC06484444F20C6A42F2117B0B2832D3E8
:1026D00000F0CCF8D94504D20A36564507D3564601
:1026E00005E00A3EB6F5FA7F98BF4FF4FA7600F09F
:1026F000E6F808B100F064FB00F0F6F900F07CF8B1
:1027000008B100F05DFB5F4502D200F079F8D6D940
:1027100000F0E3F800F0A4F800F08DF800F0A3F862
:1027200000F089F8F6E700F089F800F084F800F08E
:1027300088F800F080F828890028F4D0002028814B
:102740000120A8706870FFF700FC002700F076F801
:1027500000F0C3F8A9F2CB700B2833D300F086F851
:10276000B9F5FA6F04D80A36564507D3564605E040
:102770000A3EB6F5FA7F98BF4FF4FA7600F09FF85C
:1027800008B100F01DFB00F0AFF900F035F808B11A
:1027900000F016FB5F4502D200F032F8DAD900F003
:1027A00050F800F05DF800F046F800F05CF800F03A
:1027B00042F8F6E700F08EF800F03DF800F08DF8F2
:1027C00000F039F828890028F4D000F049F800F02A
:1027D00087F800F07FF800F031F89620FFF7EDF869
:1027E00000F041F800F07FF800F077F800F029F8E9
:1027F0009620FFF7E2F8E8E705F10C0002F03CB99B
:10280000DFF8AC054044B0F57A7F7047A086010040
:1028100000000020B00000200000F03F008883404E
:102820000000F0BF4FF0FF312046FDF751BD002101
:102830002046FDF711BF6420FFF7BFB8032001F069
:102840003AB9032001F045B900200B900A900C9092
:1028500004AA7047002004900790069008907047E3
:10286000002001F028B9002001F033B96889296FF0
:10287000039A5143B1FBF0F12967696F039A514301
:10288000B1FBF0F0686740F6E442296F686F51438E
:1028900040F6FF72B1FBF2F140F2F11251436422B3
:1028A000B1FBF2F840F6E441484340F6FF71B0FB5B
:1028B000F1F040F2F7114843B0FBF2F97047002005
:1028C000019002967F1C009600AB01220021204659
:1028D000FDF7C2BE022001F0EEB8022001F0F9B807
:1028E000012001F0E8B8012001F0F3B810B59EB066
:1028F00000200590DFF80004816921F4F87141F4AB
:1029000088718161016841F080510160022000F00E
:10291000EEF8082000F0EBF800F0E6F8DFF8944459
:102920004FF0A040E06000A900200190009000F06E
:10293000D6F808B100F044FA4FF44030206100208E
:10294000A062A06120632064042020620020A063B4
:1029500000F0BAF860640020606100F0BBF808B1D4
:1029600000F02EFA002104F10C0002F031F808B159
:1029700000F026FA002104F10C0002F070F8059036
:1029800017A91220179000201C901B90012018906E
:102990000520199000201A9004F10C0002F029F98A
:1029A00008B100F00DFA00F09FF804F10C0001F0FE
:1029B00068FE08B100F004FA4FF0FF3104F10C009A
:1029C00001F0BCFE08B100F0FBF904F10C0001F0CD
:1029D000F4FE608104F10C0001F08CFE08B100F0FF
:1029E000EFF900F081F80020019000A90520009087
:1029F000002000F074F808B100F0E2F90020206136
:102A0000A062A06120632064082020620120A063EE
:102A1000002000F059F8002060646061012000F09F
:102A200059F808B100F0CCF9002013900BA924202C
:102A300015904020169002200B9001201290022049
:102A40001190002010900F9001200C9003200D9009
:102A500000200E90149004F10C0002F026FB08B147
:102A600000F0AEF904200B900BA902200C9004207A
:102A70000D9004F10C0002F018FB08B100F0A0F971
:102A800000220021122000F053FA122000F063FA15
:102A90004FF48040049003AA4FF4003003900221C9
:102AA000C548FDF7F6FC08B100F08AF904F10C0006
:102AB00001F0E2FF08B100F083F91EB010BD000084
:102AC0009A9999999999B9BFE06360620120E0628F
:102AD00060637047E06104F10C0001F0EDBC02900E
:102AE00004F10C0002F09EBD0120FEF766BF0690C7
:102AF00006A903200790002008904FF0904001F0B5
:102B0000C1BB10B588B000F026F800F00DF9082020
:102B1000029000AB00F048F808B100F051F900F065
:102B2000FDF800F049F808B100F04AF900F0F0F8BB
:102B3000082200F042F808B100F042F94FF4C02139
:102B40002046FDF7B5FE08B100F03AF9994900209A
:102B5000487008B010BD10B588B000200090042067
:102B6000039000200490059006900790FFF7AEFBBD
:102B700000F01AF808B100F023F900AB022200219E
:102B8000FFF79CFB08B100F01BF900AB00F014F854
:102B900008B100F015F900AB082200F00EF808B1FA
:102BA00000F00EF908B010BD834C01220021204630
:102BB000FDF721BE9999B93F042201212046FDF776
:102BC0001ABE38B504462068006840060FD57A4919
:102BD000784D09680220C1F808010121204601F062
:102BE000EDFF28670221204601F0E8FF68672046D4
:102BF000BDE8324001F0A4BF38B5FFF774FEFFF71F
:102C00006CFE6C4C01202081A07988BB6B4D0120AB
:102C100020716079401C607100F02BF8012808D108
:102C20006D1EF9D100206071E178481E8041C00F0F
:102C3000E0704FF48C70A06540F6E443F020E0654E
:102C4000C82020664FF4B47060664FF4A070A06690
:102C5000002004EB8001401C8A6D1203B2FBF3F2EA
:102C60008A650528F5D360790428A4BF0120607126
:102C700031BD002000F08ABF01B1704730B54D4C26
:102C800089B06078012835D1A078012802D00228C7
:102C900003D02DE0FFF735FF2CE0FFF75CFF00F0DD
:102CA00043F84FF48050029000AB434D04220121C1
:102CB00000F02BF808B100F083F800F02FF80222A2
:102CC00000F022F808B100F07BF800F021F80122B2
:102CD00000F01AF808B100F073F84FF4C02128464C
:102CE000FDF7E6FD08B100F06BF80020607001E030
:102CF00000F066F809B030BD141002408C010020CD
:102D0000580002400074004000212846FDF773BDC2
:102D10000420019000AB0020029070470020019039
:102D200000AB042002907047002000900420039024
:102D300000200490059006900790042001907047B1
:102D400038B51C4C0FF28C0294ED1B0AE579D4EDDA
:102D50001B0ABCEEC00A10EE100AB8EE400A70EE74
:102D6000C00AFEEEEE0A10EE901A02EB011131F8E5
:102D7000151021B1401C00EE100AB8EE400AFFF712
:102D80002FFB681CC0B20828A8BF0020E07131BD2D
:102D90002800014018100240007401405800002033
:102DA00000040048AC000020BAF7FF1FF5D8FFFF71
:102DB0006CEEFFFF00000020B000002040420F003A
:102DC00080B5FFF74DFDFFF78BFDFFF783FDFFF7A4
:102DD00035FDF6E7000000000000000000000000E4
:102DE00000000000000000000000000000000000E3
:102DF00000000100000000000000010000000000D1
:102E000000000100000000000100000000000100BF
:102E100000000100000001000000010000000100AE
:102E2000000001000000010000000100010000009E
:102E3000010001000000010001000100000001008C
:102E4000010001000000010001000100010001007B
:102E50000100010010F00702454B1B6819004FF6F6
:102E6000FF031940434B53EA02231943404B1960B7
:102E700070473F480068C0F302207047012110F0FE
:102E80001F02914040B242093B4B43F82210704769
:102E900010B440B2002808D50A0140B210F00F0368
:102EA000364C1B1903F8042C03E00A0140B2344BE2
:102EB000C25410BC704770B4030013F00704D4F17F
:102EC0000706052E01D3042001E0D4F10700261DDA
:102ED000072E01D2002500E0E51E012616FA00F0BB
:102EE000401E0840A8400121A940491E1140084346
:102EF00070BC704710B50400601EB0F1807F01D334
:102F000001200EE0601E1F4908600F215FF0FF30B6
:102F1000FFF7BEFF00201C49086007201B4908601E
:102F2000002010BD10B504002000FFF793FF10BD76
:102F3000F8B504000D0016000027FFF79AFF070000
:102F4000320029003800FFF7B6FF0100200040B230
:102F5000FFF79EFFF1BD10B50400200040B2FFF75F
:102F60008DFF10BD10B504002000FFF7C3FF10BD9A
:102F70000CED00E00000FA0500E100E018ED00E0D3
:102F800000E400E014E000E018E000E010E000E001
:102F900038B5040000252078C00740F1C780DFF86D
:102FA000140A006810F00C0004280BD0DFF8040AA3
:102FB000006810F00C00082828D1DFF8F809006834
:102FC000C00323D54FF48040B0FA80F0400950F0A0
:102FD0000100012803D1DFF8D809006806E04FF4AA
:102FE0008040B0FA80F1DFF8D40900684FF48041E6
:102FF000B1FA81F111F01F01C840C00740F196807D
:103000006068012800F092800120D3E20020DFF800
:10301000B0190870FEF7CEFC05004FF48040B0FAFE
:1030200080F0400950F00100012803D1DFF8800949
:10303000006806E04FF48040B0FA80F1DFF87C09C8
:1030400000684FF48041B1FA81F111F01F01C840CE
:10305000C00708D5FEF7AEFC401B41F2893188421B
:10306000DBD30320A6E26068DFF854190870DFF8AC
:103070004809006800090001A1680843DFF8381911
:1030800008606068012828D1FEF794FC05004FF421
:103090008040B0FA80F0400950F00100012803D1CF
:1030A000DFF80C09006806E04FF48040B0FA80F1C8
:1030B000DFF8080900684FF48041B1FA81F111F09E
:1030C0001F01C840C00731D4FEF774FC401B41F219
:1030D00089318842DBD303206CE2FEF76BFC0500EC
:1030E0004FF48040B0FA80F0400950F00100012810
:1030F00003D1DFF8BC08006806E04FF48040B0FA66
:1031000080F1DFF8B80800684FF48041B1FA81F12E
:1031100011F01F01C840C00708D5FEF74BFC401B4B
:1031200041F289318842DBD3032043E220788007D3
:1031300040F1AD80DFF87C08006810F00C0F0BD078
:10314000DFF87008006810F00C00082836D1DFF8AE
:1031500064080068C00331D45FF08040B0FA80F0AA
:10316000400950F00100012803D1DFF8440800684D
:1031700006E05FF08040B0FA80F1DFF840080068B8
:103180005FF08041B1FA81F111F01F01C840C00722
:1031900004D52069012801D001200BE2DFF81008D6
:1031A000006830F0F80061695FF0F852B2FA82F21C
:1031B00091400843DFF8F817086068E020690028AC
:1031C0003AD00120DFF8FC170860FEF7F3FB05009A
:1031D0005FF08040B0FA80F0400950F00100012813
:1031E00003D1DFF8CC07006806E05FF08040B0FA5A
:1031F00080F1DFF8C80700685FF08041B1FA81F123
:1032000011F01F01C840C00706D4FEF7D3FB401BD6
:103210006528DDD30320CDE1DFF89407006830F0A6
:10322000F80061695FF0F852B2FA82F29140084307
:10323000DFF87C1708602AE00020DFF888170860B4
:10324000FEF7B8FB05005FF08040B0FA80F040095F
:1032500050F00100012803D1DFF85407006806E0B0
:103260005FF08040B0FA80F1DFF8500700685FF04F
:103270008041B1FA81F111F01F01C840C00706D5A5
:10328000FEF798FB401B6528DDD3032092E12078F0
:10329000000746D5A069002821D00120DFF82817B3
:1032A0000860FEF787FB05005FF08040B0FA80F011
:1032B0005FF08041B1FA81F1DFF8002712685FF01A
:1032C0008043B3FA83F313F01F03DA40D20728D404
:1032D000FEF770FB401B6528E6D303206AE100205F
:1032E000DFF8E4160860FEF765FB05005FF080403C
:1032F000B0FA80F05FF08041B1FA81F1DFF8BC26CE
:1033000012685FF08043B3FA83F313F01F03DA40CF
:10331000D20706D5FEF74EFB401B6528E6D30320F7
:1033200048E12078400740F1AF80DFF8A006006850
:1033300050F08050DFF894160860DFF894060068BB
:1033400050F48070DFF888160860FEF733FB050044
:10335000DFF87C060068C00506D4FEF72BFB401B97
:103360006528F5D3032025E1DFF86806006830F012
:103370000500DFF860160860FEF71CFB05005FF033
:103380008040B0FA80F05FF08041B1FA81F14909E4
:1033900051F00201022903D1DFF83806006802E08B
:1033A000DFF8180600685FF08041B1FA81F111F092
:1033B0001F01C840C00708D5FEF7FCFA401B41F2C8
:1033C00089318842DBD30320F4E0DFF80806006887
:1033D00030F00500E1680843DFF8F8150860E068A0
:1033E000012828D1FEF7E6FA05005FF08040B0FA28
:1033F00080F05FF08041B1FA81F1490951F002019A
:10340000022903D1DFF8CC05006802E0DFF8AC0543
:1034100000685FF08041B1FA81F111F01F01C840EE
:10342000C00731D4FEF7C6FA401B41F28931884209
:10343000DBD30320BEE0FEF7BDFA05005FF080405D
:10344000B0FA80F05FF08041B1FA81F1490951F0A2
:103450000201022903D1DFF87C05006802E0DFF8F1
:103460005C0500685FF08041B1FA81F111F01F0145
:10347000C840C00708D5FEF79DFA401B41F28931CC
:103480008842DBD3032095E0E069002800F09180BA
:10349000DFF82005006810F00C00082800F0878095
:1034A000E06902285BD10020DFF82C150860FEF7E8
:1034B00081FA05004020B0FA80F0400950F0010088
:1034C000012803D1DFF8E804006805E04020B0FAE5
:1034D00080F1DFF8E80400684021B1FA81F111F0D1
:1034E0001F01C840C00706D5FEF764FA401B6528D7
:1034F000E0D303205EE0DFF8BC04006830F4741011
:10350000616A0843216A0843DFF8A81408600120B3
:10351000DFF8C4140860FEF74DFA05004020B0FA49
:1035200080F0400950F00100012803D1DFF8800449
:10353000006805E04020B0FA80F1DFF88004006800
:103540004021B1FA81F111F01F01C840C00730D409
:10355000FEF730FA401B6528E0D303202AE0002064
:10356000DFF874140860FEF725FA05004020B0FA71
:1035700080F0400950F00100012803D1DFF8300449
:10358000006805E04020B0FA80F1DFF83004006800
:103590004021B1FA81F111F01F01C840C00708D5E0
:1035A000FEF708FA401B6528E0D3032002E0012063
:1035B00000E0002032BD70B504000D000026DFF8E9
:1035C0001C04006810F00700A84280F0C880DFF8F3
:1035D0000C040068C008C0002843DFF8001408602D
:1035E000DFF8F803006810F00700A84201D00120BE
:1035F0008CE12078800709D5DFF8B803006830F047
:10360000F000A1680843DFF8AC1308602078C00719
:1036100040F16181606801281ED14FF48040B0FA0A
:1036200080F0400950F00100012803D1DFF8800349
:10363000006806E04FF48040B0FA80F1DFF87C03C8
:1036400000684FF48041B1FA81F111F01F01C840C8
:10365000C0073FD4012059E1606802281BD14020F7
:10366000B0FA80F0400950F00100012803D1DFF8E2
:103670004003006805E04020B0FA80F1DFF83C0329
:1036800000684021B1FA81F111F01F01C840C00764
:1036900020D401203AE15FF08040B0FA80F0400988
:1036A00050F00100012803D1DFF80403006806E0B0
:1036B0005FF08040B0FA80F1DFF8000300685FF04F
:1036C0008041B1FA81F111F01F01C840C00701D457
:1036D00001201BE1DFF8DC020068800880006168DF
:1036E0000843DFF8D0120860FEF764F9060060684E
:1036F000012810D1DFF8BC02006810F00C0004288B
:1037000000F0E980FEF756F9801B41F289318842CA
:10371000F0D30320FAE06068022810D1DFF89402A9
:10372000006810F00C00082800F0D580FEF742F980
:10373000801B41F289318842F0D30320E6E0DFF8B4
:103740007402006810F00C0F00F0C580FEF732F92B
:10375000801B41F289318842F1D30320D6E02078E2
:10376000800709D5DFF84C02006830F0F000A1684E
:103770000843DFF8401208602078C00740F19C80C1
:10378000606801281ED14FF48040B0FA80F04009F3
:1037900050F00100012803D1DFF81402006806E0B0
:1037A0004FF48040B0FA80F1DFF8100200684FF467
:1037B0008041B1FA81F111F01F01C840C0073ED429
:1037C0000120A3E0606802281BD14020B0FA80F0FD
:1037D000400950F00100012803D1DFF8D40100684E
:1037E00005E04020B0FA80F1DFF8D0010068402108
:1037F000B1FA81F111F01F01C840C0071FD40120A8
:1038000084E05FF08040B0FA80F0400950F00100A1
:10381000012802D16648006806E05FF08040B0FAF7
:1038200080F1DFF8980100685FF08041B1FA81F122
:1038300011F01F01C840C00701D4012066E05D48B7
:10384000006880088000616808435A490860FEF7F4
:10385000B1F80600606801280ED15648006810F0E3
:103860000C00042828D0FEF7A5F8801B41F289310E
:103870008842F2D3032049E0606802280ED14D4807
:10388000006810F00C00082816D0FEF793F8801B93
:1038900041F289318842F2D3032037E0454800687D
:1038A00010F00C0F08D0FEF785F8801B41F289312B
:1038B0008842F3D3032029E048480068C008C000CC
:1038C0002843464908604548006810F00700A842B0
:1038D00001D001201AE02078400707D5354800685C
:1038E00030F4E060E168084332490860207800075E
:1038F00008D53048006830F46050216950EAC100B2
:103900002C4908600F20FEF73DF8002070BD70B410
:1039100000210022002300240020264D2D682900CC
:1039200011F00C05042D02D0082D03D027E02C4DFA
:10393000280026E04FF47055B5FA85F511F470169D
:1039400036FA05F5274EAD5D2B001B4D2D685FF057
:103950007046B6FA86F615F00F05F540224EAD5DBD
:103960002A00CD0305D51E4DB5FBF2F55D432C00B5
:1039700003E01E4D05FB03F52C00200001E0184D6F
:10398000280070BC704780B5FFF7C1FF094909687E
:103990005FF07062B2FA82F211F0F001D140144A85
:1039A000895CC840134908601248006802BD0000E5
:1039B00000100240041002402C100240241002406B
:1039C0000210024000004242800442421C100240A9
:1039D000007000402010024060004242002002407F
:1039E00000127A00206400083064000800093D00DD
:1039F00010640008A4000020002201F067BF50F806
:103A0000041B61B150F8042BD30744BFA9F1010393
:103A10009A18002342F8043B091FFAD1EFE77047D8
:103A200010B586B00400E4B2002C06D15E480068F0
:103A300050F480205C4908601EE0E4B2012C06D1FD
:103A40005948006850F480205749086014E0E4B2F7
:103A5000022C06D15448006850F480205249086076
:103A60000AE0E4B2032C06D14F48006850F48020ED
:103A70004D49086000E00020E4B24C4830F81400E2
:103A8000009001200190012002900320039000A9E2
:103A9000E4B2474850F8240000F0F4FB0022E4B2FE
:103AA000424830F81410E4B2414850F8240000F0C5
:103AB000D4FC06B010BD10B504000122E4B23B48AE
:103AC00030F81410E4B23A4850F8240000F0C5FC75
:103AD00010BD10B504000022E4B2344830F81410D0
:103AE000E4B2334850F8240000F0B7FC10BD30B504
:103AF00085B004000D00E4B2002C06D12A4800680D
:103B000050F400302849086000E00020294800688F
:103B100050F0010027490860EDB2002D11D1E4B248
:103B2000254830F8140000900020019002200290F7
:103B30000320039000A9E4B2204850F8240000F0CC
:103B4000A1FBEDB2012D1FD1E4B21B4830F81400E7
:103B5000009000200290032003901948019000A9D2
:103B6000E4B2164850F8240000F08CFB00220F212C
:103B7000E4B21448205640B2FFF7DAF9E4B2114833
:103B8000205640B2FFF7E7F905B030BD10B504008C
:103B9000E4B2094830F81410E4B2084850F82400A0
:103BA00000F04FFC10BD0000141002405C640008DF
:103BB0009000002018100240DE3C0008A000002009
:103BC000000011100E3D000870B44FF0004591EA5E
:103BD000030C44BF6B4001F09DBE00BF841A71EB23
:103BE000030603D2001BB141121973414FF4001CAC
:103BF0001CEB410F34BF7CEB430443E00C0DA4EB02
:103C00001356352E50DC45EAC323DB0A45EAC121B1
:103C1000C912B6F120050DDD63FA05F6EB4086EA20
:103C20000305124218BF45F00105C01851F100010B
:103C30000CD213E062FA06F5F2405540F3415A40C7
:103C4000B340F3405A408018594107D349085FEA0E
:103C500030005FEA350528BF45F0010501F5801108
:103C6000420875F1004250F1000041EB045170BC74
:103C70004FF4001C1CEB410F38BF70470020090DAA
:103C8000090570471CEB410F10D252EA43060BD0D6
:103C9000BCEB410F05D80C0DAB43661E342EB5DDD1
:103CA00002E0AB438018594170BC704770BC70474C
:103CB0004FF4001C1CEB410F94BF1CEB430F09E0B9
:103CC00041EA030C50EA4C0C52EA0C0C03D28B4232
:103CD00008BF8242704714BF99429042704701006A
:103CE0004FF4001C1CEB410F94BF1CEB430F09E089
:103CF00041EA030C50EA4C0C52EA0C0C03D29942F4
:103D000008BF9042704714BF8B4282427047060042
:103D1000B0B581EA030C0CF0004C40F2FF7515EAD7
:103D200011541DBF15EA1357AC42AF4239E0E419F4
:103D300023EA455343F48013C90241F0004141EAAC
:103D4000505EC7021100A7FB020200284FF00000DE
:103D5000EEFB01204FF00001E3FB072118BF42F00A
:103D60000102401800214941E3FB0E01A4F58064E3
:103D70000F0302D252004041494154F101046CDD6D
:103D8000470872F1004250F1000051EB0451A1F5D7
:103D900080115CBF41EA0C01B0BD4CEA0551002026
:103DA000B0BD05EA1357AC4214BFAF4241E050EA40
:103DB000410E1CBF52EA430E02E061460020B0BD36
:103DC00024423C441BD15FEA070EF6D0090302BF30
:103DD00001460020AEF1140EB1FA81F7AEEB0704F4
:103DE00001FA07FE0C37C7F1200100FA07F7C840B7
:103DF0004EEA000E23EA455343F48013A2E733F062
:103E00000043B3FA83F704BFB2FA82FE77440B3F54
:103E1000E41BB7F1200E2FBF02FA0EF3BB40C7F12F
:103E2000200E22FA0EFE38BF43EA0E03BA40641C8D
:103E300082E750EA410E14BF52EA430E6FF00001D0
:103E40004FF4001717EB430F8ABF194617EB410FCA
:103E5000B5E74CEA05510020B0BDD4F10104B4F13E
:103E600020070FDAC4F12007520828BF42F00102F0
:103E700010FA07F501FA07F7E1BF2A43E04038439B
:103E8000E1400FE0352C98DCC7F1200452EA4002F3
:103E900020FA07F218BF42F0010231FA07F0A14000
:103EA0000A43002172F1004250F1000051EB0C0175
:103EB000B0BD00004FEAF17CBCF1E04C2CBFBCF57A
:103EC000001F11E05FEA4C0C34BFBCF17F5F2EE0B5
:103ED0005FEA9C0C4FEA0C1C4FEA3C0CC10071F1EC
:103EE00000414CEB50707047C90241EA5051C0028A
:103EF00018BF41F0010141F000414FEA6C50C0F1A0
:103F00000900212810D240EACC7CCCF1200C11FA17
:103F10000CF070F10040CCF1200C21FA0CF00CF008
:103F2000004C40EB0C0070474FEACC7070474900E2
:103F300011F5001F04D84FEACC10FF30C0057047C0
:103F4000C81770475FF0FF0C1CEAD05114BF6145E1
:103F500006E0C110400721F0E04101F160517047D7
:103F600079B900F0004100020AD0B0FA80FC00FAF2
:103F70000CF001F16051A1EB0C5101EBD021400597
:103F8000704741020CBF40F4E0016FF000010020D7
:103F90007047000083B582B09DED020B8DED000BE4
:103FA000DDE90023C3F30A5140F2FF72914208D0C9
:103FB000002904BF190350EA113011D1104905B08E
:103FC00000BD190350EA113011D1039800284CBFED
:103FD0009FED090B9DED020B51EC100B05B000BDE0
:103FE000002000900022064B02A801F049FDDDE907
:103FF000020105B000BD000000000000000000004C
:104000000000F03F80B551EC100BFFF7C3FF41EC0F
:10401000100B01BD10B50400002C01D101200CE0F3
:104020002079002802D1200000F01BF80220207126
:104030000020206101202071002010BD10B5040077
:10404000002C01D101200BE002202071200000F0A3
:1040500009F80020206100202071002060710020FC
:1040600010BD7047704770B40300002500245879D4
:10407000012801D102201FE001205871022018718F
:1040800018680068050040F6FE7090408543086897
:104090004E683043040014FA02F0054318680560C6
:1040A00018680068C0269640B0431E683060012042
:1040B000187100205871002070BC704738B404009B
:1040C0000020009020680090002905D1009812F18E
:1040D00008052818009004E0009812F1140528182B
:1040E000009000980360002032BC704702005079B5
:1040F000012801D1022033E001205071022010710B
:104100001068006801238B40184313681860002969
:1041100010D11068006840071DD51068006810F0C5
:104120003800382817D11068406850F00100136833
:10413000586010E01068006840030CD510680068F3
:1041400010F46010B0F5601F05D11068406850F0A1
:104150000200136858600120107100205071002087
:104160007047000038B504000025002C03D094F8F7
:104170002900C00602D50120050045E0206A00287C
:1041800094F82900002808D13C48006850F001004C
:104190003A490860200000F052F8002000902068A2
:1041A0000068009000983649084061680843009014
:1041B0000098A16808430090009830F44020A1695D
:1041C00008430090009830F47050E1680843009074
:1041D000009830F40040216908430090009861691C
:1041E000084300900098E169084300900098216A14
:1041F0000843009000982168086094F8290000287E
:1042000002D1012084F829002800C0B232BD38B59F
:1042100004000025002C03D094F82900C00602D524
:104220000120050008E0002021680860200000F05F
:1042300007F8002084F829002800C0B232BD70477A
:10424000704701000020002903D091F82920D206F0
:1042500002D5012210000FE091F82920012A09D18E
:104260000A68126852F001020B681A60022281F893
:10427000292001E001221000C0B27047181002404E
:104280008FFFBFFFF0B4002300240025002632007A
:10429000102A80F0D4800126964033000E681E401C
:1042A00034009C4240F0C9804E68022E02D04E6815
:1042B000122E16D1D60810EB8606366A35000F2668
:1042C00012F00707FFB2BF00BE40B5430E6912F0FF
:1042D0000707FFB2BF00BE403543D60810EB860685
:1042E00035620668350003261700FFB27F00BE4026
:1042F000B5430E7916F003061700FFB27F00BE40EB
:10430000354305604E68012E08D04E68022E05D058
:104310004E68112E02D04E68122E19D186683500D3
:1043200003261700FFB27F00BE40B543CE681700DA
:10433000FFB27F00BE4035438560466835000126E8
:104340009640B5434E68C6F3001696403543456027
:10435000C668350003261700FFB27F00BE40B54394
:104360008E681700FFB27F00BE403543C5604E68BF
:10437000F60062D5444E366856F00106424F3E6064
:104380009608424F57F8266035000F2612F00307B3
:10439000FFB2BF00BE40B543B0F1904F01D100263F
:1043A00019E03B4EB04201D1012614E0394EB04233
:1043B00001D102260FE0384EB04201D103260AE0B7
:1043C000364EB04201D1042605E0354EB04201D14F
:1043D000052600E0062612F00307FFB2BF00BE402C
:1043E00035439608294F47F826502E4E366835003B
:1043F000A5434E68F60300D525432A4E35602A4E64
:1044000036683500A5434E68B60300D52543264ED1
:104410003560264E36683500A5434E68F60200D555
:104420002543224E3560224E36683500A5434E683E
:10443000B60200D525431E4E3560521C28E7F0BC5D
:1044400070470200136989B20B4202D001231800A1
:1044500001E000231800C0B27047D2B2002A01D098
:10446000018300E04183704710B5040011480068E3
:10447000A4B2204206D0A4B20E480460200080B24C
:10448000FEF7BAFB10BD0000181002400800014002
:104490000004004800080048000C004800100048D4
:1044A00000140048000401400404014008040140D5
:1044B0000C040140140401402DE9F04194B00400C3
:1044C000002500275FF00008002C01D10120D5E075
:1044D00094F84500002822D1200001F030FC20682B
:1044E0008068C0001BD4200001F02BF90500EDB25C
:1044F000012D14D0022084F845002068806830F037
:104500004050216888602068806850F080502168A1
:104510008860B8F5347F02D218F10108F9E7206805
:10452000806810F04050B0F1805F08D0042084F81B
:104530004500A06C50F00100A0640120050094F833
:104540004500042800F0938020688068400700F14F
:104550008E80022084F84500DFF8D8050600206828
:10456000B0F1A04F03D1DFF8D005009002E05FF07A
:10457000A04000902068806810F00300012804D15A
:104580002068006810F0010000E00020002818D129
:10459000009800280DD00098806810F003000128D2
:1045A00004D10098006810F0010000E0002000280D
:1045B00007D1B06830F44030B060B068616808433B
:1045C000B0602068C068DFF8741508402168C860D2
:1045D000A06B012802D04FF4805000E00020E16978
:1045E00050EA4130E1680843A16808430743606A24
:1045F000012808D1E069002805D1A06A401E4004C6
:1046000050F480300743E06A012803D0E06A216B50
:10461000084307432068806810F00C0F0CD1206815
:10462000C068DFF8901508402168C860A069616B18
:10463000490051EA803007432068C0683843216848
:10464000C8602068006B00090001216808632069C8
:10465000012806D12068006B216A491E08432168A1
:1046600008630020A064012084F8450004E00420D1
:1046700084F84500012005002800C0B214B0BDE850
:10468000F08138B50400002594F84400012801D1D8
:1046900002202EE0012084F84400200001F014F8EC
:1046A0000500EDB2012D1FD094F84500222803D15A
:1046B000322084F8450002E0122084F845000020F2
:1046C000A0641C2021680860DFF8EC04006810F08A
:1046D0001F0F03D02068B0F1A04F05D1206880687B
:1046E00050F0040021688860002084F8440028000D
:1046F000C0B232BD38B50400002594F8440001284A
:1047000001D1022019E0012084F844006C2120002E
:1047100001F058F80500EDB2012D09D0200001F09C
:1047200010F80500EDB2012D02D0012084F84500FB
:10473000002084F844002800C0B232BDF8B504005F
:104740000D006069082802D10820070001E00C2054
:104750000700FDF72FF9060020680068384211D1E4
:1047600015F1010FF8D0002D04D0FDF723F9801BBF
:104770008542F1D2032084F84500002084F84400EB
:10478000012019E0A069002802D10C2021680860EE
:1047900094F8450004280ED094F8450035280AD036
:1047A00094F84500252803D1352084F8450002E01F
:1047B000152084F845000020F2BD0C21026811602C
:1047C0000068006C704710B504002068006840075E
:1047D00003D520684068400707D4206800680007B8
:1047E00036D520684068000732D594F84500042883
:1047F0000AD094F84500252803D1352084F84500D7
:1048000002E0152084F845002068C06810F4406F6D
:1048100018D1E069002815D120680068000711D57B
:1048200020688068400706D42068406830F00C009B
:104830002168486006E0042084F84500A06C50F030
:104840000100A064200001F07BFA0C2021680860C0
:1048500020680068800603D520684068800607D479
:104860002068006840063FD52068406840063BD578
:1048700094F8450004280AD094F84500152803D17F
:10488000352084F8450002E0252084F845002068A2
:10489000C06C10F0C00F0BD02068C06880011DD420
:1048A0002068C06810F4406F18D1E069002815D165
:1048B00020680068400611D520688068000706D48B
:1048C0002068406830F060002168486006E00420FD
:1048D00084F84500A06C50F00100A0642000FEF7B1
:1048E00070F960202168086020680068000603D520
:1048F0002068406800060FD420680068C00503D512
:1049000020684068C00507D42068006880052CD561
:1049100020684068800528D520680068000606D514
:10492000062084F845008020216808601AE020688D
:104930000068C00507D5072084F845004FF4807053
:10494000216808600EE020680068800507D508200F
:1049500084F845004FF400702168086002E00420EC
:1049600084F84500200001F0ECF920680068C006DA
:1049700017D520684068C00613D5A06B012803D066
:104980002068C068C00709D5042084F84500A06CE1
:1049900050F00200A064200001F0D4F9102021683A
:1049A000086020680068400511D52068406840050F
:1049B0000DD5042084F84500A06C50F00800A064D8
:1049C0004FF4806021680860200000F011F910BDEC
:1049D000F8B504000D00002694F84400012801D128
:1049E00002203BE0012084F84400200000F0A9FEF2
:1049F0000600F6B2012E2AD0012084F84500206876
:104A0000806830F0804021688860012D05D12068E1
:104A1000806850F08040216888602068806850F08D
:104A2000004021688860FCF7C5FF070020688068A7
:104A300000280ED5FCF7BEFFC01B0B28F6D30420C0
:104A400084F84500002084F84400012006E001209D
:104A50000600002084F844003000C0B2F2BD0129F5
:104A600004D10068D0F8B400000C04E00068D0F86D
:104A7000B40010F07F00704738B50400002594F8AA
:104A80004400012801D1022051E0012084F84400B3
:104A9000200000F019FE0500EDB2012D42D094F87F
:104AA0004500122803D1322084F8450002E022207C
:104AB00084F845000020A064602021680860206818
:104AC000C068800205D52068406850F48060216885
:104AD0004860606908280CD12068406830F02000E8
:104AE000216848602068406850F0400021684860B4
:104AF00005E02068406850F0600021684860206848
:104B0000C06880010ED42C48006810F01F0F03D03D
:104B10002068B0F1A04F05D12068806850F00800EF
:104B200021688860002084F844002800C0B232BDAB
:104B300000000000000300500001005007C0F0FF1B
:104B400038B50400002594F84400012801D1022062
:104B50002FE0012084F844006021200000F032FEA4
:104B60000500EDB2012D1FD02068406830F06000D4
:104B70002168486020688068400712D494F8450096
:104B800012280ED094F8450032280AD0200000F0F8
:104B9000D8FD0500EDB2012D06D0012084F84500B6
:104BA00002E0122084F84500002084F84400280028
:104BB000C0B232BDFDBFFFFF080300506022036892
:104BC0001A6002290CD00FD3042901D004D30BE0C2
:104BD0000068D0F88C000AE00068D0F8880006E091
:104BE0000068D0F8840002E00068D0F880007047C8
:104BF0007047F0B593B0020000230026C868012872
:104C0000FFD192F84400012801D102204AE201209C
:104C100082F8440010688068400700F139824868D3
:104C200005281CD21068006B1F27D1F804C05FF064
:104C3000060E0EFB0CFC17FA0CF7B8431768386326
:104C40001068006B0F68D1F804C05FF0060E0EFB11
:104C50000CFC17FA0CF738431768386367E04868AC
:104C60000A2820D21068406B1F27D1F804C0BCF17D
:104C7000050C5FF0060E1CFB0EFC17FA0CF7B84390
:104C8000176878631068406B0F68D1F804C0BCF1F6
:104C9000050C5FF0060E1CFB0EFC17FA0CF73843F0
:104CA0001768786343E048680F2820D21068806B4B
:104CB0001F27D1F804C0BCF10A0C5FF0060E1CFBE4
:104CC0000EFC17FA0CF7B8431768B8631068806BCE
:104CD0000F68D1F804C0BCF10A0C5FF0060E1CFB93
:104CE0000EFC17FA0CF738431768B8631FE010681A
:104CF000C06B1F27D1F804C0BCF10F0C5FF0060E8B
:104D00001CFB0EFC17FA0CF7B8431768F863106821
:104D1000C06B0F68D1F804C0BCF10F0C5FF0060E39
:104D20001CFB0EFC17FA0CF738431768F863106881
:104D3000806810F00C0F40F0D38008680B2820D357
:104D4000106880690727D1F800C0BCF10A0C5FF039
:104D5000030E1CFB0EFC17FA0CF7B8431768B8617A
:104D6000106880698F68D1F800C0BCF10A0C5FF050
:104D7000030E1CFB0EFC17FA0CF738431768B861DA
:104D80001BE0106840690727D1F800C05FF0030EF0
:104D90000EFB0CFC17FA0CF7B84317687861106823
:104DA00040698F68D1F800C05FF0030E0EFB0CFC69
:104DB00017FA0CF738431768786148691768FF6875
:104DC000C7F3C107FFB27F00B8400500086901289A
:104DD00006D04DD3032827D014D3042836D047E07B
:104DE0001068006EDFF8C47A3840176838661068BB
:104DF000006E0F6855EA876757F000473843176819
:104E000038666DE01068406EDFF8A07A38401768A9
:104E100078661068406E0F6855EA876757F000475C
:104E20003843176878665BE01068806EDFF87C7A3C
:104E300038401768B8661068806E0F6855EA876753
:104E400057F0004738431768B86649E01068C06EED
:104E5000DFF8587A38401768F8661068C06E0F6837
:104E600055EA876757F0004738431768F86637E018
:104E70001068006E10F0F8400F68B0EB876F05D136
:104E80001068006E40004008176838661068406E71
:104E900010F0F8400F68B0EB876F05D11068406ED6
:104EA00040004008176878661068806E10F0F8407F
:104EB0000F68B0EB876F05D11068806E4000400826
:104EC0001768B8661068C06E10F0F8400F68B0EB55
:104ED000876F05D11068C06E400040081768F866FB
:104EE0001068806810F00300012804D11068006881
:104EF00010F0010000E00020002840F0CE80C868DB
:104F000001280CD01068D0F8B0000127D1F800C0FB
:104F100017FA0CF7B8431768C7F8B0004FE01068ED
:104F2000D0F8B0000127D1F800C017FA0CF73843C9
:104F30001768C7F8B00008680B2820D3106880698C
:104F40000727D1F800C0BCF1090C5FF0030E1CFB71
:104F50000EFC17FA0CF7B8431768B861106880693F
:104F60008F68D1F800C0BCF1090C5FF0030E1CFB88
:104F70000EFC17FA0CF738431768B8611FE0106889
:104F800040690727D1F800C01CF1010C5FF0030E47
:104F90001CFB0EFC17FA0CF7B84317687861106811
:104FA00040698F68D1F800C01CF1010C5FF0030E5E
:104FB0001CFB0EFC17FA0CF7384317687861DFF812
:104FC000600604000868102802D1A06800020BD512
:104FD0000868112802D1A068C00105D50868122808
:104FE0005BD1A068400258D41068B0F1A04F03D143
:104FF000DFF8BC08009002E05FF0A040009010686D
:10500000806810F00300012804D11068006810F0D7
:10501000010000E00020002834D1009800280DD0C5
:105020000098806810F00300012804D100980068FF
:1050300010F0010000E00020002823D108681028AB
:105040000CD11068B0F1A04F08D1A06850F4000056
:10505000A060B6F5347F20D2761CFAE708681128E4
:1050600008D11068B0F1A04F04D1A06850F0807052
:10507000A06012E0086812280FD1A06850F48000E8
:10508000A0600AE0042082F845000120030004E04B
:10509000042082F8450001200300002082F844002B
:1050A0001800C0B213B0F0BD0000F0B593B002001C
:1050B00000230026C8680128FFD192F84400012887
:1050C00001D10220A9E2012082F8440010690028E1
:1050D00002D0886901282FD14868012826D10020F4
:1050E000DFF8D0773860886A012810D0DFF8C4076D
:1050F00000680F68D1F828C05CEA0727D1F82CC0F7
:105100005CEA07073843DFF8AC77386008E0DFF87F
:10511000A40700680F6850EA0720DFF89877386026
:10512000DFF8900700681768F86480E0042082F8D0
:105130004500012003007AE0DFF87C0700680028C2
:105140002DD11068DFF8747738608869DFF86877E8
:1051500038600020DFF85C7738600020DFF8547793
:105160003860886A012811D0DFF8480700688F6925
:105170007F1ED1F828C05CEA0707D1F82CC05CEA92
:1051800007073843DFF82C77386008E0DFF824079A
:1051900000688F697F1E3843DFF818773860106821
:1051A000DFF818773F68B84239D1DFF808070068A0
:1051B0001F27D1F804C05FF0060E0EFB0CFC1CF19B
:1051C000020C17FA0CF7B843DFF8E8763860DFF81E
:1051D000E40600680F68D1F804C05FF0060E0EFB0D
:1051E0000CFC1CF1020C17FA0CF73843DFF8C476FC
:1051F0003860DFF8C4060068401EDFF8BC7638600F
:10520000DFF8B4060068002811D1DFF8A8060068AE
:105210001768F8640020DFF8A076386007E0042003
:1052200082F84500002082F844000120F5E1106872
:105230008068000724D41068C06830F440101768F4
:10524000F860086A00280CD11068C0684F6AD1F86D
:105250001CC05FEA0C5C5CEA475738431768F8608B
:105260000EE01068C0684F6A50EA47501768F8604F
:10527000C869012804D1042082F8450001200300F8
:105280001068806810F00C0F40F0EC801068C06867
:1052900030F000701768F860886A012807D110683C
:1052A000C0680F6A50EA47601768F86007E0086A4C
:1052B000012804D1042082F8450001200300086879
:1052C0000B2820D3106880690727D1F800C0BCF1F3
:1052D0000A0C5FF0030E1CFB0EFC17FA0CF7B84328
:1052E0001768B861106880698F68D1F800C0BCF198
:1052F0000A0C5FF0030E1CFB0EFC17FA0CF7384388
:105300001768B8611BE0106840690727D1F800C032
:105310005FF0030E0EFB0CFC17FA0CF7B84317688E
:105320007861106840698F68D1F800C05FF0030EA3
:105330000EFB0CFC17FA0CF73843176878614869C4
:105340001768FF68C7F3C107FFB27F00B8400500C8
:105350000869012806D04DD3032827D014D3042888
:1053600036D047E01068006EDFF8407538401768A7
:1053700038661068006E0F6855EA876757F0004777
:105380003843176838666DE01068406EDFF81C75AA
:105390003840176878661068406E0F6855EA87676E
:1053A00057F000473843176878665BE01068806EF6
:1053B000DFF8F87438401768B8661068806E0F68B8
:1053C00055EA876757F0004738431768B86649E0E1
:1053D0001068C06EDFF8D47438401768F86610683B
:1053E000C06E0F6855EA876757F000473843176863
:1053F000F86637E01068006E10F0F8400F68B0EB08
:10540000876F05D11068006E400040081768386645
:105410001068406E10F0F8400F68B0EB876F05D150
:105420001068406E40004008176878661068806E0B
:1054300010F0F8400F68B0EB876F05D11068806EF0
:10544000400040081768B8661068C06E10F0F84059
:105450000F68B0EB876F05D11068C06E4000400840
:105460001768F8661068806810F00300012804D1FE
:105470001068006810F0010000E00020002840F0F3
:10548000C780C86801280CD01068D0F8B000012788
:10549000D1F800C017FA0CF7B8431768C7F8B00086
:1054A0004FE01068D0F8B0000127D1F800C017FA1B
:1054B0000CF738431768C7F8B00008680B2820D3EA
:1054C000106880690727D1F800C0BCF1090C5FF0B3
:1054D000030E1CFB0EFC17FA0CF7B8431768B861F3
:1054E000106880698F68D1F800C0BCF1090C5FF0CA
:1054F000030E1CFB0EFC17FA0CF738431768B86153
:105500001FE0106840690727D1F800C01CF1010CAA
:105510005FF0030E1CFB0EFC17FA0CF7B84317687C
:105520007861106840698F68D1F800C01CF1010CE7
:105530005FF0030E1CFB0EFC17FA0CF738431768DC
:105540007861374804000868102802D1A06800027A
:105550000BD50868112802D1A068C00105D50868DC
:10556000122855D1A068400252D41068B0F1A04F63
:1055700003D1DFF83C03009002E05FF0A040009010
:105580001068806810F00300012804D110680068DA
:1055900010F0010000E00020002834D1009800281D
:1055A0000DD00098806810F00300012804D1009805
:1055B000006810F0010000E00020002823D10868F6
:1055C00010280CD11068B0F1A04F08D1A06850F499
:1055D0000000A060B6F5347F1AD2761CFAE708689E
:1055E000112808D11068B0F1A04F04D1A06850F084
:1055F0008070A0600CE00868122809D1A06850F4FF
:105600008000A06004E0042082F84500012003002F
:10561000002082F844001800C0B213B0F0BD0000B2
:105620000003005070B493B00200002392F84400CD
:10563000012801D1022044E0012082F844001068D2
:10564000B0F1A04F02D19A48009002E05FF0A04074
:1056500000901068806810F00300012804D11068E1
:10566000006810F0010000E0002000281FD1009821
:10567000806810F00300012804D10098006810F041
:10568000010000E00020002811D18D480400A0682E
:105690008C4D2840A060A0680D684E6835438E6828
:1056A0003543566B55EA46352843A06004E0042094
:1056B00082F8450001200300002082F84400180011
:1056C000C0B213B070BC704738B504000025206824
:1056D000806810F00300012804D12068006810F0F1
:1056E000010000E00020002829D1206880686FF3C5
:1056F0009E10002808D0042084F84500A06C50F0CB
:105700000100A06401201BE02068806850F00100C7
:1057100021688860FCF74EF9050020680068C00722
:105720000DD4FCF747F9401B0328F6D3042084F876
:105730004500A06C50F00100A064012000E00020B2
:1057400032BD38B5040000252068806810F00300E1
:10575000012804D12068006810F0010000E000205A
:1057600000282DD02068806810F00D0001280CD191
:105770002068806850F0020021688860032021685A
:105780000860FCF717F9050008E0042084F84500DC
:10579000A06C50F00100A064012012E02068806835
:1057A000C0070DD5FCF706F9401B0328F6D30420EB
:1057B00084F84500A06C50F00100A064012000E0D6
:1057C000002032BD2DE9F04104000D000026002725
:1057D0005FF000082068806810F00C0F63D020682C
:1057E000806880011DD5E06901281AD1A0690128CF
:1057F00017D10C2005002068006840060ED43248FE
:10580000804508D3042084F84500A06C50F00100C6
:10581000A064012048E018F10108ECE7402021686D
:105820000860602D0DD020688068400709D5206889
:105830008068800705D42068806850F010002168D7
:1058400088600C2D0DD020688068000709D520687D
:105850008068800705D42068806850F020002168A7
:1058600088602800602804D06C2805D10C20060030
:1058700004E00820060001E004200600FCF79AF886
:1058800007002068806830420DD0FCF793F8C01BF9
:105890000C28F6D3042084F84500A06C50F00100D9
:1058A000A064012000E00020BDE8F08100F0FF834B
:1058B00000010050100200200C020020080200200D
:1058C00000030050E010FFFF0094090000B500BF86
:1058D000130096469446103928BFA0E80C50FAD819
:1058E0005FEA417C28BF0CC048BF40F8042BC907C1
:1058F00028BF20F8022B48BF00F8012B00BD000094
:1059000070B44FF0004591EA030F44BF6B40FEF7BF
:1059100065B900BF841A71EB030604D26E40001B08
:10592000B141121973414FF4001C1CEB410F34BFFD
:105930007CEB430684E00C0DA4EB1356362E7DDC85
:10594000012E43DC45EAC32343EA525312BFD2027D
:1059500092025B08240545EAC12141EA5051D2EB8D
:10596000C020994125D407D1B0FA80F610FA06F18B
:1059700064D00020203608E0B1FA81F6B140C6F1CB
:10598000200220FA02F21143B0404FEAF474B4EB63
:10599000465434F001064FEA74040AD8D6F50016CE
:1059A000760D04F00044F04061FA06F25040F140F8
:1059B0004840C00A40EA415021F0004128BF5FEA58
:1059C000500550F1000044EBD12137E045EAC323F4
:1059D000DB0A45EAC121C90AB6F120050EDD42EA1B
:1059E0000242120CC5F1200603FA06F6EB4042EA29
:1059F00006056D42984161F100010DE062FA06F57D
:105A0000F240554063FA06FC82EA0C02F3405A4029
:105A10006D42904161EB030111F4801F05D1641EBA
:105A2000620502D06D004041494121F480114308D4
:105A300075F1004350F1000041EB045170BC704718
:105A40001CEB410F15D223F0004352EA43060BD062
:105A50004FEA4C0CBCEB410F04D80C0D661E342EE3
:105A6000B7DDEBE7801A994150EA410608BF0021F3
:105A7000E4E708BF1CEB430F28BF6FF00001DDE730
:105A80002DE9704C04462DED088BD4E9000143EC60
:105A9000182B00F058F9064651EC180B00F053F99A
:105AA0000E9D310006D500284AD4022805D184ED88
:105AB000008B40E1022EF8D121E050B9D4E9000179
:105AC0000022334B00F060F90FD084ED008B0020F2
:105AD00031E1012815D1D4E9000100222D4B00F05D
